{
  "contractName": "SmartHotel",
  "abi": [
    {
      "inputs": [
        {
          "internalType": "uint64",
          "name": "_initialPrice",
          "type": "uint64"
        },
        {
          "internalType": "uint16",
          "name": "_roomNum",
          "type": "uint16"
        }
      ],
      "stateMutability": "nonpayable",
      "type": "constructor"
    },
    {
      "anonymous": false,
      "inputs": [
        {
          "indexed": true,
          "internalType": "address",
          "name": "from",
          "type": "address"
        },
        {
          "indexed": true,
          "internalType": "uint256",
          "name": "timestamp",
          "type": "uint256"
        },
        {
          "indexed": true,
          "internalType": "uint256",
          "name": "span",
          "type": "uint256"
        },
        {
          "indexed": false,
          "internalType": "uint8",
          "name": "index",
          "type": "uint8"
        }
      ],
      "name": "AppoCanseled",
      "type": "event"
    },
    {
      "anonymous": false,
      "inputs": [
        {
          "indexed": true,
          "internalType": "address",
          "name": "from",
          "type": "address"
        },
        {
          "indexed": true,
          "internalType": "uint256",
          "name": "timestamp",
          "type": "uint256"
        },
        {
          "indexed": true,
          "internalType": "uint256",
          "name": "span",
          "type": "uint256"
        },
        {
          "indexed": false,
          "internalType": "uint16",
          "name": "room",
          "type": "uint16"
        }
      ],
      "name": "AppoScheduled",
      "type": "event"
    },
    {
      "anonymous": false,
      "inputs": [
        {
          "indexed": true,
          "internalType": "address",
          "name": "user",
          "type": "address"
        },
        {
          "indexed": true,
          "internalType": "uint256",
          "name": "timestamp",
          "type": "uint256"
        }
      ],
      "name": "CheckedIn",
      "type": "event"
    },
    {
      "anonymous": false,
      "inputs": [
        {
          "indexed": true,
          "internalType": "address",
          "name": "user",
          "type": "address"
        },
        {
          "indexed": true,
          "internalType": "uint256",
          "name": "timestamp",
          "type": "uint256"
        }
      ],
      "name": "CheckedOut",
      "type": "event"
    },
    {
      "anonymous": false,
      "inputs": [
        {
          "indexed": true,
          "internalType": "address",
          "name": "from",
          "type": "address"
        },
        {
          "indexed": false,
          "internalType": "uint256",
          "name": "sum",
          "type": "uint256"
        },
        {
          "indexed": true,
          "internalType": "uint64",
          "name": "price",
          "type": "uint64"
        }
      ],
      "name": "TokenBought",
      "type": "event"
    },
    {
      "anonymous": false,
      "inputs": [
        {
          "indexed": true,
          "internalType": "uint64",
          "name": "oldPrice",
          "type": "uint64"
        },
        {
          "indexed": true,
          "internalType": "uint64",
          "name": "newPrice",
          "type": "uint64"
        }
      ],
      "name": "TokenPriceChanged",
      "type": "event"
    },
    {
      "anonymous": false,
      "inputs": [
        {
          "indexed": true,
          "internalType": "bool",
          "name": "state",
          "type": "bool"
        },
        {
          "indexed": true,
          "internalType": "uint256",
          "name": "timestamp",
          "type": "uint256"
        }
      ],
      "name": "checkKeyState",
      "type": "event"
    },
    {
      "anonymous": false,
      "inputs": [
        {
          "indexed": true,
          "internalType": "address",
          "name": "user",
          "type": "address"
        },
        {
          "indexed": true,
          "internalType": "uint256",
          "name": "timestamp",
          "type": "uint256"
        }
      ],
      "name": "keyLocked",
      "type": "event"
    },
    {
      "anonymous": false,
      "inputs": [
        {
          "indexed": true,
          "internalType": "address",
          "name": "user",
          "type": "address"
        },
        {
          "indexed": true,
          "internalType": "uint256",
          "name": "timestamp",
          "type": "uint256"
        }
      ],
      "name": "keyOpened",
      "type": "event"
    },
    {
      "anonymous": false,
      "inputs": [
        {
          "indexed": true,
          "internalType": "address",
          "name": "user",
          "type": "address"
        },
        {
          "indexed": true,
          "internalType": "uint256",
          "name": "timestamp",
          "type": "uint256"
        }
      ],
      "name": "roomPassOK",
      "type": "event"
    },
    {
      "inputs": [],
      "name": "deployTime",
      "outputs": [
        {
          "internalType": "uint256",
          "name": "",
          "type": "uint256"
        }
      ],
      "stateMutability": "view",
      "type": "function",
      "constant": true
    },
    {
      "inputs": [],
      "name": "hotelToken",
      "outputs": [
        {
          "internalType": "contract HotelToken",
          "name": "",
          "type": "address"
        }
      ],
      "stateMutability": "view",
      "type": "function",
      "constant": true
    },
    {
      "inputs": [],
      "name": "hotelTokenPrice",
      "outputs": [
        {
          "internalType": "uint64",
          "name": "",
          "type": "uint64"
        }
      ],
      "stateMutability": "view",
      "type": "function",
      "constant": true
    },
    {
      "inputs": [],
      "name": "name",
      "outputs": [
        {
          "internalType": "string",
          "name": "",
          "type": "string"
        }
      ],
      "stateMutability": "view",
      "type": "function",
      "constant": true
    },
    {
      "inputs": [],
      "name": "owner",
      "outputs": [
        {
          "internalType": "address payable",
          "name": "",
          "type": "address"
        }
      ],
      "stateMutability": "view",
      "type": "function",
      "constant": true
    },
    {
      "inputs": [],
      "name": "roomNum",
      "outputs": [
        {
          "internalType": "uint16",
          "name": "",
          "type": "uint16"
        }
      ],
      "stateMutability": "view",
      "type": "function",
      "constant": true
    },
    {
      "inputs": [
        {
          "internalType": "address",
          "name": "",
          "type": "address"
        },
        {
          "internalType": "uint256",
          "name": "",
          "type": "uint256"
        }
      ],
      "name": "userBookings",
      "outputs": [
        {
          "internalType": "uint256",
          "name": "timestamp",
          "type": "uint256"
        },
        {
          "internalType": "uint8",
          "name": "numDays",
          "type": "uint8"
        },
        {
          "internalType": "bool",
          "name": "isCheckedIn",
          "type": "bool"
        },
        {
          "internalType": "uint16",
          "name": "roomId",
          "type": "uint16"
        }
      ],
      "stateMutability": "view",
      "type": "function",
      "constant": true
    },
    {
      "inputs": [
        {
          "internalType": "uint16",
          "name": "_year",
          "type": "uint16"
        },
        {
          "internalType": "uint8",
          "name": "_month",
          "type": "uint8"
        },
        {
          "internalType": "uint8",
          "name": "_day",
          "type": "uint8"
        }
      ],
      "name": "getUnixTimestamp",
      "outputs": [
        {
          "internalType": "uint256",
          "name": "",
          "type": "uint256"
        }
      ],
      "stateMutability": "view",
      "type": "function",
      "constant": true
    },
    {
      "inputs": [
        {
          "internalType": "address",
          "name": "_addr",
          "type": "address"
        }
      ],
      "name": "getTokenBalance",
      "outputs": [
        {
          "internalType": "uint256",
          "name": "",
          "type": "uint256"
        }
      ],
      "stateMutability": "view",
      "type": "function",
      "constant": true
    },
    {
      "inputs": [
        {
          "internalType": "address",
          "name": "_addr",
          "type": "address"
        }
      ],
      "name": "getUserAppo",
      "outputs": [
        {
          "components": [
            {
              "internalType": "uint256",
              "name": "timestamp",
              "type": "uint256"
            },
            {
              "internalType": "uint8",
              "name": "numDays",
              "type": "uint8"
            },
            {
              "internalType": "bool",
              "name": "isCheckedIn",
              "type": "bool"
            },
            {
              "internalType": "uint16",
              "name": "roomId",
              "type": "uint16"
            }
          ],
          "internalType": "struct SmartHotel.UserBooking[]",
          "name": "",
          "type": "tuple[]"
        }
      ],
      "stateMutability": "view",
      "type": "function",
      "constant": true
    },
    {
      "inputs": [
        {
          "internalType": "uint64",
          "name": "_newPrice",
          "type": "uint64"
        }
      ],
      "name": "changeTokenPrice",
      "outputs": [],
      "stateMutability": "nonpayable",
      "type": "function"
    },
    {
      "inputs": [
        {
          "internalType": "uint256",
          "name": "_numTokens",
          "type": "uint256"
        }
      ],
      "name": "buyTokens",
      "outputs": [],
      "stateMutability": "payable",
      "type": "function",
      "payable": true
    },
    {
      "inputs": [
        {
          "internalType": "uint16",
          "name": "_roomId",
          "type": "uint16"
        },
        {
          "internalType": "uint256",
          "name": "_start",
          "type": "uint256"
        },
        {
          "internalType": "uint8",
          "name": "_numDays",
          "type": "uint8"
        }
      ],
      "name": "getAppoList",
      "outputs": [
        {
          "internalType": "uint256[]",
          "name": "",
          "type": "uint256[]"
        }
      ],
      "stateMutability": "view",
      "type": "function",
      "constant": true
    },
    {
      "inputs": [
        {
          "internalType": "uint16",
          "name": "_roomId",
          "type": "uint16"
        },
        {
          "internalType": "string",
          "name": "_name",
          "type": "string"
        },
        {
          "internalType": "uint256",
          "name": "_timestamp",
          "type": "uint256"
        },
        {
          "internalType": "uint8",
          "name": "_numDays",
          "type": "uint8"
        }
      ],
      "name": "bookAppo",
      "outputs": [],
      "stateMutability": "nonpayable",
      "type": "function"
    },
    {
      "inputs": [
        {
          "internalType": "uint8",
          "name": "_index",
          "type": "uint8"
        }
      ],
      "name": "canselAppo",
      "outputs": [],
      "stateMutability": "nonpayable",
      "type": "function"
    },
    {
      "inputs": [
        {
          "internalType": "uint256",
          "name": "_timestamp",
          "type": "uint256"
        },
        {
          "internalType": "uint8",
          "name": "_index",
          "type": "uint8"
        }
      ],
      "name": "checkIn",
      "outputs": [],
      "stateMutability": "nonpayable",
      "type": "function"
    },
    {
      "inputs": [
        {
          "internalType": "uint256",
          "name": "_timestamp",
          "type": "uint256"
        },
        {
          "internalType": "uint8",
          "name": "_index",
          "type": "uint8"
        }
      ],
      "name": "checkOut",
      "outputs": [],
      "stateMutability": "nonpayable",
      "type": "function"
    },
    {
      "inputs": [
        {
          "internalType": "uint256[6]",
          "name": "_input",
          "type": "uint256[6]"
        },
        {
          "internalType": "uint256",
          "name": "_timestamp",
          "type": "uint256"
        },
        {
          "internalType": "uint8",
          "name": "_index",
          "type": "uint8"
        }
      ],
      "name": "roomPassSet",
      "outputs": [],
      "stateMutability": "nonpayable",
      "type": "function"
    },
    {
      "inputs": [
        {
          "internalType": "uint16",
          "name": "_roomId",
          "type": "uint16"
        }
      ],
      "name": "isPassSet",
      "outputs": [
        {
          "internalType": "bool",
          "name": "",
          "type": "bool"
        }
      ],
      "stateMutability": "view",
      "type": "function",
      "constant": true
    },
    {
      "inputs": [
        {
          "internalType": "uint256[6]",
          "name": "_input",
          "type": "uint256[6]"
        },
        {
          "internalType": "uint256",
          "name": "_timestamp",
          "type": "uint256"
        },
        {
          "internalType": "uint8",
          "name": "_index",
          "type": "uint8"
        }
      ],
      "name": "keyOpen",
      "outputs": [],
      "stateMutability": "nonpayable",
      "type": "function"
    },
    {
      "inputs": [
        {
          "internalType": "uint256",
          "name": "_timestamp",
          "type": "uint256"
        },
        {
          "internalType": "uint8",
          "name": "_index",
          "type": "uint8"
        }
      ],
      "name": "keyLock",
      "outputs": [],
      "stateMutability": "nonpayable",
      "type": "function"
    },
    {
      "inputs": [
        {
          "internalType": "uint256",
          "name": "_timestamp",
          "type": "uint256"
        },
        {
          "internalType": "uint8",
          "name": "_index",
          "type": "uint8"
        }
      ],
      "name": "isDoorOpenStrict",
      "outputs": [],
      "stateMutability": "nonpayable",
      "type": "function"
    },
    {
      "inputs": [
        {
          "internalType": "uint16",
          "name": "_roomId",
          "type": "uint16"
        },
        {
          "internalType": "uint256",
          "name": "_timestamp",
          "type": "uint256"
        }
      ],
      "name": "showAppo",
      "outputs": [
        {
          "components": [
            {
              "internalType": "bool",
              "name": "isAppointment",
              "type": "bool"
            },
            {
              "internalType": "string",
              "name": "partyName",
              "type": "string"
            },
            {
              "internalType": "address",
              "name": "userAddress",
              "type": "address"
            }
          ],
          "internalType": "struct SmartHotel.Appointment",
          "name": "appo",
          "type": "tuple"
        }
      ],
      "stateMutability": "view",
      "type": "function",
      "constant": true
    },
    {
      "inputs": [
        {
          "internalType": "uint8",
          "name": "_index",
          "type": "uint8"
        }
      ],
      "name": "isCheckedIn",
      "outputs": [
        {
          "components": [
            {
              "internalType": "uint256",
              "name": "timestamp",
              "type": "uint256"
            },
            {
              "internalType": "uint8",
              "name": "numDays",
              "type": "uint8"
            },
            {
              "internalType": "bool",
              "name": "isCheckedIn",
              "type": "bool"
            },
            {
              "internalType": "uint16",
              "name": "roomId",
              "type": "uint16"
            }
          ],
          "internalType": "struct SmartHotel.UserBooking",
          "name": "booking",
          "type": "tuple"
        }
      ],
      "stateMutability": "view",
      "type": "function",
      "constant": true
    },
    {
      "inputs": [
        {
          "internalType": "uint16",
          "name": "_roomId",
          "type": "uint16"
        }
      ],
      "name": "isDoorOpen",
      "outputs": [
        {
          "internalType": "bool",
          "name": "",
          "type": "bool"
        }
      ],
      "stateMutability": "view",
      "type": "function",
      "constant": true
    }
  ],
  "bytecode": "0x60806040523480156200001157600080fd5b5060405162007c4538038062007c45833981810160405281019062000037919062000256565b42600381905550306040516200004d90620001b1565b620000599190620002e2565b604051809103906000f08015801562000076573d6000803e3d6000fd5b506000806101000a81548173ffffffffffffffffffffffffffffffffffffffff021916908373ffffffffffffffffffffffffffffffffffffffff16021790555033600260006101000a81548173ffffffffffffffffffffffffffffffffffffffff021916908373ffffffffffffffffffffffffffffffffffffffff1602179055506040516200010590620001bf565b604051809103906000f08015801562000122573d6000803e3d6000fd5b50600160006101000a81548173ffffffffffffffffffffffffffffffffffffffff021916908373ffffffffffffffffffffffffffffffffffffffff16021790555081600260166101000a81548167ffffffffffffffff021916908367ffffffffffffffff16021790555080600260146101000a81548161ffff021916908361ffff1602179055505050620002ff565b6116ae8062005cb183390190565b6108e6806200735f83390190565b600080fd5b600067ffffffffffffffff82169050919050565b620001f181620001d2565b8114620001fd57600080fd5b50565b6000815190506200021181620001e6565b92915050565b600061ffff82169050919050565b620002308162000217565b81146200023c57600080fd5b50565b600081519050620002508162000225565b92915050565b6000806040838503121562000270576200026f620001cd565b5b6000620002808582860162000200565b925050602062000293858286016200023f565b9150509250929050565b600073ffffffffffffffffffffffffffffffffffffffff82169050919050565b6000620002ca826200029d565b9050919050565b620002dc81620002bd565b82525050565b6000602082019050620002f96000830184620002d1565b92915050565b6159a2806200030f6000396000f3fe6080604052600436106101665760003560e01c806361d60cb3116100d1578063c7de29f71161008a578063e3a4d3a211610064578063e3a4d3a214610565578063eef3f41e146105a5578063f2a01496146105ce578063f9da89c9146105f757610166565b8063c7de29f7146104d4578063d03d66fc14610511578063df1e02e71461053a57610166565b806361d60cb3146103da5780636a15e4f2146104035780637a11308f1461042c5780637a40624b146104555780637ec4e61d146104805780638da5cb5b146104a957610166565b80632c795868116101235780632c7958681461029f5780633610724e146102dc5780633aecd0e3146102f857806348f0478b1461033557806349ac270e146103605780634f7141bc1461039d57610166565b806304d5a9301461016b57806306fdde03146101a85780630e89f552146101d35780630ec9ad4c146101fc578063131104a5146102255780632352cfee14610262575b600080fd5b34801561017757600080fd5b50610192600480360381019061018d9190613d8d565b610622565b60405161019f9190613e9e565b60405180910390f35b3480156101b457600080fd5b506101bd6108f1565b6040516101ca9190613f50565b60405180910390f35b3480156101df57600080fd5b506101fa60048036038101906101f59190613f99565b61092a565b005b34801561020857600080fd5b50610223600480360381019061021e9190613fed565b610e33565b005b34801561023157600080fd5b5061024c6004803603810190610247919061402d565b611230565b604051610259919061408f565b60405180910390f35b34801561026e57600080fd5b50610289600480360381019061028491906140aa565b6112db565b60405161029691906141e0565b60405180910390f35b3480156102ab57600080fd5b506102c660048036038101906102c19190614202565b611430565b6040516102d3919061423e565b60405180910390f35b6102f660048036038101906102f19190614259565b611462565b005b34801561030457600080fd5b5061031f600480360381019061031a91906142b2565b6117ad565b60405161032c919061408f565b60405180910390f35b34801561034157600080fd5b5061034a611851565b604051610357919061433e565b60405180910390f35b34801561036c57600080fd5b5061038760048036038101906103829190614202565b611875565b604051610394919061423e565b60405180910390f35b3480156103a957600080fd5b506103c460048036038101906103bf91906142b2565b6118aa565b6040516103d1919061447b565b60405180910390f35b3480156103e657600080fd5b5061040160048036038101906103fc9190613fed565b6119aa565b005b34801561040f57600080fd5b5061042a60048036038101906104259190613f99565b611da2565b005b34801561043857600080fd5b50610453600480360381019061044e91906144dd565b6122bc565b005b34801561046157600080fd5b5061046a612423565b604051610477919061408f565b60405180910390f35b34801561048c57600080fd5b506104a760048036038101906104a2919061456a565b612429565b005b3480156104b557600080fd5b506104be612953565b6040516104cb9190614613565b60405180910390f35b3480156104e057600080fd5b506104fb60048036038101906104f6919061462e565b612979565b60405161050891906146b0565b60405180910390f35b34801561051d57600080fd5b5061053860048036038101906105339190613fed565b612a57565b005b34801561054657600080fd5b5061054f612e8f565b60405161055c91906146da565b60405180910390f35b34801561057157600080fd5b5061058c600480360381019061058791906146f5565b612ea3565b60405161059c9493929190614744565b60405180910390f35b3480156105b157600080fd5b506105cc60048036038101906105c79190613fed565b612f18565b005b3480156105da57600080fd5b506105f560048036038101906105f0919061462e565b6133a8565b005b34801561060357600080fd5b5061060c613909565b6040516106199190614798565b60405180910390f35b6060838061ffff166000111580156106525750600260149054906101000a900461ffff1661ffff168161ffff1611155b610691576040517f08c379a0000000000000000000000000000000000000000000000000000000008152600401610688906147ff565b60405180910390fd5b838361069c82613923565b61016d8160ff16111580156106b4575060008160ff16115b6106f3576040517f08c379a00000000000000000000000000000000000000000000000000000000081526004016106ea9061486b565b60405180910390fd5b60008560ff1667ffffffffffffffff8111156107125761071161488b565b5b6040519080825280602002602001820160405280156107405781602001602082028036833780820191505090505b50905060005b8660ff168110156108e2576000600660008b61ffff1661ffff1681526020019081526020016000206000620151808461077f91906148e9565b8b61078a919061492b565b81526020019081526020016000206040518060600160405290816000820160009054906101000a900460ff161515151581526020016001820180546107ce9061498e565b80601f01602080910402602001604051908101604052809291908181526020018280546107fa9061498e565b80156108475780601f1061081c57610100808354040283529160200191610847565b820191906000526020600020905b81548152906001019060200180831161082a57829003601f168201915b505050505081526020016002820160009054906101000a900473ffffffffffffffffffffffffffffffffffffffff1673ffffffffffffffffffffffffffffffffffffffff1673ffffffffffffffffffffffffffffffffffffffff168152505090508060000151156108d45760018383815181106108c7576108c66149bf565b5b6020026020010181815250505b818060010192505050610746565b50809450505050509392505050565b6040518060400160405280600a81526020017f536d617274486f74656c0000000000000000000000000000000000000000000081525081565b8161093481613977565b6000600760003373ffffffffffffffffffffffffffffffffffffffff1673ffffffffffffffffffffffffffffffffffffffff1681526020019081526020016000208360ff168154811061098a576109896149bf565b5b906000526020600020906002020160010160029054906101000a900461ffff1690506000600660008361ffff1661ffff16815260200190815260200160002060008681526020019081526020016000206040518060600160405290816000820160009054906101000a900460ff16151515158152602001600182018054610a109061498e565b80601f0160208091040260200160405190810160405280929190818152602001828054610a3c9061498e565b8015610a895780601f10610a5e57610100808354040283529160200191610a89565b820191906000526020600020905b815481529060010190602001808311610a6c57829003601f168201915b505050505081526020016002820160009054906101000a900473ffffffffffffffffffffffffffffffffffffffff1673ffffffffffffffffffffffffffffffffffffffff1673ffffffffffffffffffffffffffffffffffffffff1681525050905060001515600460008461ffff1661ffff16815260200190815260200160002060010160009054906101000a900460ff16151514610b5c576040517f08c379a0000000000000000000000000000000000000000000000000000000008152600401610b5390614a3a565b60405180910390fd5b8060000151610ba0576040517f08c379a0000000000000000000000000000000000000000000000000000000008152600401610b9790614aa6565b60405180910390fd5b3373ffffffffffffffffffffffffffffffffffffffff16816040015173ffffffffffffffffffffffffffffffffffffffff1614610c12576040517f08c379a0000000000000000000000000000000000000000000000000000000008152600401610c0990614b12565b60405180910390fd5b60076000826040015173ffffffffffffffffffffffffffffffffffffffff1673ffffffffffffffffffffffffffffffffffffffff1681526020019081526020016000208460ff1681548110610c6a57610c696149bf565b5b906000526020600020906002020160010160019054906101000a900460ff16610cc8576040517f08c379a0000000000000000000000000000000000000000000000000000000008152600401610cbf90614b7e565b60405180910390fd5b60005b6006811015610d5f57868160068110610ce757610ce66149bf565b5b6020020135600011158015610d135750600a878260068110610d0c57610d0b6149bf565b5b6020020135105b610d52576040517f08c379a0000000000000000000000000000000000000000000000000000000008152600401610d4990614bea565b60405180910390fd5b8080600101915050610ccb565b5085604051602001610d719190614c23565b6040516020818303038152906040528051906020012060001c600460008461ffff1661ffff168152602001908152602001600020600001819055506001600460008461ffff1661ffff16815260200190815260200160002060010160006101000a81548160ff02191690831515021790555042816040015173ffffffffffffffffffffffffffffffffffffffff167fd826f21f737182bf828b63f749427fc75ffb76e1c1489baf5ca641e1fca4c32860405160405180910390a3505050505050565b81610e3d81613977565b6000600760003373ffffffffffffffffffffffffffffffffffffffff1673ffffffffffffffffffffffffffffffffffffffff1681526020019081526020016000208360ff1681548110610e9357610e926149bf565b5b906000526020600020906002020160010160029054906101000a900461ffff1690506000600660008361ffff1661ffff16815260200190815260200160002060008681526020019081526020016000206040518060600160405290816000820160009054906101000a900460ff16151515158152602001600182018054610f199061498e565b80601f0160208091040260200160405190810160405280929190818152602001828054610f459061498e565b8015610f925780601f10610f6757610100808354040283529160200191610f92565b820191906000526020600020905b815481529060010190602001808311610f7557829003601f168201915b505050505081526020016002820160009054906101000a900473ffffffffffffffffffffffffffffffffffffffff1673ffffffffffffffffffffffffffffffffffffffff1673ffffffffffffffffffffffffffffffffffffffff168152505090508060000151611037576040517f08c379a000000000000000000000000000000000000000000000000000000000815260040161102e90614aa6565b60405180910390fd5b3373ffffffffffffffffffffffffffffffffffffffff16816040015173ffffffffffffffffffffffffffffffffffffffff16146110a9576040517f08c379a00000000000000000000000000000000000000000000000000000000081526004016110a090614b12565b60405180910390fd5b60076000826040015173ffffffffffffffffffffffffffffffffffffffff1673ffffffffffffffffffffffffffffffffffffffff1681526020019081526020016000208460ff1681548110611101576111006149bf565b5b906000526020600020906002020160010160019054906101000a900460ff1661115f576040517f08c379a000000000000000000000000000000000000000000000000000000000815260040161115690614b7e565b60405180910390fd5b60011515600460008461ffff1661ffff16815260200190815260200160002060010160009054906101000a900460ff161515146111d1576040517f08c379a00000000000000000000000000000000000000000000000000000000081526004016111c890614c8a565b60405180910390fd5b84600560008461ffff1661ffff16815260200190815260200160002060009054906101000a900460ff1615157f197bcc9063340cc9b73855a0ba89b3e9d569a32dff76aba1b814e12a510874a060405160405180910390a35050505050565b6000600160009054906101000a900473ffffffffffffffffffffffffffffffffffffffff1673ffffffffffffffffffffffffffffffffffffffff16638c8d98a08585856040518463ffffffff1660e01b815260040161129193929190614caa565b602060405180830381865afa1580156112ae573d6000803e3d6000fd5b505050506040513d601f19601f820116820180604052508101906112d29190614cf6565b90509392505050565b6112e3613c70565b816112ed81613977565b600660008561ffff1661ffff16815260200190815260200160002060008481526020019081526020016000206040518060600160405290816000820160009054906101000a900460ff1615151515815260200160018201805461134f9061498e565b80601f016020809104026020016040519081016040528092919081815260200182805461137b9061498e565b80156113c85780601f1061139d576101008083540402835291602001916113c8565b820191906000526020600020905b8154815290600101906020018083116113ab57829003601f168201915b505050505081526020016002820160009054906101000a900473ffffffffffffffffffffffffffffffffffffffff1673ffffffffffffffffffffffffffffffffffffffff1673ffffffffffffffffffffffffffffffffffffffff168152505091505092915050565b6000600560008361ffff1661ffff16815260200190815260200160002060009054906101000a900460ff169050919050565b600034116114a5576040517f08c379a000000000000000000000000000000000000000000000000000000000815260040161149c90614d6f565b60405180910390fd5b80600260169054906101000a900467ffffffffffffffff1667ffffffffffffffff166114d191906148e9565b341015611513576040517f08c379a000000000000000000000000000000000000000000000000000000000815260040161150a90614ddb565b60405180910390fd5b6000600260009054906101000a900473ffffffffffffffffffffffffffffffffffffffff1673ffffffffffffffffffffffffffffffffffffffff1682600260169054906101000a900467ffffffffffffffff1667ffffffffffffffff1661157a91906148e9565b60405161158690614e2c565b60006040518083038185875af1925050503d80600081146115c3576040519150601f19603f3d011682016040523d82523d6000602084013e6115c8565b606091505b505090508061160c576040517f08c379a000000000000000000000000000000000000000000000000000000000815260040161160390614e8d565b60405180910390fd5b600082600260169054906101000a900467ffffffffffffffff1667ffffffffffffffff1661163a91906148e9565b346116459190614ead565b905060008167ffffffffffffffff1611156116ac573373ffffffffffffffffffffffffffffffffffffffff166108fc8267ffffffffffffffff169081150290604051600060405180830381858888f193505050501580156116aa573d6000803e3d6000fd5b505b60008054906101000a900473ffffffffffffffffffffffffffffffffffffffff1673ffffffffffffffffffffffffffffffffffffffff166379c6506833856040518363ffffffff1660e01b8152600401611707929190614ef0565b600060405180830381600087803b15801561172157600080fd5b505af1158015611735573d6000803e3d6000fd5b50505050600260169054906101000a900467ffffffffffffffff1667ffffffffffffffff163373ffffffffffffffffffffffffffffffffffffffff167fef3994179b0230a18df9ee1700885c1c5ee5d13c646f1ea898572e5df8761d54856040516117a0919061408f565b60405180910390a3505050565b60008060009054906101000a900473ffffffffffffffffffffffffffffffffffffffff1673ffffffffffffffffffffffffffffffffffffffff166370a08231836040518263ffffffff1660e01b81526004016118099190614f19565b602060405180830381865afa158015611826573d6000803e3d6000fd5b505050506040513d601f19601f8201168201806040525081019061184a9190614cf6565b9050919050565b60008054906101000a900473ffffffffffffffffffffffffffffffffffffffff1681565b6000600460008361ffff1661ffff16815260200190815260200160002060010160009054906101000a900460ff169050919050565b6060600760008373ffffffffffffffffffffffffffffffffffffffff1673ffffffffffffffffffffffffffffffffffffffff168152602001908152602001600020805480602002602001604051908101604052809291908181526020016000905b8282101561199f5783829060005260206000209060020201604051806080016040529081600082015481526020016001820160009054906101000a900460ff1660ff1660ff1681526020016001820160019054906101000a900460ff161515151581526020016001820160029054906101000a900461ffff1661ffff1661ffff16815250508152602001906001019061190b565b505050509050919050565b816119b481613977565b6000600760003373ffffffffffffffffffffffffffffffffffffffff1673ffffffffffffffffffffffffffffffffffffffff1681526020019081526020016000208360ff1681548110611a0a57611a096149bf565b5b906000526020600020906002020160010160029054906101000a900461ffff1690506000600660008361ffff1661ffff16815260200190815260200160002060008681526020019081526020016000206040518060600160405290816000820160009054906101000a900460ff16151515158152602001600182018054611a909061498e565b80601f0160208091040260200160405190810160405280929190818152602001828054611abc9061498e565b8015611b095780601f10611ade57610100808354040283529160200191611b09565b820191906000526020600020905b815481529060010190602001808311611aec57829003601f168201915b505050505081526020016002820160009054906101000a900473ffffffffffffffffffffffffffffffffffffffff1673ffffffffffffffffffffffffffffffffffffffff1673ffffffffffffffffffffffffffffffffffffffff168152505090508060000151611bae576040517f08c379a0000000000000000000000000000000000000000000000000000000008152600401611ba590614aa6565b60405180910390fd5b3373ffffffffffffffffffffffffffffffffffffffff16816040015173ffffffffffffffffffffffffffffffffffffffff1614611c20576040517f08c379a0000000000000000000000000000000000000000000000000000000008152600401611c1790614b12565b60405180910390fd5b60011515600760003373ffffffffffffffffffffffffffffffffffffffff1673ffffffffffffffffffffffffffffffffffffffff1681526020019081526020016000208560ff1681548110611c7857611c776149bf565b5b906000526020600020906002020160010160019054906101000a900460ff16151503611cd9576040517f08c379a0000000000000000000000000000000000000000000000000000000008152600401611cd090614f80565b60405180910390fd5b6001600760003373ffffffffffffffffffffffffffffffffffffffff1673ffffffffffffffffffffffffffffffffffffffff1681526020019081526020016000208560ff1681548110611d2f57611d2e6149bf565b5b906000526020600020906002020160010160016101000a81548160ff021916908315150217905550423373ffffffffffffffffffffffffffffffffffffffff167fdddb6e14f7f2101397a6526aab95e964de7f1f44ed06aa47a1c9a0e6b992445660405160405180910390a35050505050565b81611dac81613977565b6000600760003373ffffffffffffffffffffffffffffffffffffffff1673ffffffffffffffffffffffffffffffffffffffff1681526020019081526020016000208360ff1681548110611e0257611e016149bf565b5b906000526020600020906002020160010160029054906101000a900461ffff1690506000600660008361ffff1661ffff16815260200190815260200160002060008681526020019081526020016000206040518060600160405290816000820160009054906101000a900460ff16151515158152602001600182018054611e889061498e565b80601f0160208091040260200160405190810160405280929190818152602001828054611eb49061498e565b8015611f015780601f10611ed657610100808354040283529160200191611f01565b820191906000526020600020905b815481529060010190602001808311611ee457829003601f168201915b505050505081526020016002820160009054906101000a900473ffffffffffffffffffffffffffffffffffffffff1673ffffffffffffffffffffffffffffffffffffffff1673ffffffffffffffffffffffffffffffffffffffff168152505090508060000151611fa6576040517f08c379a0000000000000000000000000000000000000000000000000000000008152600401611f9d90614aa6565b60405180910390fd5b3373ffffffffffffffffffffffffffffffffffffffff16816040015173ffffffffffffffffffffffffffffffffffffffff1614612018576040517f08c379a000000000000000000000000000000000000000000000000000000000815260040161200f90614b12565b60405180910390fd5b60076000826040015173ffffffffffffffffffffffffffffffffffffffff1673ffffffffffffffffffffffffffffffffffffffff1681526020019081526020016000208460ff16815481106120705761206f6149bf565b5b906000526020600020906002020160010160019054906101000a900460ff166120ce576040517f08c379a00000000000000000000000000000000000000000000000000000000081526004016120c590614b7e565b60405180910390fd5b60001515600560008461ffff1661ffff16815260200190815260200160002060009054906101000a900460ff1615151461213d576040517f08c379a000000000000000000000000000000000000000000000000000000000815260040161213490614fec565b60405180910390fd5b60011515600460008461ffff1661ffff16815260200190815260200160002060010160009054906101000a900460ff161515146121af576040517f08c379a00000000000000000000000000000000000000000000000000000000081526004016121a690614c8a565b60405180910390fd5b856040516020016121c09190614c23565b6040516020818303038152906040528051906020012060001c600460008461ffff1661ffff1681526020019081526020016000206000015414612238576040517f08c379a000000000000000000000000000000000000000000000000000000000815260040161222f90615058565b60405180910390fd5b6001600560008461ffff1661ffff16815260200190815260200160002060006101000a81548160ff02191690831515021790555042816040015173ffffffffffffffffffffffffffffffffffffffff167f3c3a029638e50549fcf21d2bc98c74b6f2cbc3a0539148a77068067a5fa835d560405160405180910390a3505050505050565b600260009054906101000a900473ffffffffffffffffffffffffffffffffffffffff1673ffffffffffffffffffffffffffffffffffffffff163373ffffffffffffffffffffffffffffffffffffffff161461234c576040517f08c379a0000000000000000000000000000000000000000000000000000000008152600401612343906150c4565b60405180910390fd5b60008167ffffffffffffffff1611612399576040517f08c379a000000000000000000000000000000000000000000000000000000000815260040161239090615130565b60405180910390fd5b6000600260169054906101000a900467ffffffffffffffff16905081600260166101000a81548167ffffffffffffffff021916908367ffffffffffffffff1602179055508167ffffffffffffffff168167ffffffffffffffff167f77faaf6939a2630a2ba13517d99b9033741224f833291e662af2a4374f75f66060405160405180910390a35050565b60035481565b848061ffff166000111580156124575750600260149054906101000a900461ffff1661ffff168161ffff1611155b612496576040517f08c379a000000000000000000000000000000000000000000000000000000000815260040161248d906147ff565b60405180910390fd5b84848080601f016020809104026020016040519081016040528093929190818152602001838380828437600081840152601f19601f82011690508083019250505050505050600081510361251f576040517f08c379a00000000000000000000000000000000000000000000000000000000081526004016125169061519c565b60405180910390fd5b8361252981613977565b8360008160ff1611612570576040517f08c379a000000000000000000000000000000000000000000000000000000000815260040161256790615208565b60405180910390fd5b60005b8560ff168110156127645760011515600660008c61ffff1661ffff168152602001908152602001600020600083620151806125ae91906148e9565b8a6125b9919061492b565b815260200190815260200160002060000160009054906101000a900460ff1615150361261a576040517f08c379a000000000000000000000000000000000000000000000000000000000815260040161261190615274565b60405180910390fd5b60405180606001604052806001151581526020018a8a8080601f016020809104026020016040519081016040528093929190818152602001838380828437600081840152601f19601f8201169050808301925050505050505081526020013373ffffffffffffffffffffffffffffffffffffffff16815250600660008c61ffff1661ffff168152602001908152602001600020600083620151806126be91906148e9565b8a6126c9919061492b565b815260200190815260200160002060008201518160000160006101000a81548160ff021916908315150217905550602082015181600101908161270c9190615436565b5060408201518160020160006101000a81548173ffffffffffffffffffffffffffffffffffffffff021916908373ffffffffffffffffffffffffffffffffffffffff1602179055509050508080600101915050612573565b5060008054906101000a900473ffffffffffffffffffffffffffffffffffffffff1673ffffffffffffffffffffffffffffffffffffffff1663d1df306c33876040518363ffffffff1660e01b81526004016127c0929190615539565b600060405180830381600087803b1580156127da57600080fd5b505af11580156127ee573d6000803e3d6000fd5b50505050600760003373ffffffffffffffffffffffffffffffffffffffff1673ffffffffffffffffffffffffffffffffffffffff16815260200190815260200160002060405180608001604052808881526020018760ff1681526020016000151581526020018b61ffff1681525090806001815401808255809150506001900390600052602060002090600202016000909190919091506000820151816000015560208201518160010160006101000a81548160ff021916908360ff16021790555060408201518160010160016101000a81548160ff02191690831515021790555060608201518160010160026101000a81548161ffff021916908361ffff16021790555050508460ff16863373ffffffffffffffffffffffffffffffffffffffff167fc5a2baf4d2037971b8ab82e24faec0484f144dab6377694d628ce3e3ef35e7b48c60405161294091906146da565b60405180910390a4505050505050505050565b600260009054906101000a900473ffffffffffffffffffffffffffffffffffffffff1681565b612981613ca9565b600760003373ffffffffffffffffffffffffffffffffffffffff1673ffffffffffffffffffffffffffffffffffffffff1681526020019081526020016000208260ff16815481106129d5576129d46149bf565b5b9060005260206000209060020201604051806080016040529081600082015481526020016001820160009054906101000a900460ff1660ff1660ff1681526020016001820160019054906101000a900460ff161515151581526020016001820160029054906101000a900461ffff1661ffff1661ffff16815250509050919050565b81612a6181613977565b6000600760003373ffffffffffffffffffffffffffffffffffffffff1673ffffffffffffffffffffffffffffffffffffffff1681526020019081526020016000208360ff1681548110612ab757612ab66149bf565b5b906000526020600020906002020160010160029054906101000a900461ffff1690506000600660008361ffff1661ffff16815260200190815260200160002060008681526020019081526020016000206040518060600160405290816000820160009054906101000a900460ff16151515158152602001600182018054612b3d9061498e565b80601f0160208091040260200160405190810160405280929190818152602001828054612b699061498e565b8015612bb65780601f10612b8b57610100808354040283529160200191612bb6565b820191906000526020600020905b815481529060010190602001808311612b9957829003601f168201915b505050505081526020016002820160009054906101000a900473ffffffffffffffffffffffffffffffffffffffff1673ffffffffffffffffffffffffffffffffffffffff1673ffffffffffffffffffffffffffffffffffffffff168152505090508060000151612c5b576040517f08c379a0000000000000000000000000000000000000000000000000000000008152600401612c5290614aa6565b60405180910390fd5b3373ffffffffffffffffffffffffffffffffffffffff16816040015173ffffffffffffffffffffffffffffffffffffffff1614612ccd576040517f08c379a0000000000000000000000000000000000000000000000000000000008152600401612cc490614b12565b60405180910390fd5b60011515600760003373ffffffffffffffffffffffffffffffffffffffff1673ffffffffffffffffffffffffffffffffffffffff1681526020019081526020016000208560ff1681548110612d2557612d246149bf565b5b906000526020600020906002020160010160019054906101000a900460ff16151514612d86576040517f08c379a0000000000000000000000000000000000000000000000000000000008152600401612d7d90614b7e565b60405180910390fd5b6000600460008461ffff1661ffff16815260200190815260200160002060010160006101000a81548160ff0219169083151502179055506000600760003373ffffffffffffffffffffffffffffffffffffffff1673ffffffffffffffffffffffffffffffffffffffff1681526020019081526020016000208560ff1681548110612e1357612e126149bf565b5b906000526020600020906002020160010160016101000a81548160ff021916908315150217905550612e44846139c7565b423373ffffffffffffffffffffffffffffffffffffffff167f5f56f72b1cd7de6f6d20a960c3287ccb7d1acbc0e44f96885c6ab556eae102ea60405160405180910390a35050505050565b600260149054906101000a900461ffff1681565b60076020528160005260406000208181548110612ebf57600080fd5b9060005260206000209060020201600091509150508060000154908060010160009054906101000a900460ff16908060010160019054906101000a900460ff16908060010160029054906101000a900461ffff16905084565b81612f2281613977565b6000600760003373ffffffffffffffffffffffffffffffffffffffff1673ffffffffffffffffffffffffffffffffffffffff1681526020019081526020016000208360ff1681548110612f7857612f776149bf565b5b906000526020600020906002020160010160029054906101000a900461ffff1690506000600660008361ffff1661ffff16815260200190815260200160002060008681526020019081526020016000206040518060600160405290816000820160009054906101000a900460ff16151515158152602001600182018054612ffe9061498e565b80601f016020809104026020016040519081016040528092919081815260200182805461302a9061498e565b80156130775780601f1061304c57610100808354040283529160200191613077565b820191906000526020600020905b81548152906001019060200180831161305a57829003601f168201915b505050505081526020016002820160009054906101000a900473ffffffffffffffffffffffffffffffffffffffff1673ffffffffffffffffffffffffffffffffffffffff1673ffffffffffffffffffffffffffffffffffffffff16815250509050806000015161311c576040517f08c379a000000000000000000000000000000000000000000000000000000000815260040161311390614aa6565b60405180910390fd5b3373ffffffffffffffffffffffffffffffffffffffff16816040015173ffffffffffffffffffffffffffffffffffffffff161461318e576040517f08c379a000000000000000000000000000000000000000000000000000000000815260040161318590614b12565b60405180910390fd5b60076000826040015173ffffffffffffffffffffffffffffffffffffffff1673ffffffffffffffffffffffffffffffffffffffff1681526020019081526020016000208460ff16815481106131e6576131e56149bf565b5b906000526020600020906002020160010160019054906101000a900460ff16613244576040517f08c379a000000000000000000000000000000000000000000000000000000000815260040161323b90614b7e565b60405180910390fd5b60011515600560008461ffff1661ffff16815260200190815260200160002060009054906101000a900460ff161515146132b3576040517f08c379a00000000000000000000000000000000000000000000000000000000081526004016132aa906155ae565b60405180910390fd5b60011515600460008461ffff1661ffff16815260200190815260200160002060010160009054906101000a900460ff16151514613325576040517f08c379a000000000000000000000000000000000000000000000000000000000815260040161331c90614c8a565b60405180910390fd5b6000600560008461ffff1661ffff16815260200190815260200160002060006101000a81548160ff02191690831515021790555042816040015173ffffffffffffffffffffffffffffffffffffffff167fe85a5ce681f084327d67d7953b5e80a0b2a6d1150ca58b700b61259d7276ae3d60405160405180910390a35050505050565b60011515600760003373ffffffffffffffffffffffffffffffffffffffff1673ffffffffffffffffffffffffffffffffffffffff1681526020019081526020016000208260ff1681548110613400576133ff6149bf565b5b906000526020600020906002020160010160019054906101000a900460ff16151503613461576040517f08c379a00000000000000000000000000000000000000000000000000000000081526004016134589061561a565b60405180910390fd5b6000600760003373ffffffffffffffffffffffffffffffffffffffff1673ffffffffffffffffffffffffffffffffffffffff1681526020019081526020016000208260ff16815481106134b7576134b66149bf565b5b90600052602060002090600202016000015490506000600760003373ffffffffffffffffffffffffffffffffffffffff1673ffffffffffffffffffffffffffffffffffffffff1681526020019081526020016000208360ff1681548110613521576135206149bf565b5b906000526020600020906002020160010160009054906101000a900460ff1690506000600760003373ffffffffffffffffffffffffffffffffffffffff1673ffffffffffffffffffffffffffffffffffffffff1681526020019081526020016000208460ff1681548110613598576135976149bf565b5b906000526020600020906002020160010160029054906101000a900461ffff1690506000831180156135cd575060008260ff16115b61360c576040517f08c379a000000000000000000000000000000000000000000000000000000000815260040161360390615686565b60405180910390fd5b61361583613977565b428311613657576040517f08c379a000000000000000000000000000000000000000000000000000000000815260040161364e906156f2565b60405180910390fd5b60005b8260ff16811015613819576000816201518061367691906148e9565b85613681919061492b565b905060011515600660008561ffff1661ffff168152602001908152602001600020600083815260200190815260200160002060000160009054906101000a900460ff16151514613706576040517f08c379a00000000000000000000000000000000000000000000000000000000081526004016136fd9061575e565b60405180910390fd5b3373ffffffffffffffffffffffffffffffffffffffff16600660008561ffff1661ffff168152602001908152602001600020600083815260200190815260200160002060020160009054906101000a900473ffffffffffffffffffffffffffffffffffffffff1673ffffffffffffffffffffffffffffffffffffffff16146137c3576040517f08c379a00000000000000000000000000000000000000000000000000000000081526004016137ba906157ca565b60405180910390fd5b6000600660008561ffff1661ffff168152602001908152602001600020600083815260200190815260200160002060000160006101000a81548160ff02191690831515021790555081806001019250505061365a565b50613823846139c7565b60008054906101000a900473ffffffffffffffffffffffffffffffffffffffff1673ffffffffffffffffffffffffffffffffffffffff166379c6506833846040518363ffffffff1660e01b815260040161387e929190615539565b600060405180830381600087803b15801561389857600080fd5b505af11580156138ac573d6000803e3d6000fd5b505050508160ff16833373ffffffffffffffffffffffffffffffffffffffff167fcd8c1162b06de5390b15d1d2f1ff8fadf69f283ec92be6880c3bb3c18212f1ba876040516138fb91906157ea565b60405180910390a450505050565b600260169054906101000a900467ffffffffffffffff1681565b600062015180826139349190615834565b14613974576040517f08c379a000000000000000000000000000000000000000000000000000000000815260040161396b906158b1565b60405180910390fd5b50565b60035481116139bb576040517f08c379a00000000000000000000000000000000000000000000000000000000081526004016139b29061591d565b60405180910390fd5b6139c481613923565b50565b600760003373ffffffffffffffffffffffffffffffffffffffff1673ffffffffffffffffffffffffffffffffffffffff168152602001908152602001600020805490508160ff1610613a1857600080fd5b600760003373ffffffffffffffffffffffffffffffffffffffff1673ffffffffffffffffffffffffffffffffffffffff1681526020019081526020016000206001600760003373ffffffffffffffffffffffffffffffffffffffff1673ffffffffffffffffffffffffffffffffffffffff16815260200190815260200160002080549050613aa69190614ead565b81548110613ab757613ab66149bf565b5b9060005260206000209060020201600760003373ffffffffffffffffffffffffffffffffffffffff1673ffffffffffffffffffffffffffffffffffffffff1681526020019081526020016000208260ff1681548110613b1957613b186149bf565b5b9060005260206000209060020201600082015481600001556001820160009054906101000a900460ff168160010160006101000a81548160ff021916908360ff1602179055506001820160019054906101000a900460ff168160010160016101000a81548160ff0219169083151502179055506001820160029054906101000a900461ffff168160010160026101000a81548161ffff021916908361ffff160217905550905050600760003373ffffffffffffffffffffffffffffffffffffffff1673ffffffffffffffffffffffffffffffffffffffff168152602001908152602001600020805480613c0f57613c0e61593d565b5b60019003818190600052602060002090600202016000808201600090556001820160006101000a81549060ff02191690556001820160016101000a81549060ff02191690556001820160026101000a81549061ffff02191690555050905550565b604051806060016040528060001515815260200160608152602001600073ffffffffffffffffffffffffffffffffffffffff1681525090565b604051806080016040528060008152602001600060ff168152602001600015158152602001600061ffff1681525090565b600080fd5b600080fd5b600061ffff82169050919050565b613cfb81613ce4565b8114613d0657600080fd5b50565b600081359050613d1881613cf2565b92915050565b6000819050919050565b613d3181613d1e565b8114613d3c57600080fd5b50565b600081359050613d4e81613d28565b92915050565b600060ff82169050919050565b613d6a81613d54565b8114613d7557600080fd5b50565b600081359050613d8781613d61565b92915050565b600080600060608486031215613da657613da5613cda565b5b6000613db486828701613d09565b9350506020613dc586828701613d3f565b9250506040613dd686828701613d78565b9150509250925092565b600081519050919050565b600082825260208201905092915050565b6000819050602082019050919050565b613e1581613d1e565b82525050565b6000613e278383613e0c565b60208301905092915050565b6000602082019050919050565b6000613e4b82613de0565b613e558185613deb565b9350613e6083613dfc565b8060005b83811015613e91578151613e788882613e1b565b9750613e8383613e33565b925050600181019050613e64565b5085935050505092915050565b60006020820190508181036000830152613eb88184613e40565b905092915050565b600081519050919050565b600082825260208201905092915050565b60005b83811015613efa578082015181840152602081019050613edf565b60008484015250505050565b6000601f19601f8301169050919050565b6000613f2282613ec0565b613f2c8185613ecb565b9350613f3c818560208601613edc565b613f4581613f06565b840191505092915050565b60006020820190508181036000830152613f6a8184613f17565b905092915050565b600080fd5b600081905082602060060282011115613f9357613f92613f72565b5b92915050565b60008060006101008486031215613fb357613fb2613cda565b5b6000613fc186828701613f77565b93505060c0613fd286828701613d3f565b92505060e0613fe386828701613d78565b9150509250925092565b6000806040838503121561400457614003613cda565b5b600061401285828601613d3f565b925050602061402385828601613d78565b9150509250929050565b60008060006060848603121561404657614045613cda565b5b600061405486828701613d09565b935050602061406586828701613d78565b925050604061407686828701613d78565b9150509250925092565b61408981613d1e565b82525050565b60006020820190506140a46000830184614080565b92915050565b600080604083850312156140c1576140c0613cda565b5b60006140cf85828601613d09565b92505060206140e085828601613d3f565b9150509250929050565b60008115159050919050565b6140ff816140ea565b82525050565b600082825260208201905092915050565b600061412182613ec0565b61412b8185614105565b935061413b818560208601613edc565b61414481613f06565b840191505092915050565b600073ffffffffffffffffffffffffffffffffffffffff82169050919050565b600061417a8261414f565b9050919050565b61418a8161416f565b82525050565b60006060830160008301516141a860008601826140f6565b50602083015184820360208601526141c08282614116565b91505060408301516141d56040860182614181565b508091505092915050565b600060208201905081810360008301526141fa8184614190565b905092915050565b60006020828403121561421857614217613cda565b5b600061422684828501613d09565b91505092915050565b614238816140ea565b82525050565b6000602082019050614253600083018461422f565b92915050565b60006020828403121561426f5761426e613cda565b5b600061427d84828501613d3f565b91505092915050565b61428f8161416f565b811461429a57600080fd5b50565b6000813590506142ac81614286565b92915050565b6000602082840312156142c8576142c7613cda565b5b60006142d68482850161429d565b91505092915050565b6000819050919050565b60006143046142ff6142fa8461414f565b6142df565b61414f565b9050919050565b6000614316826142e9565b9050919050565b60006143288261430b565b9050919050565b6143388161431d565b82525050565b6000602082019050614353600083018461432f565b92915050565b600081519050919050565b600082825260208201905092915050565b6000819050602082019050919050565b61438e81613d54565b82525050565b61439d81613ce4565b82525050565b6080820160008201516143b96000850182613e0c565b5060208201516143cc6020850182614385565b5060408201516143df60408501826140f6565b5060608201516143f26060850182614394565b50505050565b600061440483836143a3565b60808301905092915050565b6000602082019050919050565b600061442882614359565b6144328185614364565b935061443d83614375565b8060005b8381101561446e57815161445588826143f8565b975061446083614410565b925050600181019050614441565b5085935050505092915050565b60006020820190508181036000830152614495818461441d565b905092915050565b600067ffffffffffffffff82169050919050565b6144ba8161449d565b81146144c557600080fd5b50565b6000813590506144d7816144b1565b92915050565b6000602082840312156144f3576144f2613cda565b5b6000614501848285016144c8565b91505092915050565b600080fd5b600080fd5b60008083601f84011261452a5761452961450a565b5b8235905067ffffffffffffffff8111156145475761454661450f565b5b60208301915083600182028301111561456357614562613f72565b5b9250929050565b60008060008060006080868803121561458657614585613cda565b5b600061459488828901613d09565b955050602086013567ffffffffffffffff8111156145b5576145b4613cdf565b5b6145c188828901614514565b945094505060406145d488828901613d3f565b92505060606145e588828901613d78565b9150509295509295909350565b60006145fd8261414f565b9050919050565b61460d816145f2565b82525050565b60006020820190506146286000830184614604565b92915050565b60006020828403121561464457614643613cda565b5b600061465284828501613d78565b91505092915050565b6080820160008201516146716000850182613e0c565b5060208201516146846020850182614385565b50604082015161469760408501826140f6565b5060608201516146aa6060850182614394565b50505050565b60006080820190506146c5600083018461465b565b92915050565b6146d481613ce4565b82525050565b60006020820190506146ef60008301846146cb565b92915050565b6000806040838503121561470c5761470b613cda565b5b600061471a8582860161429d565b925050602061472b85828601613d3f565b9150509250929050565b61473e81613d54565b82525050565b60006080820190506147596000830187614080565b6147666020830186614735565b614773604083018561422f565b61478060608301846146cb565b95945050505050565b6147928161449d565b82525050565b60006020820190506147ad6000830184614789565b92915050565b7f496e76616c696420726f6f6d2049640000000000000000000000000000000000600082015250565b60006147e9600f83613ecb565b91506147f4826147b3565b602082019050919050565b60006020820190508181036000830152614818816147dc565b9050919050565b7f312d333635000000000000000000000000000000000000000000000000000000600082015250565b6000614855600583613ecb565b91506148608261481f565b602082019050919050565b6000602082019050818103600083015261488481614848565b9050919050565b7f4e487b7100000000000000000000000000000000000000000000000000000000600052604160045260246000fd5b7f4e487b7100000000000000000000000000000000000000000000000000000000600052601160045260246000fd5b60006148f482613d1e565b91506148ff83613d1e565b925082820261490d81613d1e565b91508282048414831517614924576149236148ba565b5b5092915050565b600061493682613d1e565b915061494183613d1e565b9250828201905080821115614959576149586148ba565b5b92915050565b7f4e487b7100000000000000000000000000000000000000000000000000000000600052602260045260246000fd5b600060028204905060018216806149a657607f821691505b6020821081036149b9576149b861495f565b5b50919050565b7f4e487b7100000000000000000000000000000000000000000000000000000000600052603260045260246000fd5b7f596f75206861766520616c726561647920736574207061737300000000000000600082015250565b6000614a24601983613ecb565b9150614a2f826149ee565b602082019050919050565b60006020820190508181036000830152614a5381614a17565b9050919050565b7f4e6f206170706f20657869737473000000000000000000000000000000000000600082015250565b6000614a90600e83613ecb565b9150614a9b82614a5a565b602082019050919050565b60006020820190508181036000830152614abf81614a83565b9050919050565b7f596f752068617665206e6f206170706f00000000000000000000000000000000600082015250565b6000614afc601083613ecb565b9150614b0782614ac6565b602082019050919050565b60006020820190508181036000830152614b2b81614aef565b9050919050565b7f596f752068617665206e6f7420636865636b656420696e000000000000000000600082015250565b6000614b68601783613ecb565b9150614b7382614b32565b602082019050919050565b60006020820190508181036000830152614b9781614b5b565b9050919050565b7f70617373776f7264206d75737420626520366e756d0000000000000000000000600082015250565b6000614bd4601583613ecb565b9150614bdf82614b9e565b602082019050919050565b60006020820190508181036000830152614c0381614bc7565b9050919050565b82818337505050565b614c1f60c08383614c0a565b5050565b6000614c2f8284614c13565b60c08201915081905092915050565b7f506c656173652073657420796f75722070617373776f72640000000000000000600082015250565b6000614c74601883613ecb565b9150614c7f82614c3e565b602082019050919050565b60006020820190508181036000830152614ca381614c67565b9050919050565b6000606082019050614cbf60008301866146cb565b614ccc6020830185614735565b614cd96040830184614735565b949350505050565b600081519050614cf081613d28565b92915050565b600060208284031215614d0c57614d0b613cda565b5b6000614d1a84828501614ce1565b91505092915050565b7f6e6f206574686572000000000000000000000000000000000000000000000000600082015250565b6000614d59600883613ecb565b9150614d6482614d23565b602082019050919050565b60006020820190508181036000830152614d8881614d4c565b9050919050565b7f6e6f7420656e6f75676820657468657200000000000000000000000000000000600082015250565b6000614dc5601083613ecb565b9150614dd082614d8f565b602082019050919050565b60006020820190508181036000830152614df481614db8565b9050919050565b600081905092915050565b50565b6000614e16600083614dfb565b9150614e2182614e06565b600082019050919050565b6000614e3782614e09565b9150819050919050565b7f4661696c656420746f2073656e64000000000000000000000000000000000000600082015250565b6000614e77600e83613ecb565b9150614e8282614e41565b602082019050919050565b60006020820190508181036000830152614ea681614e6a565b9050919050565b6000614eb882613d1e565b9150614ec383613d1e565b9250828203905081811115614edb57614eda6148ba565b5b92915050565b614eea8161416f565b82525050565b6000604082019050614f056000830185614ee1565b614f126020830184614080565b9392505050565b6000602082019050614f2e6000830184614ee1565b92915050565b7f616c726561647920636865636b656420696e0000000000000000000000000000600082015250565b6000614f6a601283613ecb565b9150614f7582614f34565b602082019050919050565b60006020820190508181036000830152614f9981614f5d565b9050919050565b7f616c7265616479206f70656e6564000000000000000000000000000000000000600082015250565b6000614fd6600e83613ecb565b9150614fe182614fa0565b602082019050919050565b6000602082019050818103600083015261500581614fc9565b9050919050565b7f696e636f72726563742070617373776f72640000000000000000000000000000600082015250565b6000615042601283613ecb565b915061504d8261500c565b602082019050919050565b6000602082019050818103600083015261507181615035565b9050919050565b7f6f6e6c79206f776e657200000000000000000000000000000000000000000000600082015250565b60006150ae600a83613ecb565b91506150b982615078565b602082019050919050565b600060208201905081810360008301526150dd816150a1565b9050919050565b7f61626f7665207a65726f00000000000000000000000000000000000000000000600082015250565b600061511a600a83613ecb565b9150615125826150e4565b602082019050919050565b600060208201905081810360008301526151498161510d565b9050919050565b7f626c616e6b000000000000000000000000000000000000000000000000000000600082015250565b6000615186600583613ecb565b915061519182615150565b602082019050919050565b600060208201905081810360008301526151b581615179565b9050919050565b7f61626f7665203000000000000000000000000000000000000000000000000000600082015250565b60006151f2600783613ecb565b91506151fd826151bc565b602082019050919050565b60006020820190508181036000830152615221816151e5565b9050919050565b7f4170706f20616c72656164792065786973747300000000000000000000000000600082015250565b600061525e601383613ecb565b915061526982615228565b602082019050919050565b6000602082019050818103600083015261528d81615251565b9050919050565b60008190508160005260206000209050919050565b60006020601f8301049050919050565b600082821b905092915050565b6000600883026152f67fffffffffffffffffffffffffffffffffffffffffffffffffffffffffffffffff826152b9565b61530086836152b9565b95508019841693508086168417925050509392505050565b600061533361532e61532984613d1e565b6142df565b613d1e565b9050919050565b6000819050919050565b61534d83615318565b6153616153598261533a565b8484546152c6565b825550505050565b600090565b615376615369565b615381818484615344565b505050565b5b818110156153a55761539a60008261536e565b600181019050615387565b5050565b601f8211156153ea576153bb81615294565b6153c4846152a9565b810160208510156153d3578190505b6153e76153df856152a9565b830182615386565b50505b505050565b600082821c905092915050565b600061540d600019846008026153ef565b1980831691505092915050565b600061542683836153fc565b9150826002028217905092915050565b61543f82613ec0565b67ffffffffffffffff8111156154585761545761488b565b5b615462825461498e565b61546d8282856153a9565b600060209050601f8311600181146154a0576000841561548e578287015190505b615498858261541a565b865550615500565b601f1984166154ae86615294565b60005b828110156154d6578489015182556001820191506020850194506020810190506154b1565b868310156154f357848901516154ef601f8916826153fc565b8355505b6001600288020188555050505b505050505050565b600061552361551e61551984613d54565b6142df565b613d1e565b9050919050565b61553381615508565b82525050565b600060408201905061554e6000830185614ee1565b61555b602083018461552a565b9392505050565b7f616c726561647920636c6f736564000000000000000000000000000000000000600082015250565b6000615598600e83613ecb565b91506155a382615562565b602082019050919050565b600060208201905081810360008301526155c78161558b565b9050919050565b7f596f75206861766520616c726561647920636865636b656420696e0000000000600082015250565b6000615604601b83613ecb565b915061560f826155ce565b602082019050919050565b60006020820190508181036000830152615633816155f7565b9050919050565b7f6e6f20626f6f6b696e6720666f756e6400000000000000000000000000000000600082015250565b6000615670601083613ecb565b915061567b8261563a565b602082019050919050565b6000602082019050818103600083015261569f81615663565b9050919050565b7f63616e6e6f742063616e63656c206576656e747320696e207468652070617374600082015250565b60006156dc602083613ecb565b91506156e7826156a6565b602082019050919050565b6000602082019050818103600083015261570b816156cf565b9050919050565b7f6e6f74206578697374206170706f000000000000000000000000000000000000600082015250565b6000615748600e83613ecb565b915061575382615712565b602082019050919050565b600060208201905081810360008301526157778161573b565b9050919050565b7f596f7520686176656e2774206170706f00000000000000000000000000000000600082015250565b60006157b4601083613ecb565b91506157bf8261577e565b602082019050919050565b600060208201905081810360008301526157e3816157a7565b9050919050565b60006020820190506157ff6000830184614735565b92915050565b7f4e487b7100000000000000000000000000000000000000000000000000000000600052601260045260246000fd5b600061583f82613d1e565b915061584a83613d1e565b92508261585a57615859615805565b5b828206905092915050565b7f6d6f642038363430300000000000000000000000000000000000000000000000600082015250565b600061589b600983613ecb565b91506158a682615865565b602082019050919050565b600060208201905081810360008301526158ca8161588e565b9050919050565b7f6265666f7265206465706c6f7900000000000000000000000000000000000000600082015250565b6000615907600d83613ecb565b9150615912826158d1565b602082019050919050565b60006020820190508181036000830152615936816158fa565b9050919050565b7f4e487b7100000000000000000000000000000000000000000000000000000000600052603160045260246000fdfea264697066735822122000ca7256b028cf3d4e8bf2898f88cb43c34ff658f4d3bb41fa89035f69a26eb764736f6c634300081300336080604052604051620016ae380380620016ae83398181016040528101906200002991906200016d565b6040518060400160405280600a81526020017f486f74656c546f6b656e000000000000000000000000000000000000000000008152506040518060400160405280600381526020017f48546f00000000000000000000000000000000000000000000000000000000008152508160039081620000a6919062000419565b508060049081620000b8919062000419565b50505080600560006101000a81548173ffffffffffffffffffffffffffffffffffffffff021916908373ffffffffffffffffffffffffffffffffffffffff1602179055505062000500565b600080fd5b600073ffffffffffffffffffffffffffffffffffffffff82169050919050565b6000620001358262000108565b9050919050565b620001478162000128565b81146200015357600080fd5b50565b60008151905062000167816200013c565b92915050565b60006020828403121562000186576200018562000103565b5b6000620001968482850162000156565b91505092915050565b600081519050919050565b7f4e487b7100000000000000000000000000000000000000000000000000000000600052604160045260246000fd5b7f4e487b7100000000000000000000000000000000000000000000000000000000600052602260045260246000fd5b600060028204905060018216806200022157607f821691505b602082108103620002375762000236620001d9565b5b50919050565b60008190508160005260206000209050919050565b60006020601f8301049050919050565b600082821b905092915050565b600060088302620002a17fffffffffffffffffffffffffffffffffffffffffffffffffffffffffffffffff8262000262565b620002ad868362000262565b95508019841693508086168417925050509392505050565b6000819050919050565b6000819050919050565b6000620002fa620002f4620002ee84620002c5565b620002cf565b620002c5565b9050919050565b6000819050919050565b6200031683620002d9565b6200032e620003258262000301565b8484546200026f565b825550505050565b600090565b6200034562000336565b620003528184846200030b565b505050565b5b818110156200037a576200036e6000826200033b565b60018101905062000358565b5050565b601f821115620003c95762000393816200023d565b6200039e8462000252565b81016020851015620003ae578190505b620003c6620003bd8562000252565b83018262000357565b50505b505050565b600082821c905092915050565b6000620003ee60001984600802620003ce565b1980831691505092915050565b6000620004098383620003db565b9150826002028217905092915050565b62000424826200019f565b67ffffffffffffffff81111562000440576200043f620001aa565b5b6200044c825462000208565b620004598282856200037e565b600060209050601f8311600181146200049157600084156200047c578287015190505b620004888582620003fb565b865550620004f8565b601f198416620004a1866200023d565b60005b82811015620004cb57848901518255600182019150602085019450602081019050620004a4565b86831015620004eb5784890151620004e7601f891682620003db565b8355505b6001600288020188555050505b505050505050565b61119e80620005106000396000f3fe608060405234801561001057600080fd5b50600436106100b45760003560e01c806379c650681161007157806379c65068146101a35780638da5cb5b146101bf57806395d89b41146101dd578063a9059cbb146101fb578063d1df306c1461022b578063dd62ed3e14610247576100b4565b806306fdde03146100b9578063095ea7b3146100d757806318160ddd1461010757806323b872dd14610125578063313ce5671461015557806370a0823114610173575b600080fd5b6100c1610277565b6040516100ce9190610d86565b60405180910390f35b6100f160048036038101906100ec9190610e41565b610309565b6040516100fe9190610e9c565b60405180910390f35b61010f61032c565b60405161011c9190610ec6565b60405180910390f35b61013f600480360381019061013a9190610ee1565b610336565b60405161014c9190610e9c565b60405180910390f35b61015d610365565b60405161016a9190610f50565b60405180910390f35b61018d60048036038101906101889190610f6b565b61036e565b60405161019a9190610ec6565b60405180910390f35b6101bd60048036038101906101b89190610e41565b6103b6565b005b6101c7610454565b6040516101d49190610fa7565b60405180910390f35b6101e561047a565b6040516101f29190610d86565b60405180910390f35b61021560048036038101906102109190610e41565b61050c565b6040516102229190610e9c565b60405180910390f35b61024560048036038101906102409190610e41565b61052f565b005b610261600480360381019061025c9190610fc2565b6105cd565b60405161026e9190610ec6565b60405180910390f35b60606003805461028690611031565b80601f01602080910402602001604051908101604052809291908181526020018280546102b290611031565b80156102ff5780601f106102d4576101008083540402835291602001916102ff565b820191906000526020600020905b8154815290600101906020018083116102e257829003601f168201915b5050505050905090565b600080610314610654565b905061032181858561065c565b600191505092915050565b6000600254905090565b600080610341610654565b905061034e85828561066e565b610359858585610702565b60019150509392505050565b60006012905090565b60008060008373ffffffffffffffffffffffffffffffffffffffff1673ffffffffffffffffffffffffffffffffffffffff168152602001908152602001600020549050919050565b600560009054906101000a900473ffffffffffffffffffffffffffffffffffffffff1673ffffffffffffffffffffffffffffffffffffffff163373ffffffffffffffffffffffffffffffffffffffff1614610446576040517f08c379a000000000000000000000000000000000000000000000000000000000815260040161043d906110ae565b60405180910390fd5b61045082826107f6565b5050565b600560009054906101000a900473ffffffffffffffffffffffffffffffffffffffff1681565b60606004805461048990611031565b80601f01602080910402602001604051908101604052809291908181526020018280546104b590611031565b80156105025780601f106104d757610100808354040283529160200191610502565b820191906000526020600020905b8154815290600101906020018083116104e557829003601f168201915b5050505050905090565b600080610517610654565b9050610524818585610702565b600191505092915050565b600560009054906101000a900473ffffffffffffffffffffffffffffffffffffffff1673ffffffffffffffffffffffffffffffffffffffff163373ffffffffffffffffffffffffffffffffffffffff16146105bf576040517f08c379a00000000000000000000000000000000000000000000000000000000081526004016105b6906110ae565b60405180910390fd5b6105c98282610878565b5050565b6000600160008473ffffffffffffffffffffffffffffffffffffffff1673ffffffffffffffffffffffffffffffffffffffff16815260200190815260200160002060008373ffffffffffffffffffffffffffffffffffffffff1673ffffffffffffffffffffffffffffffffffffffff16815260200190815260200160002054905092915050565b600033905090565b61066983838360016108fa565b505050565b600061067a84846105cd565b90507fffffffffffffffffffffffffffffffffffffffffffffffffffffffffffffffff81146106fc57818110156106ec578281836040517ffb8f41b20000000000000000000000000000000000000000000000000000000081526004016106e3939291906110ce565b60405180910390fd5b6106fb848484840360006108fa565b5b50505050565b600073ffffffffffffffffffffffffffffffffffffffff168373ffffffffffffffffffffffffffffffffffffffff16036107745760006040517f96c6fd1e00000000000000000000000000000000000000000000000000000000815260040161076b9190610fa7565b60405180910390fd5b600073ffffffffffffffffffffffffffffffffffffffff168273ffffffffffffffffffffffffffffffffffffffff16036107e65760006040517fec442f050000000000000000000000000000000000000000000000000000000081526004016107dd9190610fa7565b60405180910390fd5b6107f1838383610ad1565b505050565b600073ffffffffffffffffffffffffffffffffffffffff168273ffffffffffffffffffffffffffffffffffffffff16036108685760006040517fec442f0500000000000000000000000000000000000000000000000000000000815260040161085f9190610fa7565b60405180910390fd5b61087460008383610ad1565b5050565b600073ffffffffffffffffffffffffffffffffffffffff168273ffffffffffffffffffffffffffffffffffffffff16036108ea5760006040517f96c6fd1e0000000000000000000000000000000000000000000000000000000081526004016108e19190610fa7565b60405180910390fd5b6108f682600083610ad1565b5050565b600073ffffffffffffffffffffffffffffffffffffffff168473ffffffffffffffffffffffffffffffffffffffff160361096c5760006040517fe602df050000000000000000000000000000000000000000000000000000000081526004016109639190610fa7565b60405180910390fd5b600073ffffffffffffffffffffffffffffffffffffffff168373ffffffffffffffffffffffffffffffffffffffff16036109de5760006040517f94280d620000000000000000000000000000000000000000000000000000000081526004016109d59190610fa7565b60405180910390fd5b81600160008673ffffffffffffffffffffffffffffffffffffffff1673ffffffffffffffffffffffffffffffffffffffff16815260200190815260200160002060008573ffffffffffffffffffffffffffffffffffffffff1673ffffffffffffffffffffffffffffffffffffffff168152602001908152602001600020819055508015610acb578273ffffffffffffffffffffffffffffffffffffffff168473ffffffffffffffffffffffffffffffffffffffff167f8c5be1e5ebec7d5bd14f71427d1e84f3dd0314c0f7b2291e5b200ac8c7c3b92584604051610ac29190610ec6565b60405180910390a35b50505050565b600073ffffffffffffffffffffffffffffffffffffffff168373ffffffffffffffffffffffffffffffffffffffff1603610b23578060026000828254610b179190611134565b92505081905550610bf6565b60008060008573ffffffffffffffffffffffffffffffffffffffff1673ffffffffffffffffffffffffffffffffffffffff16815260200190815260200160002054905081811015610baf578381836040517fe450d38c000000000000000000000000000000000000000000000000000000008152600401610ba6939291906110ce565b60405180910390fd5b8181036000808673ffffffffffffffffffffffffffffffffffffffff1673ffffffffffffffffffffffffffffffffffffffff16815260200190815260200160002081905550505b600073ffffffffffffffffffffffffffffffffffffffff168273ffffffffffffffffffffffffffffffffffffffff1603610c3f5780600260008282540392505081905550610c8c565b806000808473ffffffffffffffffffffffffffffffffffffffff1673ffffffffffffffffffffffffffffffffffffffff168152602001908152602001600020600082825401925050819055505b8173ffffffffffffffffffffffffffffffffffffffff168373ffffffffffffffffffffffffffffffffffffffff167fddf252ad1be2c89b69c2b068fc378daa952ba7f163c4a11628f55a4df523b3ef83604051610ce99190610ec6565b60405180910390a3505050565b600081519050919050565b600082825260208201905092915050565b60005b83811015610d30578082015181840152602081019050610d15565b60008484015250505050565b6000601f19601f8301169050919050565b6000610d5882610cf6565b610d628185610d01565b9350610d72818560208601610d12565b610d7b81610d3c565b840191505092915050565b60006020820190508181036000830152610da08184610d4d565b905092915050565b600080fd5b600073ffffffffffffffffffffffffffffffffffffffff82169050919050565b6000610dd882610dad565b9050919050565b610de881610dcd565b8114610df357600080fd5b50565b600081359050610e0581610ddf565b92915050565b6000819050919050565b610e1e81610e0b565b8114610e2957600080fd5b50565b600081359050610e3b81610e15565b92915050565b60008060408385031215610e5857610e57610da8565b5b6000610e6685828601610df6565b9250506020610e7785828601610e2c565b9150509250929050565b60008115159050919050565b610e9681610e81565b82525050565b6000602082019050610eb16000830184610e8d565b92915050565b610ec081610e0b565b82525050565b6000602082019050610edb6000830184610eb7565b92915050565b600080600060608486031215610efa57610ef9610da8565b5b6000610f0886828701610df6565b9350506020610f1986828701610df6565b9250506040610f2a86828701610e2c565b9150509250925092565b600060ff82169050919050565b610f4a81610f34565b82525050565b6000602082019050610f656000830184610f41565b92915050565b600060208284031215610f8157610f80610da8565b5b6000610f8f84828501610df6565b91505092915050565b610fa181610dcd565b82525050565b6000602082019050610fbc6000830184610f98565b92915050565b60008060408385031215610fd957610fd8610da8565b5b6000610fe785828601610df6565b9250506020610ff885828601610df6565b9150509250929050565b7f4e487b7100000000000000000000000000000000000000000000000000000000600052602260045260246000fd5b6000600282049050600182168061104957607f821691505b60208210810361105c5761105b611002565b5b50919050565b7f6f776e657220726573747269637465642066756e74696f6e616c697479000000600082015250565b6000611098601d83610d01565b91506110a382611062565b602082019050919050565b600060208201905081810360008301526110c78161108b565b9050919050565b60006060820190506110e36000830186610f98565b6110f06020830185610eb7565b6110fd6040830184610eb7565b949350505050565b7f4e487b7100000000000000000000000000000000000000000000000000000000600052601160045260246000fd5b600061113f82610e0b565b915061114a83610e0b565b925082820190508082111561116257611161611105565b5b9291505056fea26469706673582212208f2e6f5d0dbced846901909d3cfb985dfc2c326672543bffe812f1d4043f970d64736f6c63430008130033608060405234801561001057600080fd5b506108c6806100206000396000f3fe608060405234801561001057600080fd5b50600436106100415760003560e01c80638c8d98a014610046578063a6f0e57714610076578063ebba3c4f146100a6575b600080fd5b610060600480360381019061005b919061051f565b6100d6565b60405161006d919061058b565b60405180910390f35b610090600480360381019061008b91906105a6565b6103f2565b60405161009d91906105ee565b60405180910390f35b6100c060048036038101906100bb9190610635565b610461565b6040516100cd919061058b565b60405180910390f35b6000806107b290505b8461ffff168161ffff16101561013a576100f8816103f2565b15610114576301e285008261010d9190610691565b9150610127565b6301e13380826101249190610691565b91505b8080610132906106c5565b9150506100df565b610142610484565b601f816000600c8110610158576101576106ef565b5b602002019060ff16908160ff1681525050610172866103f2565b156101a357601d816001600c811061018d5761018c6106ef565b5b602002019060ff16908160ff16815250506101cb565b601c816001600c81106101b9576101b86106ef565b5b602002019060ff16908160ff16815250505b601f816002600c81106101e1576101e06106ef565b5b602002019060ff16908160ff1681525050601e816003600c8110610208576102076106ef565b5b602002019060ff16908160ff1681525050601f816004600c811061022f5761022e6106ef565b5b602002019060ff16908160ff1681525050601e816005600c8110610256576102556106ef565b5b602002019060ff16908160ff1681525050601f816006600c811061027d5761027c6106ef565b5b602002019060ff16908160ff1681525050601f816007600c81106102a4576102a36106ef565b5b602002019060ff16908160ff1681525050601e816008600c81106102cb576102ca6106ef565b5b602002019060ff16908160ff1681525050601f816009600c81106102f2576102f16106ef565b5b602002019060ff16908160ff1681525050601e81600a600c8110610319576103186106ef565b5b602002019060ff16908160ff1681525050601f81600b600c81106103405761033f6106ef565b5b602002019060ff16908160ff1681525050600191505b8460ff168261ffff1610156103be5780600183610373919061071e565b61ffff16600c8110610388576103876106ef565b5b602002015160ff166201518061039e9190610754565b836103a99190610691565b925081806103b6906106c5565b925050610356565b6001846103cb9190610796565b60ff16620151806103dc9190610754565b836103e79190610691565b925050509392505050565b60008060048361040291906107fa565b61ffff1614610414576000905061045c565b600060648361042391906107fa565b61ffff1614610435576001905061045c565b60006101908361044591906107fa565b61ffff1614610457576000905061045c565b600190505b919050565b60006201518082610472919061082b565b8261047d919061085c565b9050919050565b604051806101800160405280600c90602082028036833780820191505090505090565b600080fd5b600061ffff82169050919050565b6104c3816104ac565b81146104ce57600080fd5b50565b6000813590506104e0816104ba565b92915050565b600060ff82169050919050565b6104fc816104e6565b811461050757600080fd5b50565b600081359050610519816104f3565b92915050565b600080600060608486031215610538576105376104a7565b5b6000610546868287016104d1565b93505060206105578682870161050a565b92505060406105688682870161050a565b9150509250925092565b6000819050919050565b61058581610572565b82525050565b60006020820190506105a0600083018461057c565b92915050565b6000602082840312156105bc576105bb6104a7565b5b60006105ca848285016104d1565b91505092915050565b60008115159050919050565b6105e8816105d3565b82525050565b600060208201905061060360008301846105df565b92915050565b61061281610572565b811461061d57600080fd5b50565b60008135905061062f81610609565b92915050565b60006020828403121561064b5761064a6104a7565b5b600061065984828501610620565b91505092915050565b7f4e487b7100000000000000000000000000000000000000000000000000000000600052601160045260246000fd5b600061069c82610572565b91506106a783610572565b92508282019050808211156106bf576106be610662565b5b92915050565b60006106d0826104ac565b915061ffff82036106e4576106e3610662565b5b600182019050919050565b7f4e487b7100000000000000000000000000000000000000000000000000000000600052603260045260246000fd5b6000610729826104ac565b9150610734836104ac565b9250828203905061ffff81111561074e5761074d610662565b5b92915050565b600061075f82610572565b915061076a83610572565b925082820261077881610572565b9150828204841483151761078f5761078e610662565b5b5092915050565b60006107a1826104e6565b91506107ac836104e6565b9250828203905060ff8111156107c5576107c4610662565b5b92915050565b7f4e487b7100000000000000000000000000000000000000000000000000000000600052601260045260246000fd5b6000610805826104ac565b9150610810836104ac565b9250826108205761081f6107cb565b5b828206905092915050565b600061083682610572565b915061084183610572565b925082610851576108506107cb565b5b828206905092915050565b600061086782610572565b915061087283610572565b925082820390508181111561088a57610889610662565b5b9291505056fea26469706673582212208acd08d341d1f6eaea19ed083a3ae01ba6b90b36b408ef0cf190853412c97b9264736f6c63430008130033",
  "immutableReferences": {},
  "source": "//SPDX-License-Identifier: Unlicense\r\npragma solidity >=0.7.0 <0.9.0;\r\n\r\nimport \"../../node_modules/@openzeppelin/contracts/token/ERC20/ERC20.sol\";\r\nimport \"../../node_modules/@openzeppelin/contracts/utils/math/Math.sol\";\r\n\r\nimport './HotelToken.sol';\r\nimport './TimeManager.sol';\r\n\r\ncontract SmartHotel {\r\n    string public constant name = 'SmartHotel';\r\n    HotelToken public hotelToken;// 1 token = 1 day \r\n    TimeManager private timeManager;//time manager\r\n    address payable public owner;\r\n    uint16 public roomNum;\r\n    uint64 public hotelTokenPrice;// price of one token in ETH\r\n    uint256 public deployTime;\r\n    \r\n\r\n    struct RoomPass {\r\n        uint256 password;\r\n        bool set;\r\n    }\r\n\r\n    struct Appointment {  \r\n        bool isAppointment;\r\n        string partyName;\r\n        address userAddress;\r\n    }\r\n\r\n    struct UserBooking {\r\n        uint256 timestamp;\r\n        uint8 numDays;\r\n        bool isCheckedIn;\r\n        uint16 roomId;\r\n    }\r\n\r\n    mapping(uint16 => RoomPass) private roomPasses;  //roomid => roompass\r\n    mapping(uint16 => bool) private roomKeyStates;  //is room key opening\r\n    //key is mod 86400\r\n    mapping(uint16 => mapping(uint256 => Appointment)) scheduleByTimestamp;  //roomiduint=>timestampuint=>appo\r\n    mapping(address => UserBooking[]) public userBookings;\r\n\r\n    event TokenPriceChanged(uint64 indexed oldPrice, uint64 indexed newPrice);\r\n    event TokenBought(address indexed from, uint256 sum, uint64 indexed price);\r\n    event AppoScheduled(address indexed from, uint256 indexed timestamp, uint256 indexed span, uint16 room);\r\n    event AppoCanseled(address indexed from, uint256 indexed timestamp, uint256 indexed span, uint8 index);\r\n    event CheckedIn(address indexed user, uint256 indexed timestamp);\r\n    event CheckedOut(address indexed user, uint256 indexed timestamp);\r\n    event roomPassOK(address indexed user, uint256 indexed timestamp);\r\n    event keyOpened(address indexed user, uint256 indexed timestamp);\r\n    event keyLocked(address indexed user, uint256 indexed timestamp);\r\n    event checkKeyState(bool indexed state, uint256 indexed timestamp);\r\n\r\n    modifier onlyOwner() {\r\n        require(msg.sender == owner, \"only owner\");\r\n        _;\r\n    }\r\n\r\n    modifier validMonth(uint8 _m) {\r\n        require(_m > 0 && _m < 13, \"1-12\");\r\n        _;\r\n    }\r\n\r\n    modifier validDay(uint8 _d) {\r\n        require(_d > 0 && _d < 32, \"Invalid day\");\r\n        _;\r\n    }\r\n\r\n    modifier validNumDays(uint8 _num) {\r\n        require(_num > 0, \"above 0\");\r\n        _;\r\n    }\r\n\r\n    modifier validTimestamp(uint256 _t) {\r\n        validateTimestamp(_t);\r\n        _;\r\n    }\r\n\r\n    modifier validRoomId(uint16 _id) {\r\n        require(0 <= _id && _id <= roomNum, \"Invalid room Id\");\r\n        _;\r\n    }\r\n\r\n    modifier validAppoRange(uint256 _t, uint8 _r) {\r\n        isMod86400(_t);\r\n        require(_r <= 365 && _r > 0, \"1-365\");\r\n        _;\r\n    }\r\n\r\n    modifier validName(string memory _s) {\r\n        require(bytes(_s).length != 0, \"blank\");\r\n        _;\r\n    }\r\n\r\n    constructor(\r\n        uint64 _initialPrice,\r\n        uint16 _roomNum\r\n    ) {\r\n        deployTime = block.timestamp;\r\n        hotelToken = new HotelToken(address(this));\r\n        owner = payable(msg.sender);\r\n        timeManager = new TimeManager();\r\n        hotelTokenPrice = _initialPrice;\r\n        roomNum = _roomNum;\r\n    }\r\n\r\n    function validateTimestamp(uint256 _t) private view {\r\n        require(_t > deployTime, \"before deploy\");\r\n        isMod86400(_t);\r\n    }\r\n\r\n    function isMod86400(uint256 _t) private pure {\r\n        require(_t % 86400 == 0, \"mod 86400\");\r\n    }\r\n\r\n    //\r\n    function getUnixTimestamp(\r\n        uint16 _year,\r\n        uint8 _month,\r\n        uint8 _day\r\n    ) external view returns (uint256) {\r\n        return timeManager.toTimestamp(_year, _month, _day);\r\n    }\r\n\r\n    //\r\n    function getTokenBalance(address _addr) external view returns (uint256) {\r\n        return hotelToken.balanceOf(_addr);\r\n    }\r\n\r\n    //\r\n    function getUserAppo(address _addr) external view returns (UserBooking[] memory) {\r\n        return userBookings[_addr];  //UserBooking\r\n    }\r\n\r\n        //1ETH\r\n    function changeTokenPrice(uint64 _newPrice) external onlyOwner {\r\n        require(_newPrice > 0, \"above zero\");\r\n        uint64 temp = hotelTokenPrice;\r\n        hotelTokenPrice = _newPrice;\r\n        emit TokenPriceChanged(temp, _newPrice);\r\n    }\r\n\r\n    function buyTokens(uint256 _numTokens) external payable {\r\n        require(msg.value > 0, \"no ether\");\r\n        require(msg.value >= (hotelTokenPrice * _numTokens), \"not enough ether\");\r\n        (bool sent, ) = owner.call{value: hotelTokenPrice * _numTokens}(\"\");\r\n        require(sent, \"Failed to send\");\r\n\r\n        uint64 excessEth = uint64(msg.value - (hotelTokenPrice * _numTokens));\r\n    \r\n        if (excessEth > 0) {\r\n            payable(msg.sender).transfer(excessEth);\r\n        }\r\n        \r\n        hotelToken.mintToken(msg.sender, _numTokens);\r\n        // use hotelTokenPrice for easy human-readable USD value\r\n        emit TokenBought(msg.sender, _numTokens, hotelTokenPrice);\r\n    }\r\n\r\n    //\r\n    function getAppoList(uint16 _roomId, uint256 _start, uint8 _numDays) \r\n        external\r\n        view\r\n        validRoomId(_roomId)\r\n        validAppoRange(_start, _numDays)\r\n        returns (uint256[] memory)\r\n    {\r\n\r\n        // up to 31 days in a month\r\n        uint256[] memory monthlyAppointments = new uint256[](_numDays);\r\n        for (uint256 i = 0; i < _numDays; ) {\r\n            Appointment memory foundAppointment = scheduleByTimestamp[_roomId][_start + (i * 86400)];\r\n            if (foundAppointment.isAppointment) monthlyAppointments[i] = 1;\r\n            unchecked{ i++; }\r\n        }\r\n\r\n        return monthlyAppointments;\r\n    }\r\n\r\n    function bookAppo(\r\n        uint16 _roomId,\r\n        string calldata _name,\r\n        uint256 _timestamp,\r\n        uint8 _numDays\r\n    )\r\n        external\r\n        validRoomId(_roomId)\r\n        validName(_name)\r\n        validTimestamp(_timestamp)\r\n        validNumDays(_numDays)\r\n    {\r\n        for (uint256 i = 0; i < _numDays; ) {\r\n            require(scheduleByTimestamp[_roomId][_timestamp + (86400 * i)].isAppointment != true, 'Appo already exists');\r\n            scheduleByTimestamp[_roomId][_timestamp + (86400 * i)] = Appointment(true, _name, msg.sender);\r\n            unchecked{ i++; }\r\n        }\r\n        \r\n        hotelToken.burnToken(msg.sender, _numDays);\r\n\r\n        userBookings[msg.sender].push(UserBooking(_timestamp, _numDays, false, _roomId));\r\n        emit AppoScheduled(msg.sender, _timestamp, _numDays, _roomId);\r\n    }\r\n\r\n    function removeUserBooking(uint8 _indexToDelete) internal {\r\n        require(_indexToDelete < userBookings[msg.sender].length);\r\n        userBookings[msg.sender][_indexToDelete] = userBookings[msg.sender][userBookings[msg.sender].length - 1];\r\n        userBookings[msg.sender].pop();\r\n    }\r\n\r\n    // \r\n    function canselAppo(uint8 _index) external {\r\n        require(userBookings[msg.sender][_index].isCheckedIn != true, \"You have already checked in\");\r\n        uint256 timestamp = userBookings[msg.sender][_index].timestamp;\r\n        uint8 numDays = userBookings[msg.sender][_index].numDays;\r\n        uint16 roomId = userBookings[msg.sender][_index].roomId;\r\n        require(timestamp > 0 && numDays > 0, \"no booking found\");\r\n        validateTimestamp(timestamp);\r\n        // cannot cancel past\r\n        require(\r\n            timestamp > block.timestamp,\r\n            \"cannot cancel events in the past\"\r\n        );\r\n        \r\n        for (uint256 i = 0; i < numDays; ) {\r\n            uint256 currDay = timestamp + (86400 * i);\r\n            require(scheduleByTimestamp[roomId][currDay].isAppointment == true, \"not exist appo\");\r\n            require(scheduleByTimestamp[roomId][currDay].userAddress == msg.sender, \"You haven't appo\");\r\n            //delete\r\n            scheduleByTimestamp[roomId][currDay].isAppointment = false;\r\n            unchecked{ i++; }\r\n        }\r\n        //\r\n        removeUserBooking(_index);\r\n        //\r\n        hotelToken.mintToken(msg.sender, numDays);\r\n        //UIemit\r\n        emit AppoCanseled(msg.sender, timestamp, numDays, _index);\r\n    }\r\n\r\n    function checkIn(uint256 _timestamp, uint8 _index) external validTimestamp(_timestamp) { //\r\n        uint16 roomId = userBookings[msg.sender][_index].roomId;\r\n        Appointment memory appointment = scheduleByTimestamp[roomId][_timestamp];\r\n        //block.timestampmod86400_timestamprequire\r\n        //require(_timestamp == timeManager.marume86400(block.timestamp), \"This is not today\");\r\n        require(appointment.isAppointment, \"No appo exists\");\r\n        require(appointment.userAddress == msg.sender, \"You have no appo\");\r\n        require(userBookings[msg.sender][_index].isCheckedIn != true, \"already checked in\");\r\n\r\n        //\r\n        userBookings[msg.sender][_index].isCheckedIn = true;\r\n\r\n        emit CheckedIn(msg.sender, block.timestamp);\r\n    }\r\n\r\n    function checkOut(uint256 _timestamp, uint8 _index) external validTimestamp(_timestamp) {\r\n        uint16 roomId = userBookings[msg.sender][_index].roomId;\r\n        Appointment memory appointment = scheduleByTimestamp[roomId][_timestamp];\r\n        require(appointment.isAppointment, \"No appo exists\");\r\n        require(appointment.userAddress == msg.sender, \"You have no appo\");\r\n        require(userBookings[msg.sender][_index].isCheckedIn == true, \"You have not checked in\");\r\n\r\n        //\r\n        roomPasses[roomId].set = false;\r\n        userBookings[msg.sender][_index].isCheckedIn = false;\r\n        removeUserBooking(_index);  //\r\n        emit CheckedOut(msg.sender, block.timestamp);\r\n    }\r\n\r\n    //\r\n    function roomPassSet(uint256[6] calldata _input, uint256 _timestamp, uint8 _index) external validTimestamp(_timestamp) {\r\n        uint16 roomId = userBookings[msg.sender][_index].roomId;\r\n        Appointment memory appointment = scheduleByTimestamp[roomId][_timestamp];\r\n        require(roomPasses[roomId].set == false, \"You have already set pass\");\r\n        require(appointment.isAppointment, \"No appo exists\");\r\n        require(appointment.userAddress == msg.sender, \"You have no appo\");\r\n        require(userBookings[appointment.userAddress][_index].isCheckedIn, \"You have not checked in\");\r\n\r\n        for (uint256 i = 0; i < 6; ) {\r\n            require(0 <= _input[i] && _input[i] < 10, \"password must be 6num\");\r\n            unchecked{ i++; }\r\n        }\r\n\r\n        roomPasses[roomId].password = uint256(keccak256(abi.encodePacked(_input)));//\r\n\r\n        roomPasses[roomId].set = true;  //issue\r\n        // Emit an event with the one-time code\r\n        emit roomPassOK(appointment.userAddress, block.timestamp);\r\n    }\r\n\r\n    function isPassSet(uint16 _roomId) external view returns (bool) {\r\n        return roomPasses[_roomId].set;\r\n    }\r\n\r\n    //\r\n    function keyOpen(uint256[6] calldata _input, uint256 _timestamp, uint8 _index) external validTimestamp(_timestamp) {\r\n        uint16 roomId = userBookings[msg.sender][_index].roomId;\r\n        Appointment memory appointment = scheduleByTimestamp[roomId][_timestamp];\r\n        require(appointment.isAppointment, \"No appo exists\");\r\n        require(appointment.userAddress == msg.sender, \"You have no appo\");\r\n        require(userBookings[appointment.userAddress][_index].isCheckedIn, \"You have not checked in\");\r\n        require(roomKeyStates[roomId] == false, \"already opened\");\r\n        require(roomPasses[roomId].set == true, \"Please set your password\");\r\n        require(roomPasses[roomId].password == uint256(keccak256(abi.encodePacked(_input))), \"incorrect password\");\r\n\r\n        roomKeyStates[roomId] = true;\r\n\r\n        emit keyOpened(appointment.userAddress, block.timestamp);  //roomnum\r\n    }\r\n\r\n    function keyLock(uint256 _timestamp, uint8 _index) external validTimestamp(_timestamp) {\r\n        uint16 roomId = userBookings[msg.sender][_index].roomId;\r\n        Appointment memory appointment = scheduleByTimestamp[roomId][_timestamp];\r\n        require(appointment.isAppointment, \"No appo exists\");\r\n        require(appointment.userAddress == msg.sender, \"You have no appo\");\r\n        require(userBookings[appointment.userAddress][_index].isCheckedIn, \"You have not checked in\");\r\n        require(roomKeyStates[roomId] == true, \"already closed\");\r\n        require(roomPasses[roomId].set == true, \"Please set your password\");\r\n        //require(roomPass.used == true, \"Room key must be used before locking\");\r\n\r\n        // Lock the room key\r\n        roomKeyStates[roomId] = false;\r\n\r\n        // Emit an event to indicate that the key is locked\r\n        emit keyLocked(appointment.userAddress, block.timestamp);\r\n    }\r\n\r\n    //\r\n    function isDoorOpenStrict(uint256 _timestamp, uint8 _index) external validTimestamp(_timestamp) {\r\n        uint16 roomId = userBookings[msg.sender][_index].roomId;\r\n        Appointment memory appointment = scheduleByTimestamp[roomId][_timestamp];\r\n        require(appointment.isAppointment, \"No appo exists\");\r\n        require(appointment.userAddress == msg.sender, \"You have no appo\");\r\n        require(userBookings[appointment.userAddress][_index].isCheckedIn, \"You have not checked in\");\r\n        require(roomPasses[roomId].set == true, \"Please set your password\");\r\n\r\n        emit checkKeyState(roomKeyStates[roomId], _timestamp);\r\n    }\r\n\r\n    //\r\n    function showAppo(uint16 _roomId, uint256 _timestamp) external view validTimestamp(_timestamp) returns (Appointment memory appo) {\r\n        appo = scheduleByTimestamp[_roomId][_timestamp];\r\n    }\r\n\r\n    function isCheckedIn(uint8 _index) external view returns (UserBooking memory booking) {\r\n        booking = userBookings[msg.sender][_index];\r\n    }\r\n\r\n    function isDoorOpen(uint16 _roomId) external view returns (bool) {\r\n        return roomKeyStates[_roomId];\r\n    }\r\n}",
  "sourcePath": "C:\\Users\\Hong lab\\project\\smart-hotel\\src\\contracts\\SmartHotel.sol",
  "compiler": {
    "name": "solc",
    "version": "0.8.19+commit.7dd6d404.Emscripten.clang"
  },
  "schemaVersion": "3.4.14",
  "updatedAt": "2024-01-10T09:40:17.748Z",
  "networkType": "ethereum",
  "devdoc": {
    "kind": "dev",
    "methods": {},
    "version": 1
  },
  "userdoc": {
    "kind": "user",
    "methods": {},
    "version": 1
  }
}