{
  "contractName": "SmartHotel",
  "abi": [
    {
      "inputs": [
        {
          "internalType": "uint64",
          "name": "_initialPrice",
          "type": "uint64"
        },
        {
          "internalType": "uint16",
          "name": "_roomNum",
          "type": "uint16"
        }
      ],
      "stateMutability": "nonpayable",
      "type": "constructor"
    },
    {
      "anonymous": false,
      "inputs": [
        {
          "indexed": true,
          "internalType": "address",
          "name": "from",
          "type": "address"
        },
        {
          "indexed": true,
          "internalType": "uint256",
          "name": "timestamp",
          "type": "uint256"
        },
        {
          "indexed": true,
          "internalType": "uint256",
          "name": "span",
          "type": "uint256"
        },
        {
          "indexed": false,
          "internalType": "uint8",
          "name": "index",
          "type": "uint8"
        }
      ],
      "name": "AppoRefunded",
      "type": "event"
    },
    {
      "anonymous": false,
      "inputs": [
        {
          "indexed": true,
          "internalType": "address",
          "name": "from",
          "type": "address"
        },
        {
          "indexed": true,
          "internalType": "uint256",
          "name": "timestamp",
          "type": "uint256"
        },
        {
          "indexed": true,
          "internalType": "uint256",
          "name": "span",
          "type": "uint256"
        },
        {
          "indexed": false,
          "internalType": "uint16",
          "name": "room",
          "type": "uint16"
        }
      ],
      "name": "AppoScheduled",
      "type": "event"
    },
    {
      "anonymous": false,
      "inputs": [
        {
          "indexed": true,
          "internalType": "address",
          "name": "user",
          "type": "address"
        },
        {
          "indexed": true,
          "internalType": "uint256",
          "name": "timestamp",
          "type": "uint256"
        }
      ],
      "name": "CheckedIn",
      "type": "event"
    },
    {
      "anonymous": false,
      "inputs": [
        {
          "indexed": true,
          "internalType": "address",
          "name": "user",
          "type": "address"
        },
        {
          "indexed": true,
          "internalType": "uint256",
          "name": "timestamp",
          "type": "uint256"
        }
      ],
      "name": "CheckedOut",
      "type": "event"
    },
    {
      "anonymous": false,
      "inputs": [
        {
          "indexed": true,
          "internalType": "address",
          "name": "from",
          "type": "address"
        },
        {
          "indexed": false,
          "internalType": "uint256",
          "name": "sum",
          "type": "uint256"
        },
        {
          "indexed": true,
          "internalType": "uint64",
          "name": "price",
          "type": "uint64"
        }
      ],
      "name": "TokenBought",
      "type": "event"
    },
    {
      "anonymous": false,
      "inputs": [
        {
          "indexed": true,
          "internalType": "uint64",
          "name": "oldPrice",
          "type": "uint64"
        },
        {
          "indexed": true,
          "internalType": "uint64",
          "name": "newPrice",
          "type": "uint64"
        }
      ],
      "name": "TokenPriceChanged",
      "type": "event"
    },
    {
      "anonymous": false,
      "inputs": [
        {
          "indexed": true,
          "internalType": "bool",
          "name": "state",
          "type": "bool"
        },
        {
          "indexed": true,
          "internalType": "uint256",
          "name": "timestamp",
          "type": "uint256"
        }
      ],
      "name": "checkKeyState",
      "type": "event"
    },
    {
      "anonymous": false,
      "inputs": [
        {
          "indexed": true,
          "internalType": "address",
          "name": "user",
          "type": "address"
        },
        {
          "indexed": true,
          "internalType": "uint256",
          "name": "timestamp",
          "type": "uint256"
        }
      ],
      "name": "keyLocked",
      "type": "event"
    },
    {
      "anonymous": false,
      "inputs": [
        {
          "indexed": true,
          "internalType": "address",
          "name": "user",
          "type": "address"
        },
        {
          "indexed": true,
          "internalType": "uint256",
          "name": "timestamp",
          "type": "uint256"
        }
      ],
      "name": "keyOpened",
      "type": "event"
    },
    {
      "anonymous": false,
      "inputs": [
        {
          "indexed": true,
          "internalType": "address",
          "name": "user",
          "type": "address"
        },
        {
          "indexed": true,
          "internalType": "uint256",
          "name": "timestamp",
          "type": "uint256"
        }
      ],
      "name": "roomPassOK",
      "type": "event"
    },
    {
      "inputs": [],
      "name": "deployTime",
      "outputs": [
        {
          "internalType": "uint256",
          "name": "",
          "type": "uint256"
        }
      ],
      "stateMutability": "view",
      "type": "function",
      "constant": true
    },
    {
      "inputs": [],
      "name": "hotelToken",
      "outputs": [
        {
          "internalType": "contract HotelToken",
          "name": "",
          "type": "address"
        }
      ],
      "stateMutability": "view",
      "type": "function",
      "constant": true
    },
    {
      "inputs": [],
      "name": "hotelTokenPrice",
      "outputs": [
        {
          "internalType": "uint64",
          "name": "",
          "type": "uint64"
        }
      ],
      "stateMutability": "view",
      "type": "function",
      "constant": true
    },
    {
      "inputs": [],
      "name": "name",
      "outputs": [
        {
          "internalType": "string",
          "name": "",
          "type": "string"
        }
      ],
      "stateMutability": "view",
      "type": "function",
      "constant": true
    },
    {
      "inputs": [],
      "name": "owner",
      "outputs": [
        {
          "internalType": "address payable",
          "name": "",
          "type": "address"
        }
      ],
      "stateMutability": "view",
      "type": "function",
      "constant": true
    },
    {
      "inputs": [
        {
          "internalType": "uint16",
          "name": "",
          "type": "uint16"
        }
      ],
      "name": "roomKeyStates",
      "outputs": [
        {
          "internalType": "bool",
          "name": "",
          "type": "bool"
        }
      ],
      "stateMutability": "view",
      "type": "function",
      "constant": true
    },
    {
      "inputs": [],
      "name": "roomNum",
      "outputs": [
        {
          "internalType": "uint16",
          "name": "",
          "type": "uint16"
        }
      ],
      "stateMutability": "view",
      "type": "function",
      "constant": true
    },
    {
      "inputs": [
        {
          "internalType": "address",
          "name": "",
          "type": "address"
        },
        {
          "internalType": "uint256",
          "name": "",
          "type": "uint256"
        }
      ],
      "name": "userBookings",
      "outputs": [
        {
          "internalType": "uint256",
          "name": "timestamp",
          "type": "uint256"
        },
        {
          "internalType": "uint8",
          "name": "numDays",
          "type": "uint8"
        },
        {
          "internalType": "bool",
          "name": "isCheckedIn",
          "type": "bool"
        },
        {
          "internalType": "uint16",
          "name": "roomId",
          "type": "uint16"
        }
      ],
      "stateMutability": "view",
      "type": "function",
      "constant": true
    },
    {
      "inputs": [
        {
          "internalType": "uint16",
          "name": "_year",
          "type": "uint16"
        },
        {
          "internalType": "uint8",
          "name": "_month",
          "type": "uint8"
        },
        {
          "internalType": "uint8",
          "name": "_day",
          "type": "uint8"
        }
      ],
      "name": "getUnixTimestamp",
      "outputs": [
        {
          "internalType": "uint256",
          "name": "",
          "type": "uint256"
        }
      ],
      "stateMutability": "view",
      "type": "function",
      "constant": true
    },
    {
      "inputs": [
        {
          "internalType": "address",
          "name": "_addr",
          "type": "address"
        }
      ],
      "name": "getTokenBalance",
      "outputs": [
        {
          "internalType": "uint256",
          "name": "",
          "type": "uint256"
        }
      ],
      "stateMutability": "view",
      "type": "function",
      "constant": true
    },
    {
      "inputs": [
        {
          "internalType": "address",
          "name": "_addr",
          "type": "address"
        }
      ],
      "name": "getUserAppo",
      "outputs": [
        {
          "components": [
            {
              "internalType": "uint256",
              "name": "timestamp",
              "type": "uint256"
            },
            {
              "internalType": "uint8",
              "name": "numDays",
              "type": "uint8"
            },
            {
              "internalType": "bool",
              "name": "isCheckedIn",
              "type": "bool"
            },
            {
              "internalType": "uint16",
              "name": "roomId",
              "type": "uint16"
            }
          ],
          "internalType": "struct SmartHotel.UserBooking[]",
          "name": "",
          "type": "tuple[]"
        }
      ],
      "stateMutability": "view",
      "type": "function",
      "constant": true
    },
    {
      "inputs": [
        {
          "internalType": "uint16",
          "name": "_roomId",
          "type": "uint16"
        },
        {
          "internalType": "uint256",
          "name": "_start",
          "type": "uint256"
        },
        {
          "internalType": "uint8",
          "name": "_numDays",
          "type": "uint8"
        }
      ],
      "name": "getAppoList",
      "outputs": [
        {
          "internalType": "uint256[]",
          "name": "",
          "type": "uint256[]"
        }
      ],
      "stateMutability": "view",
      "type": "function",
      "constant": true
    },
    {
      "inputs": [
        {
          "internalType": "uint16",
          "name": "_roomId",
          "type": "uint16"
        },
        {
          "internalType": "string",
          "name": "_name",
          "type": "string"
        },
        {
          "internalType": "uint256",
          "name": "_timestamp",
          "type": "uint256"
        },
        {
          "internalType": "uint8",
          "name": "_numDays",
          "type": "uint8"
        }
      ],
      "name": "bookAppo",
      "outputs": [],
      "stateMutability": "nonpayable",
      "type": "function"
    },
    {
      "inputs": [
        {
          "internalType": "uint8",
          "name": "_index",
          "type": "uint8"
        }
      ],
      "name": "refundAppo",
      "outputs": [],
      "stateMutability": "nonpayable",
      "type": "function"
    },
    {
      "inputs": [
        {
          "internalType": "uint64",
          "name": "_newPrice",
          "type": "uint64"
        }
      ],
      "name": "changeTokenPrice",
      "outputs": [],
      "stateMutability": "nonpayable",
      "type": "function"
    },
    {
      "inputs": [
        {
          "internalType": "uint256",
          "name": "_numTokens",
          "type": "uint256"
        }
      ],
      "name": "buyTokens",
      "outputs": [],
      "stateMutability": "payable",
      "type": "function",
      "payable": true
    },
    {
      "inputs": [
        {
          "internalType": "uint256",
          "name": "_timestamp",
          "type": "uint256"
        },
        {
          "internalType": "uint8",
          "name": "_index",
          "type": "uint8"
        }
      ],
      "name": "checkIn",
      "outputs": [],
      "stateMutability": "nonpayable",
      "type": "function"
    },
    {
      "inputs": [
        {
          "internalType": "uint256",
          "name": "_timestamp",
          "type": "uint256"
        },
        {
          "internalType": "uint8",
          "name": "_index",
          "type": "uint8"
        }
      ],
      "name": "checkOut",
      "outputs": [],
      "stateMutability": "nonpayable",
      "type": "function"
    },
    {
      "inputs": [
        {
          "internalType": "uint256[6]",
          "name": "_input",
          "type": "uint256[6]"
        },
        {
          "internalType": "uint256",
          "name": "_timestamp",
          "type": "uint256"
        },
        {
          "internalType": "uint8",
          "name": "_index",
          "type": "uint8"
        }
      ],
      "name": "roomPassSet",
      "outputs": [],
      "stateMutability": "nonpayable",
      "type": "function"
    },
    {
      "inputs": [
        {
          "internalType": "uint16",
          "name": "_roomId",
          "type": "uint16"
        }
      ],
      "name": "isPassSet",
      "outputs": [
        {
          "internalType": "bool",
          "name": "",
          "type": "bool"
        }
      ],
      "stateMutability": "view",
      "type": "function",
      "constant": true
    },
    {
      "inputs": [
        {
          "internalType": "uint256[6]",
          "name": "_input",
          "type": "uint256[6]"
        },
        {
          "internalType": "uint256",
          "name": "_timestamp",
          "type": "uint256"
        },
        {
          "internalType": "uint8",
          "name": "_index",
          "type": "uint8"
        }
      ],
      "name": "keyOpen",
      "outputs": [],
      "stateMutability": "nonpayable",
      "type": "function"
    },
    {
      "inputs": [
        {
          "internalType": "uint256",
          "name": "_timestamp",
          "type": "uint256"
        },
        {
          "internalType": "uint8",
          "name": "_index",
          "type": "uint8"
        }
      ],
      "name": "keyLock",
      "outputs": [],
      "stateMutability": "nonpayable",
      "type": "function"
    },
    {
      "inputs": [
        {
          "internalType": "uint256",
          "name": "_timestamp",
          "type": "uint256"
        },
        {
          "internalType": "uint8",
          "name": "_index",
          "type": "uint8"
        }
      ],
      "name": "isDoorOpenStrict",
      "outputs": [],
      "stateMutability": "nonpayable",
      "type": "function"
    },
    {
      "inputs": [
        {
          "internalType": "uint16",
          "name": "_roomId",
          "type": "uint16"
        },
        {
          "internalType": "uint256",
          "name": "_timestamp",
          "type": "uint256"
        }
      ],
      "name": "showAppo",
      "outputs": [
        {
          "components": [
            {
              "internalType": "bool",
              "name": "isAppointment",
              "type": "bool"
            },
            {
              "internalType": "string",
              "name": "partyName",
              "type": "string"
            },
            {
              "internalType": "address",
              "name": "userAddress",
              "type": "address"
            }
          ],
          "internalType": "struct SmartHotel.Appointment",
          "name": "appo",
          "type": "tuple"
        }
      ],
      "stateMutability": "view",
      "type": "function",
      "constant": true
    },
    {
      "inputs": [
        {
          "internalType": "uint8",
          "name": "_index",
          "type": "uint8"
        }
      ],
      "name": "isCheckedIn",
      "outputs": [
        {
          "components": [
            {
              "internalType": "uint256",
              "name": "timestamp",
              "type": "uint256"
            },
            {
              "internalType": "uint8",
              "name": "numDays",
              "type": "uint8"
            },
            {
              "internalType": "bool",
              "name": "isCheckedIn",
              "type": "bool"
            },
            {
              "internalType": "uint16",
              "name": "roomId",
              "type": "uint16"
            }
          ],
          "internalType": "struct SmartHotel.UserBooking",
          "name": "booking",
          "type": "tuple"
        }
      ],
      "stateMutability": "view",
      "type": "function",
      "constant": true
    },
    {
      "inputs": [
        {
          "internalType": "uint16",
          "name": "_roomId",
          "type": "uint16"
        }
      ],
      "name": "isDoorOpen",
      "outputs": [
        {
          "internalType": "bool",
          "name": "",
          "type": "bool"
        }
      ],
      "stateMutability": "view",
      "type": "function",
      "constant": true
    }
  ],
  "bytecode": "0x60806040523480156200001157600080fd5b5060405162007cbd38038062007cbd833981810160405281019062000037919062000256565b42600381905550306040516200004d90620001b1565b620000599190620002e2565b604051809103906000f08015801562000076573d6000803e3d6000fd5b506000806101000a81548173ffffffffffffffffffffffffffffffffffffffff021916908373ffffffffffffffffffffffffffffffffffffffff16021790555033600260006101000a81548173ffffffffffffffffffffffffffffffffffffffff021916908373ffffffffffffffffffffffffffffffffffffffff1602179055506040516200010590620001bf565b604051809103906000f08015801562000122573d6000803e3d6000fd5b50600160006101000a81548173ffffffffffffffffffffffffffffffffffffffff021916908373ffffffffffffffffffffffffffffffffffffffff16021790555081600260166101000a81548167ffffffffffffffff021916908367ffffffffffffffff16021790555080600260146101000a81548161ffff021916908361ffff1602179055505050620002ff565b6116ae8062005d2983390190565b6108e680620073d783390190565b600080fd5b600067ffffffffffffffff82169050919050565b620001f181620001d2565b8114620001fd57600080fd5b50565b6000815190506200021181620001e6565b92915050565b600061ffff82169050919050565b620002308162000217565b81146200023c57600080fd5b50565b600081519050620002508162000225565b92915050565b6000806040838503121562000270576200026f620001cd565b5b6000620002808582860162000200565b925050602062000293858286016200023f565b9150509250929050565b600073ffffffffffffffffffffffffffffffffffffffff82169050919050565b6000620002ca826200029d565b9050919050565b620002dc81620002bd565b82525050565b6000602082019050620002f96000830184620002d1565b92915050565b615a1a806200030f6000396000f3fe6080604052600436106101815760003560e01c806361d60cb3116100d15780638da5cb5b1161008a578063df1e02e711610064578063df1e02e7146105bb578063e3a4d3a2146105e6578063eef3f41e14610626578063f9da89c91461064f57610181565b80638da5cb5b1461052a578063c7de29f714610555578063d03d66fc1461059257610181565b806361d60cb31461041e5780636a15e4f2146104475780637a11308f146104705780637a40624b146104995780637ec4e61d146104c4578063844d18d5146104ed57610181565b80632352cfee1161013e5780633aecd0e3116101185780633aecd0e31461033c57806348f0478b1461037957806349ac270e146103a45780634f7141bc146103e157610181565b80632352cfee146102a65780632c795868146102e35780633610724e1461032057610181565b806304d5a9301461018657806306fdde03146101c35780630c6dc827146101ee5780630e89f552146102175780630ec9ad4c14610240578063131104a514610269575b600080fd5b34801561019257600080fd5b506101ad60048036038101906101a89190613e05565b61067a565b6040516101ba9190613f16565b60405180910390f35b3480156101cf57600080fd5b506101d8610949565b6040516101e59190613fc8565b60405180910390f35b3480156101fa57600080fd5b5061021560048036038101906102109190613fea565b610982565b005b34801561022357600080fd5b5061023e6004803603810190610239919061403e565b610ee3565b005b34801561024c57600080fd5b5061026760048036038101906102629190614092565b6113ec565b005b34801561027557600080fd5b50610290600480360381019061028b91906140d2565b6117e9565b60405161029d9190614134565b60405180910390f35b3480156102b257600080fd5b506102cd60048036038101906102c8919061414f565b611894565b6040516102da9190614285565b60405180910390f35b3480156102ef57600080fd5b5061030a600480360381019061030591906142a7565b6119e9565b60405161031791906142e3565b60405180910390f35b61033a600480360381019061033591906142fe565b611a1b565b005b34801561034857600080fd5b50610363600480360381019061035e9190614357565b611d66565b6040516103709190614134565b60405180910390f35b34801561038557600080fd5b5061038e611e0a565b60405161039b91906143e3565b60405180910390f35b3480156103b057600080fd5b506103cb60048036038101906103c691906142a7565b611e2e565b6040516103d891906142e3565b60405180910390f35b3480156103ed57600080fd5b5061040860048036038101906104039190614357565b611e63565b6040516104159190614520565b60405180910390f35b34801561042a57600080fd5b5061044560048036038101906104409190614092565b611f63565b005b34801561045357600080fd5b5061046e6004803603810190610469919061403e565b61235b565b005b34801561047c57600080fd5b5061049760048036038101906104929190614582565b612875565b005b3480156104a557600080fd5b506104ae6129dc565b6040516104bb9190614134565b60405180910390f35b3480156104d057600080fd5b506104eb60048036038101906104e6919061460f565b6129e2565b005b3480156104f957600080fd5b50610514600480360381019061050f91906142a7565b612f0c565b60405161052191906142e3565b60405180910390f35b34801561053657600080fd5b5061053f612f2c565b60405161054c91906146b8565b60405180910390f35b34801561056157600080fd5b5061057c60048036038101906105779190613fea565b612f52565b6040516105899190614728565b60405180910390f35b34801561059e57600080fd5b506105b960048036038101906105b49190614092565b613030565b005b3480156105c757600080fd5b506105d0613468565b6040516105dd9190614752565b60405180910390f35b3480156105f257600080fd5b5061060d6004803603810190610608919061476d565b61347c565b60405161061d94939291906147bc565b60405180910390f35b34801561063257600080fd5b5061064d60048036038101906106489190614092565b6134f1565b005b34801561065b57600080fd5b50610664613981565b6040516106719190614810565b60405180910390f35b6060838061ffff166000111580156106aa5750600260149054906101000a900461ffff1661ffff168161ffff1611155b6106e9576040517f08c379a00000000000000000000000000000000000000000000000000000000081526004016106e090614877565b60405180910390fd5b83836106f48261399b565b61016d8160ff161115801561070c575060008160ff16115b61074b576040517f08c379a0000000000000000000000000000000000000000000000000000000008152600401610742906148e3565b60405180910390fd5b60008560ff1667ffffffffffffffff81111561076a57610769614903565b5b6040519080825280602002602001820160405280156107985781602001602082028036833780820191505090505b50905060005b8660ff1681101561093a576000600660008b61ffff1661ffff168152602001908152602001600020600062015180846107d79190614961565b8b6107e291906149a3565b81526020019081526020016000206040518060600160405290816000820160009054906101000a900460ff1615151515815260200160018201805461082690614a06565b80601f016020809104026020016040519081016040528092919081815260200182805461085290614a06565b801561089f5780601f106108745761010080835404028352916020019161089f565b820191906000526020600020905b81548152906001019060200180831161088257829003601f168201915b505050505081526020016002820160009054906101000a900473ffffffffffffffffffffffffffffffffffffffff1673ffffffffffffffffffffffffffffffffffffffff1673ffffffffffffffffffffffffffffffffffffffff1681525050905080600001511561092c57600183838151811061091f5761091e614a37565b5b6020026020010181815250505b81806001019250505061079e565b50809450505050509392505050565b6040518060400160405280600a81526020017f536d617274486f74656c0000000000000000000000000000000000000000000081525081565b60011515600760003373ffffffffffffffffffffffffffffffffffffffff1673ffffffffffffffffffffffffffffffffffffffff1681526020019081526020016000208260ff16815481106109da576109d9614a37565b5b906000526020600020906002020160010160019054906101000a900460ff16151503610a3b576040517f08c379a0000000000000000000000000000000000000000000000000000000008152600401610a3290614ab2565b60405180910390fd5b6000600760003373ffffffffffffffffffffffffffffffffffffffff1673ffffffffffffffffffffffffffffffffffffffff1681526020019081526020016000208260ff1681548110610a9157610a90614a37565b5b90600052602060002090600202016000015490506000600760003373ffffffffffffffffffffffffffffffffffffffff1673ffffffffffffffffffffffffffffffffffffffff1681526020019081526020016000208360ff1681548110610afb57610afa614a37565b5b906000526020600020906002020160010160009054906101000a900460ff1690506000600760003373ffffffffffffffffffffffffffffffffffffffff1673ffffffffffffffffffffffffffffffffffffffff1681526020019081526020016000208460ff1681548110610b7257610b71614a37565b5b906000526020600020906002020160010160029054906101000a900461ffff169050600083118015610ba7575060008260ff16115b610be6576040517f08c379a0000000000000000000000000000000000000000000000000000000008152600401610bdd90614b1e565b60405180910390fd5b610bef836139ef565b428311610c31576040517f08c379a0000000000000000000000000000000000000000000000000000000008152600401610c2890614b8a565b60405180910390fd5b60005b8260ff16811015610df35760008162015180610c509190614961565b85610c5b91906149a3565b905060011515600660008561ffff1661ffff168152602001908152602001600020600083815260200190815260200160002060000160009054906101000a900460ff16151514610ce0576040517f08c379a0000000000000000000000000000000000000000000000000000000008152600401610cd790614bf6565b60405180910390fd5b3373ffffffffffffffffffffffffffffffffffffffff16600660008561ffff1661ffff168152602001908152602001600020600083815260200190815260200160002060020160009054906101000a900473ffffffffffffffffffffffffffffffffffffffff1673ffffffffffffffffffffffffffffffffffffffff1614610d9d576040517f08c379a0000000000000000000000000000000000000000000000000000000008152600401610d9490614c62565b60405180910390fd5b6000600660008561ffff1661ffff168152602001908152602001600020600083815260200190815260200160002060000160006101000a81548160ff021916908315150217905550818060010192505050610c34565b50610dfd84613a3f565b60008054906101000a900473ffffffffffffffffffffffffffffffffffffffff1673ffffffffffffffffffffffffffffffffffffffff166379c6506833846040518363ffffffff1660e01b8152600401610e58929190614cc2565b600060405180830381600087803b158015610e7257600080fd5b505af1158015610e86573d6000803e3d6000fd5b505050508160ff16833373ffffffffffffffffffffffffffffffffffffffff167fa3d6a454a87b586ae409c84b0c96218631558a1d3cba4681ee6d983092d5951787604051610ed59190614ceb565b60405180910390a450505050565b81610eed816139ef565b6000600760003373ffffffffffffffffffffffffffffffffffffffff1673ffffffffffffffffffffffffffffffffffffffff1681526020019081526020016000208360ff1681548110610f4357610f42614a37565b5b906000526020600020906002020160010160029054906101000a900461ffff1690506000600660008361ffff1661ffff16815260200190815260200160002060008681526020019081526020016000206040518060600160405290816000820160009054906101000a900460ff16151515158152602001600182018054610fc990614a06565b80601f0160208091040260200160405190810160405280929190818152602001828054610ff590614a06565b80156110425780601f1061101757610100808354040283529160200191611042565b820191906000526020600020905b81548152906001019060200180831161102557829003601f168201915b505050505081526020016002820160009054906101000a900473ffffffffffffffffffffffffffffffffffffffff1673ffffffffffffffffffffffffffffffffffffffff1673ffffffffffffffffffffffffffffffffffffffff1681525050905060001515600460008461ffff1661ffff16815260200190815260200160002060010160009054906101000a900460ff16151514611115576040517f08c379a000000000000000000000000000000000000000000000000000000000815260040161110c90614d52565b60405180910390fd5b8060000151611159576040517f08c379a000000000000000000000000000000000000000000000000000000000815260040161115090614dbe565b60405180910390fd5b3373ffffffffffffffffffffffffffffffffffffffff16816040015173ffffffffffffffffffffffffffffffffffffffff16146111cb576040517f08c379a00000000000000000000000000000000000000000000000000000000081526004016111c290614e2a565b60405180910390fd5b60076000826040015173ffffffffffffffffffffffffffffffffffffffff1673ffffffffffffffffffffffffffffffffffffffff1681526020019081526020016000208460ff168154811061122357611222614a37565b5b906000526020600020906002020160010160019054906101000a900460ff16611281576040517f08c379a000000000000000000000000000000000000000000000000000000000815260040161127890614e96565b60405180910390fd5b60005b6006811015611318578681600681106112a05761129f614a37565b5b60200201356000111580156112cc5750600a8782600681106112c5576112c4614a37565b5b6020020135105b61130b576040517f08c379a000000000000000000000000000000000000000000000000000000000815260040161130290614f02565b60405180910390fd5b8080600101915050611284565b508560405160200161132a9190614f3b565b6040516020818303038152906040528051906020012060001c600460008461ffff1661ffff168152602001908152602001600020600001819055506001600460008461ffff1661ffff16815260200190815260200160002060010160006101000a81548160ff02191690831515021790555042816040015173ffffffffffffffffffffffffffffffffffffffff167fd826f21f737182bf828b63f749427fc75ffb76e1c1489baf5ca641e1fca4c32860405160405180910390a3505050505050565b816113f6816139ef565b6000600760003373ffffffffffffffffffffffffffffffffffffffff1673ffffffffffffffffffffffffffffffffffffffff1681526020019081526020016000208360ff168154811061144c5761144b614a37565b5b906000526020600020906002020160010160029054906101000a900461ffff1690506000600660008361ffff1661ffff16815260200190815260200160002060008681526020019081526020016000206040518060600160405290816000820160009054906101000a900460ff161515151581526020016001820180546114d290614a06565b80601f01602080910402602001604051908101604052809291908181526020018280546114fe90614a06565b801561154b5780601f106115205761010080835404028352916020019161154b565b820191906000526020600020905b81548152906001019060200180831161152e57829003601f168201915b505050505081526020016002820160009054906101000a900473ffffffffffffffffffffffffffffffffffffffff1673ffffffffffffffffffffffffffffffffffffffff1673ffffffffffffffffffffffffffffffffffffffff1681525050905080600001516115f0576040517f08c379a00000000000000000000000000000000000000000000000000000000081526004016115e790614dbe565b60405180910390fd5b3373ffffffffffffffffffffffffffffffffffffffff16816040015173ffffffffffffffffffffffffffffffffffffffff1614611662576040517f08c379a000000000000000000000000000000000000000000000000000000000815260040161165990614e2a565b60405180910390fd5b60076000826040015173ffffffffffffffffffffffffffffffffffffffff1673ffffffffffffffffffffffffffffffffffffffff1681526020019081526020016000208460ff16815481106116ba576116b9614a37565b5b906000526020600020906002020160010160019054906101000a900460ff16611718576040517f08c379a000000000000000000000000000000000000000000000000000000000815260040161170f90614e96565b60405180910390fd5b60011515600460008461ffff1661ffff16815260200190815260200160002060010160009054906101000a900460ff1615151461178a576040517f08c379a000000000000000000000000000000000000000000000000000000000815260040161178190614fa2565b60405180910390fd5b84600560008461ffff1661ffff16815260200190815260200160002060009054906101000a900460ff1615157f197bcc9063340cc9b73855a0ba89b3e9d569a32dff76aba1b814e12a510874a060405160405180910390a35050505050565b6000600160009054906101000a900473ffffffffffffffffffffffffffffffffffffffff1673ffffffffffffffffffffffffffffffffffffffff16638c8d98a08585856040518463ffffffff1660e01b815260040161184a93929190614fc2565b602060405180830381865afa158015611867573d6000803e3d6000fd5b505050506040513d601f19601f8201168201806040525081019061188b919061500e565b90509392505050565b61189c613ce8565b816118a6816139ef565b600660008561ffff1661ffff16815260200190815260200160002060008481526020019081526020016000206040518060600160405290816000820160009054906101000a900460ff1615151515815260200160018201805461190890614a06565b80601f016020809104026020016040519081016040528092919081815260200182805461193490614a06565b80156119815780601f1061195657610100808354040283529160200191611981565b820191906000526020600020905b81548152906001019060200180831161196457829003601f168201915b505050505081526020016002820160009054906101000a900473ffffffffffffffffffffffffffffffffffffffff1673ffffffffffffffffffffffffffffffffffffffff1673ffffffffffffffffffffffffffffffffffffffff168152505091505092915050565b6000600560008361ffff1661ffff16815260200190815260200160002060009054906101000a900460ff169050919050565b60003411611a5e576040517f08c379a0000000000000000000000000000000000000000000000000000000008152600401611a5590615087565b60405180910390fd5b80600260169054906101000a900467ffffffffffffffff1667ffffffffffffffff16611a8a9190614961565b341015611acc576040517f08c379a0000000000000000000000000000000000000000000000000000000008152600401611ac3906150f3565b60405180910390fd5b6000600260009054906101000a900473ffffffffffffffffffffffffffffffffffffffff1673ffffffffffffffffffffffffffffffffffffffff1682600260169054906101000a900467ffffffffffffffff1667ffffffffffffffff16611b339190614961565b604051611b3f90615144565b60006040518083038185875af1925050503d8060008114611b7c576040519150601f19603f3d011682016040523d82523d6000602084013e611b81565b606091505b5050905080611bc5576040517f08c379a0000000000000000000000000000000000000000000000000000000008152600401611bbc906151a5565b60405180910390fd5b600082600260169054906101000a900467ffffffffffffffff1667ffffffffffffffff16611bf39190614961565b34611bfe91906151c5565b905060008167ffffffffffffffff161115611c65573373ffffffffffffffffffffffffffffffffffffffff166108fc8267ffffffffffffffff169081150290604051600060405180830381858888f19350505050158015611c63573d6000803e3d6000fd5b505b60008054906101000a900473ffffffffffffffffffffffffffffffffffffffff1673ffffffffffffffffffffffffffffffffffffffff166379c6506833856040518363ffffffff1660e01b8152600401611cc09291906151f9565b600060405180830381600087803b158015611cda57600080fd5b505af1158015611cee573d6000803e3d6000fd5b50505050600260169054906101000a900467ffffffffffffffff1667ffffffffffffffff163373ffffffffffffffffffffffffffffffffffffffff167fef3994179b0230a18df9ee1700885c1c5ee5d13c646f1ea898572e5df8761d5485604051611d599190614134565b60405180910390a3505050565b60008060009054906101000a900473ffffffffffffffffffffffffffffffffffffffff1673ffffffffffffffffffffffffffffffffffffffff166370a08231836040518263ffffffff1660e01b8152600401611dc29190615222565b602060405180830381865afa158015611ddf573d6000803e3d6000fd5b505050506040513d601f19601f82011682018060405250810190611e03919061500e565b9050919050565b60008054906101000a900473ffffffffffffffffffffffffffffffffffffffff1681565b6000600460008361ffff1661ffff16815260200190815260200160002060010160009054906101000a900460ff169050919050565b6060600760008373ffffffffffffffffffffffffffffffffffffffff1673ffffffffffffffffffffffffffffffffffffffff168152602001908152602001600020805480602002602001604051908101604052809291908181526020016000905b82821015611f585783829060005260206000209060020201604051806080016040529081600082015481526020016001820160009054906101000a900460ff1660ff1660ff1681526020016001820160019054906101000a900460ff161515151581526020016001820160029054906101000a900461ffff1661ffff1661ffff168152505081526020019060010190611ec4565b505050509050919050565b81611f6d816139ef565b6000600760003373ffffffffffffffffffffffffffffffffffffffff1673ffffffffffffffffffffffffffffffffffffffff1681526020019081526020016000208360ff1681548110611fc357611fc2614a37565b5b906000526020600020906002020160010160029054906101000a900461ffff1690506000600660008361ffff1661ffff16815260200190815260200160002060008681526020019081526020016000206040518060600160405290816000820160009054906101000a900460ff1615151515815260200160018201805461204990614a06565b80601f016020809104026020016040519081016040528092919081815260200182805461207590614a06565b80156120c25780601f10612097576101008083540402835291602001916120c2565b820191906000526020600020905b8154815290600101906020018083116120a557829003601f168201915b505050505081526020016002820160009054906101000a900473ffffffffffffffffffffffffffffffffffffffff1673ffffffffffffffffffffffffffffffffffffffff1673ffffffffffffffffffffffffffffffffffffffff168152505090508060000151612167576040517f08c379a000000000000000000000000000000000000000000000000000000000815260040161215e90614dbe565b60405180910390fd5b3373ffffffffffffffffffffffffffffffffffffffff16816040015173ffffffffffffffffffffffffffffffffffffffff16146121d9576040517f08c379a00000000000000000000000000000000000000000000000000000000081526004016121d090614e2a565b60405180910390fd5b60011515600760003373ffffffffffffffffffffffffffffffffffffffff1673ffffffffffffffffffffffffffffffffffffffff1681526020019081526020016000208560ff168154811061223157612230614a37565b5b906000526020600020906002020160010160019054906101000a900460ff16151503612292576040517f08c379a000000000000000000000000000000000000000000000000000000000815260040161228990615289565b60405180910390fd5b6001600760003373ffffffffffffffffffffffffffffffffffffffff1673ffffffffffffffffffffffffffffffffffffffff1681526020019081526020016000208560ff16815481106122e8576122e7614a37565b5b906000526020600020906002020160010160016101000a81548160ff021916908315150217905550423373ffffffffffffffffffffffffffffffffffffffff167fdddb6e14f7f2101397a6526aab95e964de7f1f44ed06aa47a1c9a0e6b992445660405160405180910390a35050505050565b81612365816139ef565b6000600760003373ffffffffffffffffffffffffffffffffffffffff1673ffffffffffffffffffffffffffffffffffffffff1681526020019081526020016000208360ff16815481106123bb576123ba614a37565b5b906000526020600020906002020160010160029054906101000a900461ffff1690506000600660008361ffff1661ffff16815260200190815260200160002060008681526020019081526020016000206040518060600160405290816000820160009054906101000a900460ff1615151515815260200160018201805461244190614a06565b80601f016020809104026020016040519081016040528092919081815260200182805461246d90614a06565b80156124ba5780601f1061248f576101008083540402835291602001916124ba565b820191906000526020600020905b81548152906001019060200180831161249d57829003601f168201915b505050505081526020016002820160009054906101000a900473ffffffffffffffffffffffffffffffffffffffff1673ffffffffffffffffffffffffffffffffffffffff1673ffffffffffffffffffffffffffffffffffffffff16815250509050806000015161255f576040517f08c379a000000000000000000000000000000000000000000000000000000000815260040161255690614dbe565b60405180910390fd5b3373ffffffffffffffffffffffffffffffffffffffff16816040015173ffffffffffffffffffffffffffffffffffffffff16146125d1576040517f08c379a00000000000000000000000000000000000000000000000000000000081526004016125c890614e2a565b60405180910390fd5b60076000826040015173ffffffffffffffffffffffffffffffffffffffff1673ffffffffffffffffffffffffffffffffffffffff1681526020019081526020016000208460ff168154811061262957612628614a37565b5b906000526020600020906002020160010160019054906101000a900460ff16612687576040517f08c379a000000000000000000000000000000000000000000000000000000000815260040161267e90614e96565b60405180910390fd5b60001515600560008461ffff1661ffff16815260200190815260200160002060009054906101000a900460ff161515146126f6576040517f08c379a00000000000000000000000000000000000000000000000000000000081526004016126ed906152f5565b60405180910390fd5b60011515600460008461ffff1661ffff16815260200190815260200160002060010160009054906101000a900460ff16151514612768576040517f08c379a000000000000000000000000000000000000000000000000000000000815260040161275f90614fa2565b60405180910390fd5b856040516020016127799190614f3b565b6040516020818303038152906040528051906020012060001c600460008461ffff1661ffff16815260200190815260200160002060000154146127f1576040517f08c379a00000000000000000000000000000000000000000000000000000000081526004016127e890615361565b60405180910390fd5b6001600560008461ffff1661ffff16815260200190815260200160002060006101000a81548160ff02191690831515021790555042816040015173ffffffffffffffffffffffffffffffffffffffff167f3c3a029638e50549fcf21d2bc98c74b6f2cbc3a0539148a77068067a5fa835d560405160405180910390a3505050505050565b600260009054906101000a900473ffffffffffffffffffffffffffffffffffffffff1673ffffffffffffffffffffffffffffffffffffffff163373ffffffffffffffffffffffffffffffffffffffff1614612905576040517f08c379a00000000000000000000000000000000000000000000000000000000081526004016128fc906153cd565b60405180910390fd5b60008167ffffffffffffffff1611612952576040517f08c379a000000000000000000000000000000000000000000000000000000000815260040161294990615439565b60405180910390fd5b6000600260169054906101000a900467ffffffffffffffff16905081600260166101000a81548167ffffffffffffffff021916908367ffffffffffffffff1602179055508167ffffffffffffffff168167ffffffffffffffff167f77faaf6939a2630a2ba13517d99b9033741224f833291e662af2a4374f75f66060405160405180910390a35050565b60035481565b848061ffff16600011158015612a105750600260149054906101000a900461ffff1661ffff168161ffff1611155b612a4f576040517f08c379a0000000000000000000000000000000000000000000000000000000008152600401612a4690614877565b60405180910390fd5b84848080601f016020809104026020016040519081016040528093929190818152602001838380828437600081840152601f19601f820116905080830192505050505050506000815103612ad8576040517f08c379a0000000000000000000000000000000000000000000000000000000008152600401612acf906154a5565b60405180910390fd5b83612ae2816139ef565b8360008160ff1611612b29576040517f08c379a0000000000000000000000000000000000000000000000000000000008152600401612b2090615511565b60405180910390fd5b60008054906101000a900473ffffffffffffffffffffffffffffffffffffffff1673ffffffffffffffffffffffffffffffffffffffff1663d1df306c33876040518363ffffffff1660e01b8152600401612b84929190614cc2565b600060405180830381600087803b158015612b9e57600080fd5b505af1158015612bb2573d6000803e3d6000fd5b5050505060005b8560ff16811015612daa5760011515600660008c61ffff1661ffff16815260200190815260200160002060008362015180612bf49190614961565b8a612bff91906149a3565b815260200190815260200160002060000160009054906101000a900460ff16151503612c60576040517f08c379a0000000000000000000000000000000000000000000000000000000008152600401612c579061557d565b60405180910390fd5b60405180606001604052806001151581526020018a8a8080601f016020809104026020016040519081016040528093929190818152602001838380828437600081840152601f19601f8201169050808301925050505050505081526020013373ffffffffffffffffffffffffffffffffffffffff16815250600660008c61ffff1661ffff16815260200190815260200160002060008362015180612d049190614961565b8a612d0f91906149a3565b815260200190815260200160002060008201518160000160006101000a81548160ff0219169083151502179055506020820151816001019081612d52919061573f565b5060408201518160020160006101000a81548173ffffffffffffffffffffffffffffffffffffffff021916908373ffffffffffffffffffffffffffffffffffffffff1602179055509050508080600101915050612bb9565b50600760003373ffffffffffffffffffffffffffffffffffffffff1673ffffffffffffffffffffffffffffffffffffffff16815260200190815260200160002060405180608001604052808881526020018760ff1681526020016000151581526020018b61ffff1681525090806001815401808255809150506001900390600052602060002090600202016000909190919091506000820151816000015560208201518160010160006101000a81548160ff021916908360ff16021790555060408201518160010160016101000a81548160ff02191690831515021790555060608201518160010160026101000a81548161ffff021916908361ffff16021790555050508460ff16863373ffffffffffffffffffffffffffffffffffffffff167fc5a2baf4d2037971b8ab82e24faec0484f144dab6377694d628ce3e3ef35e7b48c604051612ef99190614752565b60405180910390a4505050505050505050565b60056020528060005260406000206000915054906101000a900460ff1681565b600260009054906101000a900473ffffffffffffffffffffffffffffffffffffffff1681565b612f5a613d21565b600760003373ffffffffffffffffffffffffffffffffffffffff1673ffffffffffffffffffffffffffffffffffffffff1681526020019081526020016000208260ff1681548110612fae57612fad614a37565b5b9060005260206000209060020201604051806080016040529081600082015481526020016001820160009054906101000a900460ff1660ff1660ff1681526020016001820160019054906101000a900460ff161515151581526020016001820160029054906101000a900461ffff1661ffff1661ffff16815250509050919050565b8161303a816139ef565b6000600760003373ffffffffffffffffffffffffffffffffffffffff1673ffffffffffffffffffffffffffffffffffffffff1681526020019081526020016000208360ff16815481106130905761308f614a37565b5b906000526020600020906002020160010160029054906101000a900461ffff1690506000600660008361ffff1661ffff16815260200190815260200160002060008681526020019081526020016000206040518060600160405290816000820160009054906101000a900460ff1615151515815260200160018201805461311690614a06565b80601f016020809104026020016040519081016040528092919081815260200182805461314290614a06565b801561318f5780601f106131645761010080835404028352916020019161318f565b820191906000526020600020905b81548152906001019060200180831161317257829003601f168201915b505050505081526020016002820160009054906101000a900473ffffffffffffffffffffffffffffffffffffffff1673ffffffffffffffffffffffffffffffffffffffff1673ffffffffffffffffffffffffffffffffffffffff168152505090508060000151613234576040517f08c379a000000000000000000000000000000000000000000000000000000000815260040161322b90614dbe565b60405180910390fd5b3373ffffffffffffffffffffffffffffffffffffffff16816040015173ffffffffffffffffffffffffffffffffffffffff16146132a6576040517f08c379a000000000000000000000000000000000000000000000000000000000815260040161329d90614e2a565b60405180910390fd5b60011515600760003373ffffffffffffffffffffffffffffffffffffffff1673ffffffffffffffffffffffffffffffffffffffff1681526020019081526020016000208560ff16815481106132fe576132fd614a37565b5b906000526020600020906002020160010160019054906101000a900460ff1615151461335f576040517f08c379a000000000000000000000000000000000000000000000000000000000815260040161335690614e96565b60405180910390fd5b6000600460008461ffff1661ffff16815260200190815260200160002060010160006101000a81548160ff0219169083151502179055506000600760003373ffffffffffffffffffffffffffffffffffffffff1673ffffffffffffffffffffffffffffffffffffffff1681526020019081526020016000208560ff16815481106133ec576133eb614a37565b5b906000526020600020906002020160010160016101000a81548160ff02191690831515021790555061341d84613a3f565b423373ffffffffffffffffffffffffffffffffffffffff167f5f56f72b1cd7de6f6d20a960c3287ccb7d1acbc0e44f96885c6ab556eae102ea60405160405180910390a35050505050565b600260149054906101000a900461ffff1681565b6007602052816000526040600020818154811061349857600080fd5b9060005260206000209060020201600091509150508060000154908060010160009054906101000a900460ff16908060010160019054906101000a900460ff16908060010160029054906101000a900461ffff16905084565b816134fb816139ef565b6000600760003373ffffffffffffffffffffffffffffffffffffffff1673ffffffffffffffffffffffffffffffffffffffff1681526020019081526020016000208360ff168154811061355157613550614a37565b5b906000526020600020906002020160010160029054906101000a900461ffff1690506000600660008361ffff1661ffff16815260200190815260200160002060008681526020019081526020016000206040518060600160405290816000820160009054906101000a900460ff161515151581526020016001820180546135d790614a06565b80601f016020809104026020016040519081016040528092919081815260200182805461360390614a06565b80156136505780601f1061362557610100808354040283529160200191613650565b820191906000526020600020905b81548152906001019060200180831161363357829003601f168201915b505050505081526020016002820160009054906101000a900473ffffffffffffffffffffffffffffffffffffffff1673ffffffffffffffffffffffffffffffffffffffff1673ffffffffffffffffffffffffffffffffffffffff1681525050905080600001516136f5576040517f08c379a00000000000000000000000000000000000000000000000000000000081526004016136ec90614dbe565b60405180910390fd5b3373ffffffffffffffffffffffffffffffffffffffff16816040015173ffffffffffffffffffffffffffffffffffffffff1614613767576040517f08c379a000000000000000000000000000000000000000000000000000000000815260040161375e90614e2a565b60405180910390fd5b60076000826040015173ffffffffffffffffffffffffffffffffffffffff1673ffffffffffffffffffffffffffffffffffffffff1681526020019081526020016000208460ff16815481106137bf576137be614a37565b5b906000526020600020906002020160010160019054906101000a900460ff1661381d576040517f08c379a000000000000000000000000000000000000000000000000000000000815260040161381490614e96565b60405180910390fd5b60011515600560008461ffff1661ffff16815260200190815260200160002060009054906101000a900460ff1615151461388c576040517f08c379a00000000000000000000000000000000000000000000000000000000081526004016138839061585d565b60405180910390fd5b60011515600460008461ffff1661ffff16815260200190815260200160002060010160009054906101000a900460ff161515146138fe576040517f08c379a00000000000000000000000000000000000000000000000000000000081526004016138f590614fa2565b60405180910390fd5b6000600560008461ffff1661ffff16815260200190815260200160002060006101000a81548160ff02191690831515021790555042816040015173ffffffffffffffffffffffffffffffffffffffff167fe85a5ce681f084327d67d7953b5e80a0b2a6d1150ca58b700b61259d7276ae3d60405160405180910390a35050505050565b600260169054906101000a900467ffffffffffffffff1681565b600062015180826139ac91906158ac565b146139ec576040517f08c379a00000000000000000000000000000000000000000000000000000000081526004016139e390615929565b60405180910390fd5b50565b6003548111613a33576040517f08c379a0000000000000000000000000000000000000000000000000000000008152600401613a2a90615995565b60405180910390fd5b613a3c8161399b565b50565b600760003373ffffffffffffffffffffffffffffffffffffffff1673ffffffffffffffffffffffffffffffffffffffff168152602001908152602001600020805490508160ff1610613a9057600080fd5b600760003373ffffffffffffffffffffffffffffffffffffffff1673ffffffffffffffffffffffffffffffffffffffff1681526020019081526020016000206001600760003373ffffffffffffffffffffffffffffffffffffffff1673ffffffffffffffffffffffffffffffffffffffff16815260200190815260200160002080549050613b1e91906151c5565b81548110613b2f57613b2e614a37565b5b9060005260206000209060020201600760003373ffffffffffffffffffffffffffffffffffffffff1673ffffffffffffffffffffffffffffffffffffffff1681526020019081526020016000208260ff1681548110613b9157613b90614a37565b5b9060005260206000209060020201600082015481600001556001820160009054906101000a900460ff168160010160006101000a81548160ff021916908360ff1602179055506001820160019054906101000a900460ff168160010160016101000a81548160ff0219169083151502179055506001820160029054906101000a900461ffff168160010160026101000a81548161ffff021916908361ffff160217905550905050600760003373ffffffffffffffffffffffffffffffffffffffff1673ffffffffffffffffffffffffffffffffffffffff168152602001908152602001600020805480613c8757613c866159b5565b5b60019003818190600052602060002090600202016000808201600090556001820160006101000a81549060ff02191690556001820160016101000a81549060ff02191690556001820160026101000a81549061ffff02191690555050905550565b604051806060016040528060001515815260200160608152602001600073ffffffffffffffffffffffffffffffffffffffff1681525090565b604051806080016040528060008152602001600060ff168152602001600015158152602001600061ffff1681525090565b600080fd5b600080fd5b600061ffff82169050919050565b613d7381613d5c565b8114613d7e57600080fd5b50565b600081359050613d9081613d6a565b92915050565b6000819050919050565b613da981613d96565b8114613db457600080fd5b50565b600081359050613dc681613da0565b92915050565b600060ff82169050919050565b613de281613dcc565b8114613ded57600080fd5b50565b600081359050613dff81613dd9565b92915050565b600080600060608486031215613e1e57613e1d613d52565b5b6000613e2c86828701613d81565b9350506020613e3d86828701613db7565b9250506040613e4e86828701613df0565b9150509250925092565b600081519050919050565b600082825260208201905092915050565b6000819050602082019050919050565b613e8d81613d96565b82525050565b6000613e9f8383613e84565b60208301905092915050565b6000602082019050919050565b6000613ec382613e58565b613ecd8185613e63565b9350613ed883613e74565b8060005b83811015613f09578151613ef08882613e93565b9750613efb83613eab565b925050600181019050613edc565b5085935050505092915050565b60006020820190508181036000830152613f308184613eb8565b905092915050565b600081519050919050565b600082825260208201905092915050565b60005b83811015613f72578082015181840152602081019050613f57565b60008484015250505050565b6000601f19601f8301169050919050565b6000613f9a82613f38565b613fa48185613f43565b9350613fb4818560208601613f54565b613fbd81613f7e565b840191505092915050565b60006020820190508181036000830152613fe28184613f8f565b905092915050565b60006020828403121561400057613fff613d52565b5b600061400e84828501613df0565b91505092915050565b600080fd5b60008190508260206006028201111561403857614037614017565b5b92915050565b6000806000610100848603121561405857614057613d52565b5b60006140668682870161401c565b93505060c061407786828701613db7565b92505060e061408886828701613df0565b9150509250925092565b600080604083850312156140a9576140a8613d52565b5b60006140b785828601613db7565b92505060206140c885828601613df0565b9150509250929050565b6000806000606084860312156140eb576140ea613d52565b5b60006140f986828701613d81565b935050602061410a86828701613df0565b925050604061411b86828701613df0565b9150509250925092565b61412e81613d96565b82525050565b60006020820190506141496000830184614125565b92915050565b6000806040838503121561416657614165613d52565b5b600061417485828601613d81565b925050602061418585828601613db7565b9150509250929050565b60008115159050919050565b6141a48161418f565b82525050565b600082825260208201905092915050565b60006141c682613f38565b6141d081856141aa565b93506141e0818560208601613f54565b6141e981613f7e565b840191505092915050565b600073ffffffffffffffffffffffffffffffffffffffff82169050919050565b600061421f826141f4565b9050919050565b61422f81614214565b82525050565b600060608301600083015161424d600086018261419b565b506020830151848203602086015261426582826141bb565b915050604083015161427a6040860182614226565b508091505092915050565b6000602082019050818103600083015261429f8184614235565b905092915050565b6000602082840312156142bd576142bc613d52565b5b60006142cb84828501613d81565b91505092915050565b6142dd8161418f565b82525050565b60006020820190506142f860008301846142d4565b92915050565b60006020828403121561431457614313613d52565b5b600061432284828501613db7565b91505092915050565b61433481614214565b811461433f57600080fd5b50565b6000813590506143518161432b565b92915050565b60006020828403121561436d5761436c613d52565b5b600061437b84828501614342565b91505092915050565b6000819050919050565b60006143a96143a461439f846141f4565b614384565b6141f4565b9050919050565b60006143bb8261438e565b9050919050565b60006143cd826143b0565b9050919050565b6143dd816143c2565b82525050565b60006020820190506143f860008301846143d4565b92915050565b600081519050919050565b600082825260208201905092915050565b6000819050602082019050919050565b61443381613dcc565b82525050565b61444281613d5c565b82525050565b60808201600082015161445e6000850182613e84565b506020820151614471602085018261442a565b506040820151614484604085018261419b565b5060608201516144976060850182614439565b50505050565b60006144a98383614448565b60808301905092915050565b6000602082019050919050565b60006144cd826143fe565b6144d78185614409565b93506144e28361441a565b8060005b838110156145135781516144fa888261449d565b9750614505836144b5565b9250506001810190506144e6565b5085935050505092915050565b6000602082019050818103600083015261453a81846144c2565b905092915050565b600067ffffffffffffffff82169050919050565b61455f81614542565b811461456a57600080fd5b50565b60008135905061457c81614556565b92915050565b60006020828403121561459857614597613d52565b5b60006145a68482850161456d565b91505092915050565b600080fd5b600080fd5b60008083601f8401126145cf576145ce6145af565b5b8235905067ffffffffffffffff8111156145ec576145eb6145b4565b5b60208301915083600182028301111561460857614607614017565b5b9250929050565b60008060008060006080868803121561462b5761462a613d52565b5b600061463988828901613d81565b955050602086013567ffffffffffffffff81111561465a57614659613d57565b5b614666888289016145b9565b9450945050604061467988828901613db7565b925050606061468a88828901613df0565b9150509295509295909350565b60006146a2826141f4565b9050919050565b6146b281614697565b82525050565b60006020820190506146cd60008301846146a9565b92915050565b6080820160008201516146e96000850182613e84565b5060208201516146fc602085018261442a565b50604082015161470f604085018261419b565b5060608201516147226060850182614439565b50505050565b600060808201905061473d60008301846146d3565b92915050565b61474c81613d5c565b82525050565b60006020820190506147676000830184614743565b92915050565b6000806040838503121561478457614783613d52565b5b600061479285828601614342565b92505060206147a385828601613db7565b9150509250929050565b6147b681613dcc565b82525050565b60006080820190506147d16000830187614125565b6147de60208301866147ad565b6147eb60408301856142d4565b6147f86060830184614743565b95945050505050565b61480a81614542565b82525050565b60006020820190506148256000830184614801565b92915050565b7f496e76616c696420726f6f6d2049640000000000000000000000000000000000600082015250565b6000614861600f83613f43565b915061486c8261482b565b602082019050919050565b6000602082019050818103600083015261489081614854565b9050919050565b7f312d333635000000000000000000000000000000000000000000000000000000600082015250565b60006148cd600583613f43565b91506148d882614897565b602082019050919050565b600060208201905081810360008301526148fc816148c0565b9050919050565b7f4e487b7100000000000000000000000000000000000000000000000000000000600052604160045260246000fd5b7f4e487b7100000000000000000000000000000000000000000000000000000000600052601160045260246000fd5b600061496c82613d96565b915061497783613d96565b925082820261498581613d96565b9150828204841483151761499c5761499b614932565b5b5092915050565b60006149ae82613d96565b91506149b983613d96565b92508282019050808211156149d1576149d0614932565b5b92915050565b7f4e487b7100000000000000000000000000000000000000000000000000000000600052602260045260246000fd5b60006002820490506001821680614a1e57607f821691505b602082108103614a3157614a306149d7565b5b50919050565b7f4e487b7100000000000000000000000000000000000000000000000000000000600052603260045260246000fd5b7f596f75206861766520616c726561647920636865636b656420696e0000000000600082015250565b6000614a9c601b83613f43565b9150614aa782614a66565b602082019050919050565b60006020820190508181036000830152614acb81614a8f565b9050919050565b7f6e6f20626f6f6b696e6720666f756e6400000000000000000000000000000000600082015250565b6000614b08601083613f43565b9150614b1382614ad2565b602082019050919050565b60006020820190508181036000830152614b3781614afb565b9050919050565b7f63616e6e6f742063616e63656c206576656e747320696e207468652070617374600082015250565b6000614b74602083613f43565b9150614b7f82614b3e565b602082019050919050565b60006020820190508181036000830152614ba381614b67565b9050919050565b7f6e6f74206578697374206170706f000000000000000000000000000000000000600082015250565b6000614be0600e83613f43565b9150614beb82614baa565b602082019050919050565b60006020820190508181036000830152614c0f81614bd3565b9050919050565b7f596f7520686176656e2774206170706f00000000000000000000000000000000600082015250565b6000614c4c601083613f43565b9150614c5782614c16565b602082019050919050565b60006020820190508181036000830152614c7b81614c3f565b9050919050565b614c8b81614214565b82525050565b6000614cac614ca7614ca284613dcc565b614384565b613d96565b9050919050565b614cbc81614c91565b82525050565b6000604082019050614cd76000830185614c82565b614ce46020830184614cb3565b9392505050565b6000602082019050614d0060008301846147ad565b92915050565b7f596f75206861766520616c726561647920736574207061737300000000000000600082015250565b6000614d3c601983613f43565b9150614d4782614d06565b602082019050919050565b60006020820190508181036000830152614d6b81614d2f565b9050919050565b7f4e6f206170706f20657869737473000000000000000000000000000000000000600082015250565b6000614da8600e83613f43565b9150614db382614d72565b602082019050919050565b60006020820190508181036000830152614dd781614d9b565b9050919050565b7f596f752068617665206e6f206170706f00000000000000000000000000000000600082015250565b6000614e14601083613f43565b9150614e1f82614dde565b602082019050919050565b60006020820190508181036000830152614e4381614e07565b9050919050565b7f596f752068617665206e6f7420636865636b656420696e000000000000000000600082015250565b6000614e80601783613f43565b9150614e8b82614e4a565b602082019050919050565b60006020820190508181036000830152614eaf81614e73565b9050919050565b7f70617373776f7264206d75737420626520366e756d0000000000000000000000600082015250565b6000614eec601583613f43565b9150614ef782614eb6565b602082019050919050565b60006020820190508181036000830152614f1b81614edf565b9050919050565b82818337505050565b614f3760c08383614f22565b5050565b6000614f478284614f2b565b60c08201915081905092915050565b7f506c656173652073657420796f75722070617373776f72640000000000000000600082015250565b6000614f8c601883613f43565b9150614f9782614f56565b602082019050919050565b60006020820190508181036000830152614fbb81614f7f565b9050919050565b6000606082019050614fd76000830186614743565b614fe460208301856147ad565b614ff160408301846147ad565b949350505050565b60008151905061500881613da0565b92915050565b60006020828403121561502457615023613d52565b5b600061503284828501614ff9565b91505092915050565b7f6e6f206574686572000000000000000000000000000000000000000000000000600082015250565b6000615071600883613f43565b915061507c8261503b565b602082019050919050565b600060208201905081810360008301526150a081615064565b9050919050565b7f6e6f7420656e6f75676820657468657200000000000000000000000000000000600082015250565b60006150dd601083613f43565b91506150e8826150a7565b602082019050919050565b6000602082019050818103600083015261510c816150d0565b9050919050565b600081905092915050565b50565b600061512e600083615113565b91506151398261511e565b600082019050919050565b600061514f82615121565b9150819050919050565b7f4661696c656420746f2073656e64000000000000000000000000000000000000600082015250565b600061518f600e83613f43565b915061519a82615159565b602082019050919050565b600060208201905081810360008301526151be81615182565b9050919050565b60006151d082613d96565b91506151db83613d96565b92508282039050818111156151f3576151f2614932565b5b92915050565b600060408201905061520e6000830185614c82565b61521b6020830184614125565b9392505050565b60006020820190506152376000830184614c82565b92915050565b7f616c726561647920636865636b656420696e0000000000000000000000000000600082015250565b6000615273601283613f43565b915061527e8261523d565b602082019050919050565b600060208201905081810360008301526152a281615266565b9050919050565b7f616c7265616479206f70656e6564000000000000000000000000000000000000600082015250565b60006152df600e83613f43565b91506152ea826152a9565b602082019050919050565b6000602082019050818103600083015261530e816152d2565b9050919050565b7f696e636f72726563742070617373776f72640000000000000000000000000000600082015250565b600061534b601283613f43565b915061535682615315565b602082019050919050565b6000602082019050818103600083015261537a8161533e565b9050919050565b7f6f6e6c79206f776e657200000000000000000000000000000000000000000000600082015250565b60006153b7600a83613f43565b91506153c282615381565b602082019050919050565b600060208201905081810360008301526153e6816153aa565b9050919050565b7f61626f7665207a65726f00000000000000000000000000000000000000000000600082015250565b6000615423600a83613f43565b915061542e826153ed565b602082019050919050565b6000602082019050818103600083015261545281615416565b9050919050565b7f626c616e6b000000000000000000000000000000000000000000000000000000600082015250565b600061548f600583613f43565b915061549a82615459565b602082019050919050565b600060208201905081810360008301526154be81615482565b9050919050565b7f61626f7665203000000000000000000000000000000000000000000000000000600082015250565b60006154fb600783613f43565b9150615506826154c5565b602082019050919050565b6000602082019050818103600083015261552a816154ee565b9050919050565b7f4170706f696e746d656e7420616c726561647920657869737473000000000000600082015250565b6000615567601a83613f43565b915061557282615531565b602082019050919050565b600060208201905081810360008301526155968161555a565b9050919050565b60008190508160005260206000209050919050565b60006020601f8301049050919050565b600082821b905092915050565b6000600883026155ff7fffffffffffffffffffffffffffffffffffffffffffffffffffffffffffffffff826155c2565b61560986836155c2565b95508019841693508086168417925050509392505050565b600061563c61563761563284613d96565b614384565b613d96565b9050919050565b6000819050919050565b61565683615621565b61566a61566282615643565b8484546155cf565b825550505050565b600090565b61567f615672565b61568a81848461564d565b505050565b5b818110156156ae576156a3600082615677565b600181019050615690565b5050565b601f8211156156f3576156c48161559d565b6156cd846155b2565b810160208510156156dc578190505b6156f06156e8856155b2565b83018261568f565b50505b505050565b600082821c905092915050565b6000615716600019846008026156f8565b1980831691505092915050565b600061572f8383615705565b9150826002028217905092915050565b61574882613f38565b67ffffffffffffffff81111561576157615760614903565b5b61576b8254614a06565b6157768282856156b2565b600060209050601f8311600181146157a95760008415615797578287015190505b6157a18582615723565b865550615809565b601f1984166157b78661559d565b60005b828110156157df578489015182556001820191506020850194506020810190506157ba565b868310156157fc57848901516157f8601f891682615705565b8355505b6001600288020188555050505b505050505050565b7f616c726561647920636c6f736564000000000000000000000000000000000000600082015250565b6000615847600e83613f43565b915061585282615811565b602082019050919050565b600060208201905081810360008301526158768161583a565b9050919050565b7f4e487b7100000000000000000000000000000000000000000000000000000000600052601260045260246000fd5b60006158b782613d96565b91506158c283613d96565b9250826158d2576158d161587d565b5b828206905092915050565b7f6d6f642038363430300000000000000000000000000000000000000000000000600082015250565b6000615913600983613f43565b915061591e826158dd565b602082019050919050565b6000602082019050818103600083015261594281615906565b9050919050565b7f6265666f7265206465706c6f7900000000000000000000000000000000000000600082015250565b600061597f600d83613f43565b915061598a82615949565b602082019050919050565b600060208201905081810360008301526159ae81615972565b9050919050565b7f4e487b7100000000000000000000000000000000000000000000000000000000600052603160045260246000fdfea2646970667358221220f88cfd04620378713b5b0335fc642af7b28dc9a424407aada2444bfb4d70031264736f6c634300081300336080604052604051620016ae380380620016ae83398181016040528101906200002991906200016d565b6040518060400160405280600a81526020017f486f74656c546f6b656e000000000000000000000000000000000000000000008152506040518060400160405280600381526020017f48546f00000000000000000000000000000000000000000000000000000000008152508160039081620000a6919062000419565b508060049081620000b8919062000419565b50505080600560006101000a81548173ffffffffffffffffffffffffffffffffffffffff021916908373ffffffffffffffffffffffffffffffffffffffff1602179055505062000500565b600080fd5b600073ffffffffffffffffffffffffffffffffffffffff82169050919050565b6000620001358262000108565b9050919050565b620001478162000128565b81146200015357600080fd5b50565b60008151905062000167816200013c565b92915050565b60006020828403121562000186576200018562000103565b5b6000620001968482850162000156565b91505092915050565b600081519050919050565b7f4e487b7100000000000000000000000000000000000000000000000000000000600052604160045260246000fd5b7f4e487b7100000000000000000000000000000000000000000000000000000000600052602260045260246000fd5b600060028204905060018216806200022157607f821691505b602082108103620002375762000236620001d9565b5b50919050565b60008190508160005260206000209050919050565b60006020601f8301049050919050565b600082821b905092915050565b600060088302620002a17fffffffffffffffffffffffffffffffffffffffffffffffffffffffffffffffff8262000262565b620002ad868362000262565b95508019841693508086168417925050509392505050565b6000819050919050565b6000819050919050565b6000620002fa620002f4620002ee84620002c5565b620002cf565b620002c5565b9050919050565b6000819050919050565b6200031683620002d9565b6200032e620003258262000301565b8484546200026f565b825550505050565b600090565b6200034562000336565b620003528184846200030b565b505050565b5b818110156200037a576200036e6000826200033b565b60018101905062000358565b5050565b601f821115620003c95762000393816200023d565b6200039e8462000252565b81016020851015620003ae578190505b620003c6620003bd8562000252565b83018262000357565b50505b505050565b600082821c905092915050565b6000620003ee60001984600802620003ce565b1980831691505092915050565b6000620004098383620003db565b9150826002028217905092915050565b62000424826200019f565b67ffffffffffffffff81111562000440576200043f620001aa565b5b6200044c825462000208565b620004598282856200037e565b600060209050601f8311600181146200049157600084156200047c578287015190505b620004888582620003fb565b865550620004f8565b601f198416620004a1866200023d565b60005b82811015620004cb57848901518255600182019150602085019450602081019050620004a4565b86831015620004eb5784890151620004e7601f891682620003db565b8355505b6001600288020188555050505b505050505050565b61119e80620005106000396000f3fe608060405234801561001057600080fd5b50600436106100b45760003560e01c806379c650681161007157806379c65068146101a35780638da5cb5b146101bf57806395d89b41146101dd578063a9059cbb146101fb578063d1df306c1461022b578063dd62ed3e14610247576100b4565b806306fdde03146100b9578063095ea7b3146100d757806318160ddd1461010757806323b872dd14610125578063313ce5671461015557806370a0823114610173575b600080fd5b6100c1610277565b6040516100ce9190610d86565b60405180910390f35b6100f160048036038101906100ec9190610e41565b610309565b6040516100fe9190610e9c565b60405180910390f35b61010f61032c565b60405161011c9190610ec6565b60405180910390f35b61013f600480360381019061013a9190610ee1565b610336565b60405161014c9190610e9c565b60405180910390f35b61015d610365565b60405161016a9190610f50565b60405180910390f35b61018d60048036038101906101889190610f6b565b61036e565b60405161019a9190610ec6565b60405180910390f35b6101bd60048036038101906101b89190610e41565b6103b6565b005b6101c7610454565b6040516101d49190610fa7565b60405180910390f35b6101e561047a565b6040516101f29190610d86565b60405180910390f35b61021560048036038101906102109190610e41565b61050c565b6040516102229190610e9c565b60405180910390f35b61024560048036038101906102409190610e41565b61052f565b005b610261600480360381019061025c9190610fc2565b6105cd565b60405161026e9190610ec6565b60405180910390f35b60606003805461028690611031565b80601f01602080910402602001604051908101604052809291908181526020018280546102b290611031565b80156102ff5780601f106102d4576101008083540402835291602001916102ff565b820191906000526020600020905b8154815290600101906020018083116102e257829003601f168201915b5050505050905090565b600080610314610654565b905061032181858561065c565b600191505092915050565b6000600254905090565b600080610341610654565b905061034e85828561066e565b610359858585610702565b60019150509392505050565b60006012905090565b60008060008373ffffffffffffffffffffffffffffffffffffffff1673ffffffffffffffffffffffffffffffffffffffff168152602001908152602001600020549050919050565b600560009054906101000a900473ffffffffffffffffffffffffffffffffffffffff1673ffffffffffffffffffffffffffffffffffffffff163373ffffffffffffffffffffffffffffffffffffffff1614610446576040517f08c379a000000000000000000000000000000000000000000000000000000000815260040161043d906110ae565b60405180910390fd5b61045082826107f6565b5050565b600560009054906101000a900473ffffffffffffffffffffffffffffffffffffffff1681565b60606004805461048990611031565b80601f01602080910402602001604051908101604052809291908181526020018280546104b590611031565b80156105025780601f106104d757610100808354040283529160200191610502565b820191906000526020600020905b8154815290600101906020018083116104e557829003601f168201915b5050505050905090565b600080610517610654565b9050610524818585610702565b600191505092915050565b600560009054906101000a900473ffffffffffffffffffffffffffffffffffffffff1673ffffffffffffffffffffffffffffffffffffffff163373ffffffffffffffffffffffffffffffffffffffff16146105bf576040517f08c379a00000000000000000000000000000000000000000000000000000000081526004016105b6906110ae565b60405180910390fd5b6105c98282610878565b5050565b6000600160008473ffffffffffffffffffffffffffffffffffffffff1673ffffffffffffffffffffffffffffffffffffffff16815260200190815260200160002060008373ffffffffffffffffffffffffffffffffffffffff1673ffffffffffffffffffffffffffffffffffffffff16815260200190815260200160002054905092915050565b600033905090565b61066983838360016108fa565b505050565b600061067a84846105cd565b90507fffffffffffffffffffffffffffffffffffffffffffffffffffffffffffffffff81146106fc57818110156106ec578281836040517ffb8f41b20000000000000000000000000000000000000000000000000000000081526004016106e3939291906110ce565b60405180910390fd5b6106fb848484840360006108fa565b5b50505050565b600073ffffffffffffffffffffffffffffffffffffffff168373ffffffffffffffffffffffffffffffffffffffff16036107745760006040517f96c6fd1e00000000000000000000000000000000000000000000000000000000815260040161076b9190610fa7565b60405180910390fd5b600073ffffffffffffffffffffffffffffffffffffffff168273ffffffffffffffffffffffffffffffffffffffff16036107e65760006040517fec442f050000000000000000000000000000000000000000000000000000000081526004016107dd9190610fa7565b60405180910390fd5b6107f1838383610ad1565b505050565b600073ffffffffffffffffffffffffffffffffffffffff168273ffffffffffffffffffffffffffffffffffffffff16036108685760006040517fec442f0500000000000000000000000000000000000000000000000000000000815260040161085f9190610fa7565b60405180910390fd5b61087460008383610ad1565b5050565b600073ffffffffffffffffffffffffffffffffffffffff168273ffffffffffffffffffffffffffffffffffffffff16036108ea5760006040517f96c6fd1e0000000000000000000000000000000000000000000000000000000081526004016108e19190610fa7565b60405180910390fd5b6108f682600083610ad1565b5050565b600073ffffffffffffffffffffffffffffffffffffffff168473ffffffffffffffffffffffffffffffffffffffff160361096c5760006040517fe602df050000000000000000000000000000000000000000000000000000000081526004016109639190610fa7565b60405180910390fd5b600073ffffffffffffffffffffffffffffffffffffffff168373ffffffffffffffffffffffffffffffffffffffff16036109de5760006040517f94280d620000000000000000000000000000000000000000000000000000000081526004016109d59190610fa7565b60405180910390fd5b81600160008673ffffffffffffffffffffffffffffffffffffffff1673ffffffffffffffffffffffffffffffffffffffff16815260200190815260200160002060008573ffffffffffffffffffffffffffffffffffffffff1673ffffffffffffffffffffffffffffffffffffffff168152602001908152602001600020819055508015610acb578273ffffffffffffffffffffffffffffffffffffffff168473ffffffffffffffffffffffffffffffffffffffff167f8c5be1e5ebec7d5bd14f71427d1e84f3dd0314c0f7b2291e5b200ac8c7c3b92584604051610ac29190610ec6565b60405180910390a35b50505050565b600073ffffffffffffffffffffffffffffffffffffffff168373ffffffffffffffffffffffffffffffffffffffff1603610b23578060026000828254610b179190611134565b92505081905550610bf6565b60008060008573ffffffffffffffffffffffffffffffffffffffff1673ffffffffffffffffffffffffffffffffffffffff16815260200190815260200160002054905081811015610baf578381836040517fe450d38c000000000000000000000000000000000000000000000000000000008152600401610ba6939291906110ce565b60405180910390fd5b8181036000808673ffffffffffffffffffffffffffffffffffffffff1673ffffffffffffffffffffffffffffffffffffffff16815260200190815260200160002081905550505b600073ffffffffffffffffffffffffffffffffffffffff168273ffffffffffffffffffffffffffffffffffffffff1603610c3f5780600260008282540392505081905550610c8c565b806000808473ffffffffffffffffffffffffffffffffffffffff1673ffffffffffffffffffffffffffffffffffffffff168152602001908152602001600020600082825401925050819055505b8173ffffffffffffffffffffffffffffffffffffffff168373ffffffffffffffffffffffffffffffffffffffff167fddf252ad1be2c89b69c2b068fc378daa952ba7f163c4a11628f55a4df523b3ef83604051610ce99190610ec6565b60405180910390a3505050565b600081519050919050565b600082825260208201905092915050565b60005b83811015610d30578082015181840152602081019050610d15565b60008484015250505050565b6000601f19601f8301169050919050565b6000610d5882610cf6565b610d628185610d01565b9350610d72818560208601610d12565b610d7b81610d3c565b840191505092915050565b60006020820190508181036000830152610da08184610d4d565b905092915050565b600080fd5b600073ffffffffffffffffffffffffffffffffffffffff82169050919050565b6000610dd882610dad565b9050919050565b610de881610dcd565b8114610df357600080fd5b50565b600081359050610e0581610ddf565b92915050565b6000819050919050565b610e1e81610e0b565b8114610e2957600080fd5b50565b600081359050610e3b81610e15565b92915050565b60008060408385031215610e5857610e57610da8565b5b6000610e6685828601610df6565b9250506020610e7785828601610e2c565b9150509250929050565b60008115159050919050565b610e9681610e81565b82525050565b6000602082019050610eb16000830184610e8d565b92915050565b610ec081610e0b565b82525050565b6000602082019050610edb6000830184610eb7565b92915050565b600080600060608486031215610efa57610ef9610da8565b5b6000610f0886828701610df6565b9350506020610f1986828701610df6565b9250506040610f2a86828701610e2c565b9150509250925092565b600060ff82169050919050565b610f4a81610f34565b82525050565b6000602082019050610f656000830184610f41565b92915050565b600060208284031215610f8157610f80610da8565b5b6000610f8f84828501610df6565b91505092915050565b610fa181610dcd565b82525050565b6000602082019050610fbc6000830184610f98565b92915050565b60008060408385031215610fd957610fd8610da8565b5b6000610fe785828601610df6565b9250506020610ff885828601610df6565b9150509250929050565b7f4e487b7100000000000000000000000000000000000000000000000000000000600052602260045260246000fd5b6000600282049050600182168061104957607f821691505b60208210810361105c5761105b611002565b5b50919050565b7f6f776e657220726573747269637465642066756e74696f6e616c697479000000600082015250565b6000611098601d83610d01565b91506110a382611062565b602082019050919050565b600060208201905081810360008301526110c78161108b565b9050919050565b60006060820190506110e36000830186610f98565b6110f06020830185610eb7565b6110fd6040830184610eb7565b949350505050565b7f4e487b7100000000000000000000000000000000000000000000000000000000600052601160045260246000fd5b600061113f82610e0b565b915061114a83610e0b565b925082820190508082111561116257611161611105565b5b9291505056fea26469706673582212208f2e6f5d0dbced846901909d3cfb985dfc2c326672543bffe812f1d4043f970d64736f6c63430008130033608060405234801561001057600080fd5b506108c6806100206000396000f3fe608060405234801561001057600080fd5b50600436106100415760003560e01c80638c8d98a014610046578063a6f0e57714610076578063ebba3c4f146100a6575b600080fd5b610060600480360381019061005b919061051f565b6100d6565b60405161006d919061058b565b60405180910390f35b610090600480360381019061008b91906105a6565b6103f2565b60405161009d91906105ee565b60405180910390f35b6100c060048036038101906100bb9190610635565b610461565b6040516100cd919061058b565b60405180910390f35b6000806107b290505b8461ffff168161ffff16101561013a576100f8816103f2565b15610114576301e285008261010d9190610691565b9150610127565b6301e13380826101249190610691565b91505b8080610132906106c5565b9150506100df565b610142610484565b601f816000600c8110610158576101576106ef565b5b602002019060ff16908160ff1681525050610172866103f2565b156101a357601d816001600c811061018d5761018c6106ef565b5b602002019060ff16908160ff16815250506101cb565b601c816001600c81106101b9576101b86106ef565b5b602002019060ff16908160ff16815250505b601f816002600c81106101e1576101e06106ef565b5b602002019060ff16908160ff1681525050601e816003600c8110610208576102076106ef565b5b602002019060ff16908160ff1681525050601f816004600c811061022f5761022e6106ef565b5b602002019060ff16908160ff1681525050601e816005600c8110610256576102556106ef565b5b602002019060ff16908160ff1681525050601f816006600c811061027d5761027c6106ef565b5b602002019060ff16908160ff1681525050601f816007600c81106102a4576102a36106ef565b5b602002019060ff16908160ff1681525050601e816008600c81106102cb576102ca6106ef565b5b602002019060ff16908160ff1681525050601f816009600c81106102f2576102f16106ef565b5b602002019060ff16908160ff1681525050601e81600a600c8110610319576103186106ef565b5b602002019060ff16908160ff1681525050601f81600b600c81106103405761033f6106ef565b5b602002019060ff16908160ff1681525050600191505b8460ff168261ffff1610156103be5780600183610373919061071e565b61ffff16600c8110610388576103876106ef565b5b602002015160ff166201518061039e9190610754565b836103a99190610691565b925081806103b6906106c5565b925050610356565b6001846103cb9190610796565b60ff16620151806103dc9190610754565b836103e79190610691565b925050509392505050565b60008060048361040291906107fa565b61ffff1614610414576000905061045c565b600060648361042391906107fa565b61ffff1614610435576001905061045c565b60006101908361044591906107fa565b61ffff1614610457576000905061045c565b600190505b919050565b60006201518082610472919061082b565b8261047d919061085c565b9050919050565b604051806101800160405280600c90602082028036833780820191505090505090565b600080fd5b600061ffff82169050919050565b6104c3816104ac565b81146104ce57600080fd5b50565b6000813590506104e0816104ba565b92915050565b600060ff82169050919050565b6104fc816104e6565b811461050757600080fd5b50565b600081359050610519816104f3565b92915050565b600080600060608486031215610538576105376104a7565b5b6000610546868287016104d1565b93505060206105578682870161050a565b92505060406105688682870161050a565b9150509250925092565b6000819050919050565b61058581610572565b82525050565b60006020820190506105a0600083018461057c565b92915050565b6000602082840312156105bc576105bb6104a7565b5b60006105ca848285016104d1565b91505092915050565b60008115159050919050565b6105e8816105d3565b82525050565b600060208201905061060360008301846105df565b92915050565b61061281610572565b811461061d57600080fd5b50565b60008135905061062f81610609565b92915050565b60006020828403121561064b5761064a6104a7565b5b600061065984828501610620565b91505092915050565b7f4e487b7100000000000000000000000000000000000000000000000000000000600052601160045260246000fd5b600061069c82610572565b91506106a783610572565b92508282019050808211156106bf576106be610662565b5b92915050565b60006106d0826104ac565b915061ffff82036106e4576106e3610662565b5b600182019050919050565b7f4e487b7100000000000000000000000000000000000000000000000000000000600052603260045260246000fd5b6000610729826104ac565b9150610734836104ac565b9250828203905061ffff81111561074e5761074d610662565b5b92915050565b600061075f82610572565b915061076a83610572565b925082820261077881610572565b9150828204841483151761078f5761078e610662565b5b5092915050565b60006107a1826104e6565b91506107ac836104e6565b9250828203905060ff8111156107c5576107c4610662565b5b92915050565b7f4e487b7100000000000000000000000000000000000000000000000000000000600052601260045260246000fd5b6000610805826104ac565b9150610810836104ac565b9250826108205761081f6107cb565b5b828206905092915050565b600061083682610572565b915061084183610572565b925082610851576108506107cb565b5b828206905092915050565b600061086782610572565b915061087283610572565b925082820390508181111561088a57610889610662565b5b9291505056fea26469706673582212208acd08d341d1f6eaea19ed083a3ae01ba6b90b36b408ef0cf190853412c97b9264736f6c63430008130033",
  "immutableReferences": {},
  "source": "//SPDX-License-Identifier: Unlicense\r\npragma solidity >=0.7.0 <0.9.0;\r\n\r\nimport \"../../node_modules/@openzeppelin/contracts/token/ERC20/ERC20.sol\";\r\nimport \"../../node_modules/@openzeppelin/contracts/utils/math/Math.sol\";\r\n\r\nimport './HotelToken.sol';\r\nimport './TimeManager.sol';\r\n\r\ncontract SmartHotel {\r\n    string public constant name = 'SmartHotel';\r\n    HotelToken public hotelToken;// 1 token = 1 day \r\n    TimeManager private timeManager;//time manager\r\n    address payable public owner;\r\n    uint16 public roomNum;\r\n    uint64 public hotelTokenPrice;// price of one token in ETH\r\n    uint256 public deployTime;\r\n    \r\n\r\n    struct RoomPass {\r\n        uint256 password;\r\n        bool set;\r\n    }\r\n\r\n    struct Appointment {  \r\n        bool isAppointment;\r\n        string partyName;\r\n        address userAddress;\r\n    }\r\n\r\n    struct UserBooking {\r\n        uint256 timestamp;\r\n        uint8 numDays;\r\n        bool isCheckedIn;\r\n        uint16 roomId;\r\n    }\r\n\r\n    mapping(uint16 => RoomPass) private roomPasses;  //roomid => roompass\r\n    mapping(uint16 => bool) public roomKeyStates;  //is room key opening\r\n    //key is mod 86400\r\n    mapping(uint16 => mapping(uint256 => Appointment)) scheduleByTimestamp;  //roomiduint=>timestampuint=>appo\r\n    mapping(address => UserBooking[]) public userBookings;\r\n\r\n    event TokenPriceChanged(uint64 indexed oldPrice, uint64 indexed newPrice);\r\n    event TokenBought(address indexed from, uint256 sum, uint64 indexed price);\r\n    event AppoScheduled(address indexed from, uint256 indexed timestamp, uint256 indexed span, uint16 room);\r\n    event AppoRefunded(address indexed from, uint256 indexed timestamp, uint256 indexed span, uint8 index);\r\n    event CheckedIn(address indexed user, uint256 indexed timestamp);\r\n    event CheckedOut(address indexed user, uint256 indexed timestamp);\r\n    event roomPassOK(address indexed user, uint256 indexed timestamp);\r\n    event keyOpened(address indexed user, uint256 indexed timestamp);\r\n    event keyLocked(address indexed user, uint256 indexed timestamp);\r\n    event checkKeyState(bool indexed state, uint256 indexed timestamp);\r\n\r\n    modifier onlyOwner() {\r\n        require(msg.sender == owner, \"only owner\");\r\n        _;\r\n    }\r\n\r\n    modifier validMonth(uint8 _m) {\r\n        require(_m > 0 && _m < 13, \"1-12\");\r\n        _;\r\n    }\r\n\r\n    modifier validDay(uint8 _d) {\r\n        require(_d > 0 && _d < 32, \"Invalid day\");\r\n        _;\r\n    }\r\n\r\n    modifier validNumDays(uint8 _num) {\r\n        require(_num > 0, \"above 0\");\r\n        _;\r\n    }\r\n\r\n    modifier validTimestamp(uint256 _t) {\r\n        validateTimestamp(_t);\r\n        _;\r\n    }\r\n\r\n    modifier validRoomId(uint16 _id) {\r\n        require(0 <= _id && _id <= roomNum, \"Invalid room Id\");\r\n        _;\r\n    }\r\n\r\n    modifier validAppoRange(uint256 _t, uint8 _r) {\r\n        isMod86400(_t);\r\n        require(_r <= 365 && _r > 0, \"1-365\");\r\n        _;\r\n    }\r\n\r\n    modifier validName(string memory _s) {\r\n        require(bytes(_s).length != 0, \"blank\");\r\n        _;\r\n    }\r\n\r\n    constructor(\r\n        uint64 _initialPrice,\r\n        uint16 _roomNum\r\n    ) {\r\n        deployTime = block.timestamp;\r\n        hotelToken = new HotelToken(address(this));\r\n        owner = payable(msg.sender);\r\n        timeManager = new TimeManager();\r\n        hotelTokenPrice = _initialPrice;\r\n        roomNum = _roomNum;\r\n    }\r\n\r\n    function validateTimestamp(uint256 _t) private view {\r\n        require(\r\n            _t > deployTime,\r\n            \"before deploy\"\r\n        );\r\n        isMod86400(_t);\r\n    }\r\n\r\n    function isMod86400(uint256 _t) private pure {\r\n        require(\r\n            _t % 86400 == 0,\r\n            \"mod 86400\"\r\n        );\r\n    }\r\n\r\n    //\r\n    function getUnixTimestamp(\r\n        uint16 _year,\r\n        uint8 _month,\r\n        uint8 _day\r\n    ) external view returns (uint256) {\r\n        return timeManager.toTimestamp(_year, _month, _day);\r\n    }\r\n\r\n    //\r\n    function getTokenBalance(address _addr) external view returns (uint256) {\r\n        return hotelToken.balanceOf(_addr);\r\n    }\r\n\r\n    //\r\n    function getUserAppo(address _addr)\r\n        external\r\n        view\r\n        returns (UserBooking[] memory)\r\n    {\r\n        return userBookings[_addr];  //UserBooking\r\n    }\r\n\r\n    //\r\n    function getAppoList(uint16 _roomId, uint256 _start, uint8 _numDays) \r\n        external\r\n        view\r\n        validRoomId(_roomId)\r\n        validAppoRange(_start, _numDays)\r\n        returns (uint256[] memory)\r\n    {\r\n\r\n        // up to 31 days in a month\r\n        uint256[] memory monthlyAppointments = new uint256[](_numDays);\r\n        for (uint256 i = 0; i < _numDays; ) {\r\n            Appointment memory foundAppointment = scheduleByTimestamp[_roomId][_start + (i * 86400)];\r\n            if (foundAppointment.isAppointment) {\r\n                monthlyAppointments[i] = 1;\r\n            }\r\n            unchecked{ i++; }\r\n        }\r\n\r\n        return monthlyAppointments;\r\n    }\r\n\r\n    function bookAppo(\r\n        uint16 _roomId,\r\n        string calldata _name,\r\n        uint256 _timestamp,\r\n        uint8 _numDays\r\n    )\r\n        external\r\n        validRoomId(_roomId)\r\n        validName(_name)\r\n        validTimestamp(_timestamp)\r\n        validNumDays(_numDays)\r\n    {\r\n        hotelToken.burnToken(msg.sender, _numDays);\r\n\r\n        for (uint256 i = 0; i < _numDays; ) {\r\n            require(\r\n                scheduleByTimestamp[_roomId][_timestamp + (86400 * i)].isAppointment !=\r\n                    true,\r\n                \"Appointment already exists\"\r\n            );\r\n\r\n            scheduleByTimestamp[_roomId][_timestamp + (86400 * i)] = Appointment(\r\n                true,\r\n                _name,\r\n                msg.sender\r\n            );\r\n            unchecked{ i++; }\r\n        }\r\n        userBookings[msg.sender].push(UserBooking(_timestamp, _numDays, false, _roomId));\r\n\r\n        emit AppoScheduled(msg.sender, _timestamp, _numDays, _roomId);\r\n    }\r\n\r\n    function removeUserBooking(uint8 _indexToDelete) internal {\r\n        require(_indexToDelete < userBookings[msg.sender].length);\r\n        userBookings[msg.sender][_indexToDelete] = userBookings[msg.sender][\r\n            userBookings[msg.sender].length - 1\r\n        ];\r\n        userBookings[msg.sender].pop();\r\n    }\r\n\r\n    // \r\n    function refundAppo(uint8 _index) external {\r\n        // first get the timestamp and numdays from timestamp from the index\r\n        require(userBookings[msg.sender][_index].isCheckedIn != true, \"You have already checked in\");\r\n        uint256 timestamp = userBookings[msg.sender][_index].timestamp;\r\n        uint8 numDays = userBookings[msg.sender][_index].numDays;\r\n        uint16 roomId = userBookings[msg.sender][_index].roomId;\r\n        require(timestamp > 0 && numDays > 0, \"no booking found\");\r\n        validateTimestamp(timestamp);\r\n        // cannot cancel past\r\n        require(\r\n            timestamp > block.timestamp,\r\n            \"cannot cancel events in the past\"\r\n        );\r\n        \r\n        for (uint256 i = 0; i < numDays; ) {\r\n            uint256 currDay = timestamp + (86400 * i);\r\n            require(\r\n                scheduleByTimestamp[roomId][currDay].isAppointment == true,\r\n                \"not exist appo\"\r\n            );\r\n            require(\r\n                scheduleByTimestamp[roomId][currDay].userAddress == msg.sender,\r\n                \"You haven't appo\"\r\n            );\r\n            //delete\r\n            scheduleByTimestamp[roomId][currDay].isAppointment = false;\r\n            unchecked{ i++; }\r\n        }\r\n        //\r\n        removeUserBooking(_index);\r\n        //\r\n        hotelToken.mintToken(msg.sender, numDays);\r\n        //UIemit\r\n        emit AppoRefunded(msg.sender, timestamp, numDays, _index);\r\n    }\r\n\r\n    //1ETH\r\n    function changeTokenPrice(uint64 _newPrice) external onlyOwner {\r\n        require(_newPrice > 0, \"above zero\");\r\n        uint64 temp = hotelTokenPrice;\r\n        hotelTokenPrice = _newPrice;\r\n        emit TokenPriceChanged(temp, _newPrice);\r\n    }\r\n\r\n    function buyTokens(uint256 _numTokens) external payable {\r\n        require(msg.value > 0, \"no ether\");\r\n        require(msg.value >= (hotelTokenPrice * _numTokens), \"not enough ether\");\r\n        // transfer ETH to owner account\r\n        (bool sent, ) = owner.call{value: hotelTokenPrice * _numTokens}(\"\");  //call function\r\n        require(sent, \"Failed to send\");\r\n\r\n        uint64 excessEth = uint64(msg.value - (hotelTokenPrice * _numTokens));\r\n    \r\n        if (excessEth > 0) {\r\n            payable(msg.sender).transfer(excessEth);\r\n        }\r\n        \r\n        hotelToken.mintToken(msg.sender, _numTokens);\r\n        // use hotelTokenPrice for easy human-readable USD value\r\n        emit TokenBought(msg.sender, _numTokens, hotelTokenPrice);\r\n    }\r\n\r\n    function checkIn(uint256 _timestamp, uint8 _index) external validTimestamp(_timestamp) { //\r\n        uint16 roomId = userBookings[msg.sender][_index].roomId;\r\n        Appointment memory appointment = scheduleByTimestamp[roomId][_timestamp];\r\n        //block.timestampmod86400_timestamprequire\r\n        //require(_timestamp == timeManager.marume86400(block.timestamp), \"This is not today\");  ///test\r\n        require(appointment.isAppointment, \"No appo exists\");\r\n        require(appointment.userAddress == msg.sender, \"You have no appo\");\r\n        require(userBookings[msg.sender][_index].isCheckedIn != true, \"already checked in\");\r\n\r\n        //\r\n        userBookings[msg.sender][_index].isCheckedIn = true;\r\n\r\n        emit CheckedIn(msg.sender, block.timestamp);\r\n    }\r\n\r\n    function checkOut(uint256 _timestamp, uint8 _index) external validTimestamp(_timestamp) {\r\n        uint16 roomId = userBookings[msg.sender][_index].roomId;\r\n        Appointment memory appointment = scheduleByTimestamp[roomId][_timestamp];\r\n        require(appointment.isAppointment, \"No appo exists\");\r\n        require(appointment.userAddress == msg.sender, \"You have no appo\");\r\n        require(userBookings[msg.sender][_index].isCheckedIn == true, \"You have not checked in\");\r\n\r\n        //\r\n        roomPasses[roomId].set = false;\r\n        userBookings[msg.sender][_index].isCheckedIn = false;\r\n        removeUserBooking(_index);  //\r\n        emit CheckedOut(msg.sender, block.timestamp);\r\n    }\r\n\r\n    //\r\n    function roomPassSet(uint256[6] calldata _input, uint256 _timestamp, uint8 _index) external validTimestamp(_timestamp) {\r\n        uint16 roomId = userBookings[msg.sender][_index].roomId;\r\n        Appointment memory appointment = scheduleByTimestamp[roomId][_timestamp];\r\n        require(roomPasses[roomId].set == false, \"You have already set pass\");\r\n        require(appointment.isAppointment, \"No appo exists\");\r\n        require(appointment.userAddress == msg.sender, \"You have no appo\");\r\n        require(userBookings[appointment.userAddress][_index].isCheckedIn, \"You have not checked in\");\r\n\r\n        for (uint256 i = 0; i < 6; ) {\r\n            require(0 <= _input[i] && _input[i] < 10, \"password must be 6num\");\r\n            unchecked{ i++; }\r\n        }\r\n\r\n        roomPasses[roomId].password = uint256(keccak256(abi.encodePacked(_input)));//\r\n\r\n        roomPasses[roomId].set = true;  //issue\r\n        // Emit an event with the one-time code\r\n        emit roomPassOK(appointment.userAddress, block.timestamp);\r\n    }\r\n\r\n    function isPassSet(uint16 _roomId) external view returns (bool) {\r\n        return roomPasses[_roomId].set;\r\n    }\r\n\r\n    //\r\n    function keyOpen(uint256[6] calldata _input, uint256 _timestamp, uint8 _index) external validTimestamp(_timestamp) {\r\n        uint16 roomId = userBookings[msg.sender][_index].roomId;\r\n        Appointment memory appointment = scheduleByTimestamp[roomId][_timestamp];\r\n        require(appointment.isAppointment, \"No appo exists\");\r\n        require(appointment.userAddress == msg.sender, \"You have no appo\");\r\n        require(userBookings[appointment.userAddress][_index].isCheckedIn, \"You have not checked in\");\r\n        require(roomKeyStates[roomId] == false, \"already opened\");\r\n        require(roomPasses[roomId].set == true, \"Please set your password\");\r\n        require(roomPasses[roomId].password == uint256(keccak256(abi.encodePacked(_input))), \"incorrect password\");\r\n\r\n        roomKeyStates[roomId] = true;\r\n\r\n        emit keyOpened(appointment.userAddress, block.timestamp);  //roomnum\r\n    }\r\n\r\n    function keyLock(uint256 _timestamp, uint8 _index) external validTimestamp(_timestamp) {\r\n        uint16 roomId = userBookings[msg.sender][_index].roomId;\r\n        Appointment memory appointment = scheduleByTimestamp[roomId][_timestamp];\r\n        require(appointment.isAppointment, \"No appo exists\");\r\n        require(appointment.userAddress == msg.sender, \"You have no appo\");\r\n        require(userBookings[appointment.userAddress][_index].isCheckedIn, \"You have not checked in\");\r\n        require(roomKeyStates[roomId] == true, \"already closed\");\r\n        require(roomPasses[roomId].set == true, \"Please set your password\");\r\n        //require(roomPass.used == true, \"Room key must be used before locking\");\r\n\r\n        // Lock the room key\r\n        roomKeyStates[roomId] = false;\r\n\r\n        // Emit an event to indicate that the key is locked\r\n        emit keyLocked(appointment.userAddress, block.timestamp);\r\n    }\r\n\r\n    function isDoorOpenStrict(uint256 _timestamp, uint8 _index) external validTimestamp(_timestamp) {\r\n        uint16 roomId = userBookings[msg.sender][_index].roomId;\r\n        Appointment memory appointment = scheduleByTimestamp[roomId][_timestamp];\r\n        require(appointment.isAppointment, \"No appo exists\");\r\n        require(appointment.userAddress == msg.sender, \"You have no appo\");\r\n        require(userBookings[appointment.userAddress][_index].isCheckedIn, \"You have not checked in\");\r\n        require(roomPasses[roomId].set == true, \"Please set your password\");\r\n\r\n        emit checkKeyState(roomKeyStates[roomId], _timestamp);\r\n    }\r\n\r\n    //\r\n    function showAppo(uint16 _roomId, uint256 _timestamp) external view validTimestamp(_timestamp) returns (Appointment memory appo) {\r\n        appo = scheduleByTimestamp[_roomId][_timestamp];\r\n    }\r\n\r\n    function isCheckedIn(uint8 _index) external view returns (UserBooking memory booking) {\r\n        booking = userBookings[msg.sender][_index];\r\n    }\r\n\r\n    function isDoorOpen(uint16 _roomId) external view returns (bool) {\r\n        return roomKeyStates[_roomId];\r\n    }\r\n}",
  "sourcePath": "C:\\Users\\Hong lab\\project\\smart-hotel\\src\\contracts\\SmartHotel.sol",
  "compiler": {
    "name": "solc",
    "version": "0.8.19+commit.7dd6d404.Emscripten.clang"
  },
  "schemaVersion": "3.4.14",
  "updatedAt": "2023-12-06T07:41:42.663Z",
  "networkType": "ethereum",
  "devdoc": {
    "kind": "dev",
    "methods": {},
    "version": 1
  },
  "userdoc": {
    "kind": "user",
    "methods": {},
    "version": 1
  }
}