{
  "contractName": "SmartHotel",
  "abi": [
    {
      "inputs": [
        {
          "internalType": "uint64",
          "name": "_initialPrice",
          "type": "uint64"
        },
        {
          "internalType": "uint16",
          "name": "_roomNum",
          "type": "uint16"
        }
      ],
      "stateMutability": "nonpayable",
      "type": "constructor"
    },
    {
      "anonymous": false,
      "inputs": [
        {
          "indexed": true,
          "internalType": "address",
          "name": "from",
          "type": "address"
        },
        {
          "indexed": true,
          "internalType": "uint256",
          "name": "timestamp",
          "type": "uint256"
        },
        {
          "indexed": true,
          "internalType": "uint256",
          "name": "span",
          "type": "uint256"
        },
        {
          "indexed": false,
          "internalType": "uint8",
          "name": "index",
          "type": "uint8"
        }
      ],
      "name": "AppoRefunded",
      "type": "event"
    },
    {
      "anonymous": false,
      "inputs": [
        {
          "indexed": true,
          "internalType": "address",
          "name": "from",
          "type": "address"
        },
        {
          "indexed": true,
          "internalType": "uint256",
          "name": "timestamp",
          "type": "uint256"
        },
        {
          "indexed": true,
          "internalType": "uint256",
          "name": "span",
          "type": "uint256"
        },
        {
          "indexed": false,
          "internalType": "uint16",
          "name": "room",
          "type": "uint16"
        }
      ],
      "name": "AppoScheduled",
      "type": "event"
    },
    {
      "anonymous": false,
      "inputs": [
        {
          "indexed": true,
          "internalType": "address",
          "name": "user",
          "type": "address"
        },
        {
          "indexed": true,
          "internalType": "uint256",
          "name": "timestamp",
          "type": "uint256"
        }
      ],
      "name": "CheckedIn",
      "type": "event"
    },
    {
      "anonymous": false,
      "inputs": [
        {
          "indexed": true,
          "internalType": "address",
          "name": "user",
          "type": "address"
        },
        {
          "indexed": true,
          "internalType": "uint256",
          "name": "timestamp",
          "type": "uint256"
        }
      ],
      "name": "CheckedOut",
      "type": "event"
    },
    {
      "anonymous": false,
      "inputs": [
        {
          "indexed": true,
          "internalType": "address",
          "name": "from",
          "type": "address"
        },
        {
          "indexed": false,
          "internalType": "uint256",
          "name": "sum",
          "type": "uint256"
        },
        {
          "indexed": true,
          "internalType": "uint64",
          "name": "price",
          "type": "uint64"
        }
      ],
      "name": "TokenBought",
      "type": "event"
    },
    {
      "anonymous": false,
      "inputs": [
        {
          "indexed": true,
          "internalType": "uint64",
          "name": "oldPrice",
          "type": "uint64"
        },
        {
          "indexed": true,
          "internalType": "uint64",
          "name": "newPrice",
          "type": "uint64"
        }
      ],
      "name": "TokenPriceChanged",
      "type": "event"
    },
    {
      "anonymous": false,
      "inputs": [
        {
          "indexed": true,
          "internalType": "address",
          "name": "user",
          "type": "address"
        },
        {
          "indexed": true,
          "internalType": "uint256",
          "name": "timestamp",
          "type": "uint256"
        }
      ],
      "name": "keyLocked",
      "type": "event"
    },
    {
      "anonymous": false,
      "inputs": [
        {
          "indexed": true,
          "internalType": "address",
          "name": "user",
          "type": "address"
        },
        {
          "indexed": true,
          "internalType": "uint256",
          "name": "timestamp",
          "type": "uint256"
        }
      ],
      "name": "keyOpened",
      "type": "event"
    },
    {
      "anonymous": false,
      "inputs": [
        {
          "indexed": true,
          "internalType": "address",
          "name": "user",
          "type": "address"
        },
        {
          "indexed": true,
          "internalType": "uint256",
          "name": "timestamp",
          "type": "uint256"
        }
      ],
      "name": "roomPassOK",
      "type": "event"
    },
    {
      "inputs": [],
      "name": "deployTime",
      "outputs": [
        {
          "internalType": "uint256",
          "name": "",
          "type": "uint256"
        }
      ],
      "stateMutability": "view",
      "type": "function",
      "constant": true
    },
    {
      "inputs": [],
      "name": "hotelToken",
      "outputs": [
        {
          "internalType": "contract HotelToken",
          "name": "",
          "type": "address"
        }
      ],
      "stateMutability": "view",
      "type": "function",
      "constant": true
    },
    {
      "inputs": [],
      "name": "hotelTokenPrice",
      "outputs": [
        {
          "internalType": "uint64",
          "name": "",
          "type": "uint64"
        }
      ],
      "stateMutability": "view",
      "type": "function",
      "constant": true
    },
    {
      "inputs": [],
      "name": "name",
      "outputs": [
        {
          "internalType": "string",
          "name": "",
          "type": "string"
        }
      ],
      "stateMutability": "view",
      "type": "function",
      "constant": true
    },
    {
      "inputs": [],
      "name": "owner",
      "outputs": [
        {
          "internalType": "address payable",
          "name": "",
          "type": "address"
        }
      ],
      "stateMutability": "view",
      "type": "function",
      "constant": true
    },
    {
      "inputs": [
        {
          "internalType": "uint16",
          "name": "",
          "type": "uint16"
        }
      ],
      "name": "roomKeyStates",
      "outputs": [
        {
          "internalType": "bool",
          "name": "",
          "type": "bool"
        }
      ],
      "stateMutability": "view",
      "type": "function",
      "constant": true
    },
    {
      "inputs": [],
      "name": "roomNum",
      "outputs": [
        {
          "internalType": "uint16",
          "name": "",
          "type": "uint16"
        }
      ],
      "stateMutability": "view",
      "type": "function",
      "constant": true
    },
    {
      "inputs": [
        {
          "internalType": "address",
          "name": "",
          "type": "address"
        },
        {
          "internalType": "uint256",
          "name": "",
          "type": "uint256"
        }
      ],
      "name": "userBookings",
      "outputs": [
        {
          "internalType": "uint256",
          "name": "timestamp",
          "type": "uint256"
        },
        {
          "internalType": "uint8",
          "name": "numDays",
          "type": "uint8"
        },
        {
          "internalType": "bool",
          "name": "isCheckedIn",
          "type": "bool"
        },
        {
          "internalType": "uint16",
          "name": "roomId",
          "type": "uint16"
        }
      ],
      "stateMutability": "view",
      "type": "function",
      "constant": true
    },
    {
      "inputs": [
        {
          "internalType": "uint16",
          "name": "_year",
          "type": "uint16"
        },
        {
          "internalType": "uint8",
          "name": "_month",
          "type": "uint8"
        },
        {
          "internalType": "uint8",
          "name": "_day",
          "type": "uint8"
        }
      ],
      "name": "getUnixTimestamp",
      "outputs": [
        {
          "internalType": "uint256",
          "name": "",
          "type": "uint256"
        }
      ],
      "stateMutability": "view",
      "type": "function",
      "constant": true
    },
    {
      "inputs": [
        {
          "internalType": "address",
          "name": "_addr",
          "type": "address"
        }
      ],
      "name": "getTokenBalance",
      "outputs": [
        {
          "internalType": "uint256",
          "name": "",
          "type": "uint256"
        }
      ],
      "stateMutability": "view",
      "type": "function",
      "constant": true
    },
    {
      "inputs": [
        {
          "internalType": "address",
          "name": "_addr",
          "type": "address"
        }
      ],
      "name": "getUserAppo",
      "outputs": [
        {
          "components": [
            {
              "internalType": "uint256",
              "name": "timestamp",
              "type": "uint256"
            },
            {
              "internalType": "uint8",
              "name": "numDays",
              "type": "uint8"
            },
            {
              "internalType": "bool",
              "name": "isCheckedIn",
              "type": "bool"
            },
            {
              "internalType": "uint16",
              "name": "roomId",
              "type": "uint16"
            }
          ],
          "internalType": "struct SmartHotel.UserBooking[]",
          "name": "",
          "type": "tuple[]"
        }
      ],
      "stateMutability": "view",
      "type": "function",
      "constant": true
    },
    {
      "inputs": [
        {
          "internalType": "uint16",
          "name": "_roomId",
          "type": "uint16"
        },
        {
          "internalType": "uint256",
          "name": "_start",
          "type": "uint256"
        },
        {
          "internalType": "uint8",
          "name": "_numDays",
          "type": "uint8"
        }
      ],
      "name": "getAppoList",
      "outputs": [
        {
          "internalType": "uint256[]",
          "name": "",
          "type": "uint256[]"
        }
      ],
      "stateMutability": "view",
      "type": "function",
      "constant": true
    },
    {
      "inputs": [
        {
          "internalType": "uint16",
          "name": "_roomId",
          "type": "uint16"
        },
        {
          "internalType": "string",
          "name": "_name",
          "type": "string"
        },
        {
          "internalType": "uint256",
          "name": "_timestamp",
          "type": "uint256"
        },
        {
          "internalType": "uint8",
          "name": "_numDays",
          "type": "uint8"
        }
      ],
      "name": "bookAppo",
      "outputs": [],
      "stateMutability": "nonpayable",
      "type": "function"
    },
    {
      "inputs": [
        {
          "internalType": "uint8",
          "name": "_index",
          "type": "uint8"
        }
      ],
      "name": "refundAppo",
      "outputs": [],
      "stateMutability": "nonpayable",
      "type": "function"
    },
    {
      "inputs": [
        {
          "internalType": "uint64",
          "name": "_newPrice",
          "type": "uint64"
        }
      ],
      "name": "changeTokenPrice",
      "outputs": [],
      "stateMutability": "nonpayable",
      "type": "function"
    },
    {
      "inputs": [
        {
          "internalType": "uint256",
          "name": "_numTokens",
          "type": "uint256"
        }
      ],
      "name": "buyTokens",
      "outputs": [],
      "stateMutability": "payable",
      "type": "function",
      "payable": true
    },
    {
      "inputs": [
        {
          "internalType": "uint256",
          "name": "_timestamp",
          "type": "uint256"
        },
        {
          "internalType": "uint8",
          "name": "_index",
          "type": "uint8"
        }
      ],
      "name": "checkIn",
      "outputs": [],
      "stateMutability": "nonpayable",
      "type": "function"
    },
    {
      "inputs": [
        {
          "internalType": "uint256",
          "name": "_timestamp",
          "type": "uint256"
        },
        {
          "internalType": "uint8",
          "name": "_index",
          "type": "uint8"
        }
      ],
      "name": "checkOut",
      "outputs": [],
      "stateMutability": "nonpayable",
      "type": "function"
    },
    {
      "inputs": [
        {
          "internalType": "uint256[6]",
          "name": "_input",
          "type": "uint256[6]"
        },
        {
          "internalType": "uint256",
          "name": "_timestamp",
          "type": "uint256"
        },
        {
          "internalType": "uint8",
          "name": "_index",
          "type": "uint8"
        }
      ],
      "name": "roomPassSet",
      "outputs": [],
      "stateMutability": "nonpayable",
      "type": "function"
    },
    {
      "inputs": [
        {
          "internalType": "uint16",
          "name": "_roomId",
          "type": "uint16"
        }
      ],
      "name": "isPassSet",
      "outputs": [
        {
          "internalType": "bool",
          "name": "",
          "type": "bool"
        }
      ],
      "stateMutability": "view",
      "type": "function",
      "constant": true
    },
    {
      "inputs": [
        {
          "internalType": "uint256[6]",
          "name": "_input",
          "type": "uint256[6]"
        },
        {
          "internalType": "uint256",
          "name": "_timestamp",
          "type": "uint256"
        },
        {
          "internalType": "uint8",
          "name": "_index",
          "type": "uint8"
        }
      ],
      "name": "keyOpen",
      "outputs": [],
      "stateMutability": "nonpayable",
      "type": "function"
    },
    {
      "inputs": [
        {
          "internalType": "uint256",
          "name": "_timestamp",
          "type": "uint256"
        },
        {
          "internalType": "uint8",
          "name": "_index",
          "type": "uint8"
        }
      ],
      "name": "keyLock",
      "outputs": [],
      "stateMutability": "nonpayable",
      "type": "function"
    },
    {
      "inputs": [
        {
          "internalType": "uint16",
          "name": "_roomId",
          "type": "uint16"
        },
        {
          "internalType": "uint256",
          "name": "_timestamp",
          "type": "uint256"
        }
      ],
      "name": "showAppo",
      "outputs": [
        {
          "components": [
            {
              "internalType": "bool",
              "name": "isAppointment",
              "type": "bool"
            },
            {
              "internalType": "string",
              "name": "partyName",
              "type": "string"
            },
            {
              "internalType": "address",
              "name": "userAddress",
              "type": "address"
            }
          ],
          "internalType": "struct SmartHotel.Appointment",
          "name": "appo",
          "type": "tuple"
        }
      ],
      "stateMutability": "view",
      "type": "function",
      "constant": true
    },
    {
      "inputs": [
        {
          "internalType": "uint8",
          "name": "_index",
          "type": "uint8"
        }
      ],
      "name": "isCheckedIn",
      "outputs": [
        {
          "components": [
            {
              "internalType": "uint256",
              "name": "timestamp",
              "type": "uint256"
            },
            {
              "internalType": "uint8",
              "name": "numDays",
              "type": "uint8"
            },
            {
              "internalType": "bool",
              "name": "isCheckedIn",
              "type": "bool"
            },
            {
              "internalType": "uint16",
              "name": "roomId",
              "type": "uint16"
            }
          ],
          "internalType": "struct SmartHotel.UserBooking",
          "name": "booking",
          "type": "tuple"
        }
      ],
      "stateMutability": "view",
      "type": "function",
      "constant": true
    },
    {
      "inputs": [
        {
          "internalType": "uint16",
          "name": "_roomId",
          "type": "uint16"
        }
      ],
      "name": "isDoorOpen",
      "outputs": [
        {
          "internalType": "bool",
          "name": "",
          "type": "bool"
        }
      ],
      "stateMutability": "view",
      "type": "function",
      "constant": true
    }
  ],
  "bytecode": "0x60806040523480156200001157600080fd5b506040516200780a3803806200780a833981810160405281019062000037919062000256565b42600381905550306040516200004d90620001b1565b620000599190620002e2565b604051809103906000f08015801562000076573d6000803e3d6000fd5b506000806101000a81548173ffffffffffffffffffffffffffffffffffffffff021916908373ffffffffffffffffffffffffffffffffffffffff16021790555033600260006101000a81548173ffffffffffffffffffffffffffffffffffffffff021916908373ffffffffffffffffffffffffffffffffffffffff1602179055506040516200010590620001bf565b604051809103906000f08015801562000122573d6000803e3d6000fd5b50600160006101000a81548173ffffffffffffffffffffffffffffffffffffffff021916908373ffffffffffffffffffffffffffffffffffffffff16021790555081600260166101000a81548167ffffffffffffffff021916908367ffffffffffffffff16021790555080600260146101000a81548161ffff021916908361ffff1602179055505050620002ff565b6116ae806200587683390190565b6108e68062006f2483390190565b600080fd5b600067ffffffffffffffff82169050919050565b620001f181620001d2565b8114620001fd57600080fd5b50565b6000815190506200021181620001e6565b92915050565b600061ffff82169050919050565b620002308162000217565b81146200023c57600080fd5b50565b600081519050620002508162000225565b92915050565b6000806040838503121562000270576200026f620001cd565b5b6000620002808582860162000200565b925050602062000293858286016200023f565b9150509250929050565b600073ffffffffffffffffffffffffffffffffffffffff82169050919050565b6000620002ca826200029d565b9050919050565b620002dc81620002bd565b82525050565b6000602082019050620002f96000830184620002d1565b92915050565b615567806200030f6000396000f3fe6080604052600436106101665760003560e01c806361d60cb3116100d15780638da5cb5b1161008a578063df1e02e711610064578063df1e02e714610577578063e3a4d3a2146105a2578063eef3f41e146105e2578063f9da89c91461060b57610166565b80638da5cb5b146104e6578063c7de29f714610511578063d03d66fc1461054e57610166565b806361d60cb3146103da5780636a15e4f2146104035780637a11308f1461042c5780637a40624b146104555780637ec4e61d14610480578063844d18d5146104a957610166565b80632c795868116101235780632c7958681461029f5780633610724e146102dc5780633aecd0e3146102f857806348f0478b1461033557806349ac270e146103605780634f7141bc1461039d57610166565b806304d5a9301461016b57806306fdde03146101a85780630c6dc827146101d35780630e89f552146101fc578063131104a5146102255780632352cfee14610262575b600080fd5b34801561017757600080fd5b50610192600480360381019061018d9190613952565b610636565b60405161019f9190613a63565b60405180910390f35b3480156101b457600080fd5b506101bd610905565b6040516101ca9190613b15565b60405180910390f35b3480156101df57600080fd5b506101fa60048036038101906101f59190613b37565b61093e565b005b34801561020857600080fd5b50610223600480360381019061021e9190613b8b565b610e9f565b005b34801561023157600080fd5b5061024c60048036038101906102479190613bdf565b6113a8565b6040516102599190613c41565b60405180910390f35b34801561026e57600080fd5b5061028960048036038101906102849190613c5c565b611453565b6040516102969190613d92565b60405180910390f35b3480156102ab57600080fd5b506102c660048036038101906102c19190613db4565b6115a8565b6040516102d39190613df0565b60405180910390f35b6102f660048036038101906102f19190613e0b565b6115da565b005b34801561030457600080fd5b5061031f600480360381019061031a9190613e64565b611925565b60405161032c9190613c41565b60405180910390f35b34801561034157600080fd5b5061034a6119c9565b6040516103579190613ef0565b60405180910390f35b34801561036c57600080fd5b5061038760048036038101906103829190613db4565b6119ed565b6040516103949190613df0565b60405180910390f35b3480156103a957600080fd5b506103c460048036038101906103bf9190613e64565b611a22565b6040516103d1919061402d565b60405180910390f35b3480156103e657600080fd5b5061040160048036038101906103fc919061404f565b611b22565b005b34801561040f57600080fd5b5061042a60048036038101906104259190613b8b565b611f1a565b005b34801561043857600080fd5b50610453600480360381019061044e91906140cf565b612434565b005b34801561046157600080fd5b5061046a61259b565b6040516104779190613c41565b60405180910390f35b34801561048c57600080fd5b506104a760048036038101906104a2919061415c565b6125a1565b005b3480156104b557600080fd5b506104d060048036038101906104cb9190613db4565b612acb565b6040516104dd9190613df0565b60405180910390f35b3480156104f257600080fd5b506104fb612aeb565b6040516105089190614205565b60405180910390f35b34801561051d57600080fd5b5061053860048036038101906105339190613b37565b612b11565b6040516105459190614275565b60405180910390f35b34801561055a57600080fd5b506105756004803603810190610570919061404f565b612bef565b005b34801561058357600080fd5b5061058c613027565b604051610599919061429f565b60405180910390f35b3480156105ae57600080fd5b506105c960048036038101906105c491906142ba565b61303b565b6040516105d99493929190614309565b60405180910390f35b3480156105ee57600080fd5b506106096004803603810190610604919061404f565b6130b0565b005b34801561061757600080fd5b506106206134ce565b60405161062d919061435d565b60405180910390f35b6060838061ffff166000111580156106665750600260149054906101000a900461ffff1661ffff168161ffff1611155b6106a5576040517f08c379a000000000000000000000000000000000000000000000000000000000815260040161069c906143c4565b60405180910390fd5b83836106b0826134e8565b61016d8160ff16111580156106c8575060008160ff16115b610707576040517f08c379a00000000000000000000000000000000000000000000000000000000081526004016106fe90614430565b60405180910390fd5b60008560ff1667ffffffffffffffff81111561072657610725614450565b5b6040519080825280602002602001820160405280156107545781602001602082028036833780820191505090505b50905060005b8660ff168110156108f6576000600660008b61ffff1661ffff1681526020019081526020016000206000620151808461079391906144ae565b8b61079e91906144f0565b81526020019081526020016000206040518060600160405290816000820160009054906101000a900460ff161515151581526020016001820180546107e290614553565b80601f016020809104026020016040519081016040528092919081815260200182805461080e90614553565b801561085b5780601f106108305761010080835404028352916020019161085b565b820191906000526020600020905b81548152906001019060200180831161083e57829003601f168201915b505050505081526020016002820160009054906101000a900473ffffffffffffffffffffffffffffffffffffffff1673ffffffffffffffffffffffffffffffffffffffff1673ffffffffffffffffffffffffffffffffffffffff168152505090508060000151156108e85760018383815181106108db576108da614584565b5b6020026020010181815250505b81806001019250505061075a565b50809450505050509392505050565b6040518060400160405280600a81526020017f536d617274486f74656c0000000000000000000000000000000000000000000081525081565b60011515600760003373ffffffffffffffffffffffffffffffffffffffff1673ffffffffffffffffffffffffffffffffffffffff1681526020019081526020016000208260ff168154811061099657610995614584565b5b906000526020600020906002020160010160019054906101000a900460ff161515036109f7576040517f08c379a00000000000000000000000000000000000000000000000000000000081526004016109ee906145ff565b60405180910390fd5b6000600760003373ffffffffffffffffffffffffffffffffffffffff1673ffffffffffffffffffffffffffffffffffffffff1681526020019081526020016000208260ff1681548110610a4d57610a4c614584565b5b90600052602060002090600202016000015490506000600760003373ffffffffffffffffffffffffffffffffffffffff1673ffffffffffffffffffffffffffffffffffffffff1681526020019081526020016000208360ff1681548110610ab757610ab6614584565b5b906000526020600020906002020160010160009054906101000a900460ff1690506000600760003373ffffffffffffffffffffffffffffffffffffffff1673ffffffffffffffffffffffffffffffffffffffff1681526020019081526020016000208460ff1681548110610b2e57610b2d614584565b5b906000526020600020906002020160010160029054906101000a900461ffff169050600083118015610b63575060008260ff16115b610ba2576040517f08c379a0000000000000000000000000000000000000000000000000000000008152600401610b999061466b565b60405180910390fd5b610bab8361353c565b428311610bed576040517f08c379a0000000000000000000000000000000000000000000000000000000008152600401610be4906146d7565b60405180910390fd5b60005b8260ff16811015610daf5760008162015180610c0c91906144ae565b85610c1791906144f0565b905060011515600660008561ffff1661ffff168152602001908152602001600020600083815260200190815260200160002060000160009054906101000a900460ff16151514610c9c576040517f08c379a0000000000000000000000000000000000000000000000000000000008152600401610c9390614743565b60405180910390fd5b3373ffffffffffffffffffffffffffffffffffffffff16600660008561ffff1661ffff168152602001908152602001600020600083815260200190815260200160002060020160009054906101000a900473ffffffffffffffffffffffffffffffffffffffff1673ffffffffffffffffffffffffffffffffffffffff1614610d59576040517f08c379a0000000000000000000000000000000000000000000000000000000008152600401610d50906147af565b60405180910390fd5b6000600660008561ffff1661ffff168152602001908152602001600020600083815260200190815260200160002060000160006101000a81548160ff021916908315150217905550818060010192505050610bf0565b50610db98461358c565b60008054906101000a900473ffffffffffffffffffffffffffffffffffffffff1673ffffffffffffffffffffffffffffffffffffffff166379c6506833846040518363ffffffff1660e01b8152600401610e1492919061480f565b600060405180830381600087803b158015610e2e57600080fd5b505af1158015610e42573d6000803e3d6000fd5b505050508160ff16833373ffffffffffffffffffffffffffffffffffffffff167fa3d6a454a87b586ae409c84b0c96218631558a1d3cba4681ee6d983092d5951787604051610e919190614838565b60405180910390a450505050565b81610ea98161353c565b6000600760003373ffffffffffffffffffffffffffffffffffffffff1673ffffffffffffffffffffffffffffffffffffffff1681526020019081526020016000208360ff1681548110610eff57610efe614584565b5b906000526020600020906002020160010160029054906101000a900461ffff1690506000600660008361ffff1661ffff16815260200190815260200160002060008681526020019081526020016000206040518060600160405290816000820160009054906101000a900460ff16151515158152602001600182018054610f8590614553565b80601f0160208091040260200160405190810160405280929190818152602001828054610fb190614553565b8015610ffe5780601f10610fd357610100808354040283529160200191610ffe565b820191906000526020600020905b815481529060010190602001808311610fe157829003601f168201915b505050505081526020016002820160009054906101000a900473ffffffffffffffffffffffffffffffffffffffff1673ffffffffffffffffffffffffffffffffffffffff1673ffffffffffffffffffffffffffffffffffffffff1681525050905060001515600460008461ffff1661ffff16815260200190815260200160002060010160009054906101000a900460ff161515146110d1576040517f08c379a00000000000000000000000000000000000000000000000000000000081526004016110c89061489f565b60405180910390fd5b8060000151611115576040517f08c379a000000000000000000000000000000000000000000000000000000000815260040161110c9061490b565b60405180910390fd5b3373ffffffffffffffffffffffffffffffffffffffff16816040015173ffffffffffffffffffffffffffffffffffffffff1614611187576040517f08c379a000000000000000000000000000000000000000000000000000000000815260040161117e90614977565b60405180910390fd5b60076000826040015173ffffffffffffffffffffffffffffffffffffffff1673ffffffffffffffffffffffffffffffffffffffff1681526020019081526020016000208460ff16815481106111df576111de614584565b5b906000526020600020906002020160010160019054906101000a900460ff1661123d576040517f08c379a0000000000000000000000000000000000000000000000000000000008152600401611234906149e3565b60405180910390fd5b60005b60068110156112d45786816006811061125c5761125b614584565b5b60200201356000111580156112885750600a87826006811061128157611280614584565b5b6020020135105b6112c7576040517f08c379a00000000000000000000000000000000000000000000000000000000081526004016112be90614a4f565b60405180910390fd5b8080600101915050611240565b50856040516020016112e69190614a88565b6040516020818303038152906040528051906020012060001c600460008461ffff1661ffff168152602001908152602001600020600001819055506001600460008461ffff1661ffff16815260200190815260200160002060010160006101000a81548160ff02191690831515021790555042816040015173ffffffffffffffffffffffffffffffffffffffff167fd826f21f737182bf828b63f749427fc75ffb76e1c1489baf5ca641e1fca4c32860405160405180910390a3505050505050565b6000600160009054906101000a900473ffffffffffffffffffffffffffffffffffffffff1673ffffffffffffffffffffffffffffffffffffffff16638c8d98a08585856040518463ffffffff1660e01b815260040161140993929190614aa3565b602060405180830381865afa158015611426573d6000803e3d6000fd5b505050506040513d601f19601f8201168201806040525081019061144a9190614aef565b90509392505050565b61145b613835565b816114658161353c565b600660008561ffff1661ffff16815260200190815260200160002060008481526020019081526020016000206040518060600160405290816000820160009054906101000a900460ff161515151581526020016001820180546114c790614553565b80601f01602080910402602001604051908101604052809291908181526020018280546114f390614553565b80156115405780601f1061151557610100808354040283529160200191611540565b820191906000526020600020905b81548152906001019060200180831161152357829003601f168201915b505050505081526020016002820160009054906101000a900473ffffffffffffffffffffffffffffffffffffffff1673ffffffffffffffffffffffffffffffffffffffff1673ffffffffffffffffffffffffffffffffffffffff168152505091505092915050565b6000600560008361ffff1661ffff16815260200190815260200160002060009054906101000a900460ff169050919050565b6000341161161d576040517f08c379a000000000000000000000000000000000000000000000000000000000815260040161161490614b68565b60405180910390fd5b80600260169054906101000a900467ffffffffffffffff1667ffffffffffffffff1661164991906144ae565b34101561168b576040517f08c379a000000000000000000000000000000000000000000000000000000000815260040161168290614bd4565b60405180910390fd5b6000600260009054906101000a900473ffffffffffffffffffffffffffffffffffffffff1673ffffffffffffffffffffffffffffffffffffffff1682600260169054906101000a900467ffffffffffffffff1667ffffffffffffffff166116f291906144ae565b6040516116fe90614c25565b60006040518083038185875af1925050503d806000811461173b576040519150601f19603f3d011682016040523d82523d6000602084013e611740565b606091505b5050905080611784576040517f08c379a000000000000000000000000000000000000000000000000000000000815260040161177b90614c86565b60405180910390fd5b600082600260169054906101000a900467ffffffffffffffff1667ffffffffffffffff166117b291906144ae565b346117bd9190614ca6565b905060008167ffffffffffffffff161115611824573373ffffffffffffffffffffffffffffffffffffffff166108fc8267ffffffffffffffff169081150290604051600060405180830381858888f19350505050158015611822573d6000803e3d6000fd5b505b60008054906101000a900473ffffffffffffffffffffffffffffffffffffffff1673ffffffffffffffffffffffffffffffffffffffff166379c6506833856040518363ffffffff1660e01b815260040161187f929190614cda565b600060405180830381600087803b15801561189957600080fd5b505af11580156118ad573d6000803e3d6000fd5b50505050600260169054906101000a900467ffffffffffffffff1667ffffffffffffffff163373ffffffffffffffffffffffffffffffffffffffff167fef3994179b0230a18df9ee1700885c1c5ee5d13c646f1ea898572e5df8761d54856040516119189190613c41565b60405180910390a3505050565b60008060009054906101000a900473ffffffffffffffffffffffffffffffffffffffff1673ffffffffffffffffffffffffffffffffffffffff166370a08231836040518263ffffffff1660e01b81526004016119819190614d03565b602060405180830381865afa15801561199e573d6000803e3d6000fd5b505050506040513d601f19601f820116820180604052508101906119c29190614aef565b9050919050565b60008054906101000a900473ffffffffffffffffffffffffffffffffffffffff1681565b6000600460008361ffff1661ffff16815260200190815260200160002060010160009054906101000a900460ff169050919050565b6060600760008373ffffffffffffffffffffffffffffffffffffffff1673ffffffffffffffffffffffffffffffffffffffff168152602001908152602001600020805480602002602001604051908101604052809291908181526020016000905b82821015611b175783829060005260206000209060020201604051806080016040529081600082015481526020016001820160009054906101000a900460ff1660ff1660ff1681526020016001820160019054906101000a900460ff161515151581526020016001820160029054906101000a900461ffff1661ffff1661ffff168152505081526020019060010190611a83565b505050509050919050565b81611b2c8161353c565b6000600760003373ffffffffffffffffffffffffffffffffffffffff1673ffffffffffffffffffffffffffffffffffffffff1681526020019081526020016000208360ff1681548110611b8257611b81614584565b5b906000526020600020906002020160010160029054906101000a900461ffff1690506000600660008361ffff1661ffff16815260200190815260200160002060008681526020019081526020016000206040518060600160405290816000820160009054906101000a900460ff16151515158152602001600182018054611c0890614553565b80601f0160208091040260200160405190810160405280929190818152602001828054611c3490614553565b8015611c815780601f10611c5657610100808354040283529160200191611c81565b820191906000526020600020905b815481529060010190602001808311611c6457829003601f168201915b505050505081526020016002820160009054906101000a900473ffffffffffffffffffffffffffffffffffffffff1673ffffffffffffffffffffffffffffffffffffffff1673ffffffffffffffffffffffffffffffffffffffff168152505090508060000151611d26576040517f08c379a0000000000000000000000000000000000000000000000000000000008152600401611d1d9061490b565b60405180910390fd5b3373ffffffffffffffffffffffffffffffffffffffff16816040015173ffffffffffffffffffffffffffffffffffffffff1614611d98576040517f08c379a0000000000000000000000000000000000000000000000000000000008152600401611d8f90614977565b60405180910390fd5b60011515600760003373ffffffffffffffffffffffffffffffffffffffff1673ffffffffffffffffffffffffffffffffffffffff1681526020019081526020016000208560ff1681548110611df057611def614584565b5b906000526020600020906002020160010160019054906101000a900460ff16151503611e51576040517f08c379a0000000000000000000000000000000000000000000000000000000008152600401611e4890614d6a565b60405180910390fd5b6001600760003373ffffffffffffffffffffffffffffffffffffffff1673ffffffffffffffffffffffffffffffffffffffff1681526020019081526020016000208560ff1681548110611ea757611ea6614584565b5b906000526020600020906002020160010160016101000a81548160ff021916908315150217905550423373ffffffffffffffffffffffffffffffffffffffff167fdddb6e14f7f2101397a6526aab95e964de7f1f44ed06aa47a1c9a0e6b992445660405160405180910390a35050505050565b81611f248161353c565b6000600760003373ffffffffffffffffffffffffffffffffffffffff1673ffffffffffffffffffffffffffffffffffffffff1681526020019081526020016000208360ff1681548110611f7a57611f79614584565b5b906000526020600020906002020160010160029054906101000a900461ffff1690506000600660008361ffff1661ffff16815260200190815260200160002060008681526020019081526020016000206040518060600160405290816000820160009054906101000a900460ff1615151515815260200160018201805461200090614553565b80601f016020809104026020016040519081016040528092919081815260200182805461202c90614553565b80156120795780601f1061204e57610100808354040283529160200191612079565b820191906000526020600020905b81548152906001019060200180831161205c57829003601f168201915b505050505081526020016002820160009054906101000a900473ffffffffffffffffffffffffffffffffffffffff1673ffffffffffffffffffffffffffffffffffffffff1673ffffffffffffffffffffffffffffffffffffffff16815250509050806000015161211e576040517f08c379a00000000000000000000000000000000000000000000000000000000081526004016121159061490b565b60405180910390fd5b3373ffffffffffffffffffffffffffffffffffffffff16816040015173ffffffffffffffffffffffffffffffffffffffff1614612190576040517f08c379a000000000000000000000000000000000000000000000000000000000815260040161218790614977565b60405180910390fd5b60076000826040015173ffffffffffffffffffffffffffffffffffffffff1673ffffffffffffffffffffffffffffffffffffffff1681526020019081526020016000208460ff16815481106121e8576121e7614584565b5b906000526020600020906002020160010160019054906101000a900460ff16612246576040517f08c379a000000000000000000000000000000000000000000000000000000000815260040161223d906149e3565b60405180910390fd5b60001515600560008461ffff1661ffff16815260200190815260200160002060009054906101000a900460ff161515146122b5576040517f08c379a00000000000000000000000000000000000000000000000000000000081526004016122ac90614dd6565b60405180910390fd5b60011515600460008461ffff1661ffff16815260200190815260200160002060010160009054906101000a900460ff16151514612327576040517f08c379a000000000000000000000000000000000000000000000000000000000815260040161231e90614e42565b60405180910390fd5b856040516020016123389190614a88565b6040516020818303038152906040528051906020012060001c600460008461ffff1661ffff16815260200190815260200160002060000154146123b0576040517f08c379a00000000000000000000000000000000000000000000000000000000081526004016123a790614eae565b60405180910390fd5b6001600560008461ffff1661ffff16815260200190815260200160002060006101000a81548160ff02191690831515021790555042816040015173ffffffffffffffffffffffffffffffffffffffff167f3c3a029638e50549fcf21d2bc98c74b6f2cbc3a0539148a77068067a5fa835d560405160405180910390a3505050505050565b600260009054906101000a900473ffffffffffffffffffffffffffffffffffffffff1673ffffffffffffffffffffffffffffffffffffffff163373ffffffffffffffffffffffffffffffffffffffff16146124c4576040517f08c379a00000000000000000000000000000000000000000000000000000000081526004016124bb90614f1a565b60405180910390fd5b60008167ffffffffffffffff1611612511576040517f08c379a000000000000000000000000000000000000000000000000000000000815260040161250890614f86565b60405180910390fd5b6000600260169054906101000a900467ffffffffffffffff16905081600260166101000a81548167ffffffffffffffff021916908367ffffffffffffffff1602179055508167ffffffffffffffff168167ffffffffffffffff167f77faaf6939a2630a2ba13517d99b9033741224f833291e662af2a4374f75f66060405160405180910390a35050565b60035481565b848061ffff166000111580156125cf5750600260149054906101000a900461ffff1661ffff168161ffff1611155b61260e576040517f08c379a0000000000000000000000000000000000000000000000000000000008152600401612605906143c4565b60405180910390fd5b84848080601f016020809104026020016040519081016040528093929190818152602001838380828437600081840152601f19601f820116905080830192505050505050506000815103612697576040517f08c379a000000000000000000000000000000000000000000000000000000000815260040161268e90614ff2565b60405180910390fd5b836126a18161353c565b8360008160ff16116126e8576040517f08c379a00000000000000000000000000000000000000000000000000000000081526004016126df9061505e565b60405180910390fd5b60008054906101000a900473ffffffffffffffffffffffffffffffffffffffff1673ffffffffffffffffffffffffffffffffffffffff1663d1df306c33876040518363ffffffff1660e01b815260040161274392919061480f565b600060405180830381600087803b15801561275d57600080fd5b505af1158015612771573d6000803e3d6000fd5b5050505060005b8560ff168110156129695760011515600660008c61ffff1661ffff168152602001908152602001600020600083620151806127b391906144ae565b8a6127be91906144f0565b815260200190815260200160002060000160009054906101000a900460ff1615150361281f576040517f08c379a0000000000000000000000000000000000000000000000000000000008152600401612816906150ca565b60405180910390fd5b60405180606001604052806001151581526020018a8a8080601f016020809104026020016040519081016040528093929190818152602001838380828437600081840152601f19601f8201169050808301925050505050505081526020013373ffffffffffffffffffffffffffffffffffffffff16815250600660008c61ffff1661ffff168152602001908152602001600020600083620151806128c391906144ae565b8a6128ce91906144f0565b815260200190815260200160002060008201518160000160006101000a81548160ff0219169083151502179055506020820151816001019081612911919061528c565b5060408201518160020160006101000a81548173ffffffffffffffffffffffffffffffffffffffff021916908373ffffffffffffffffffffffffffffffffffffffff1602179055509050508080600101915050612778565b50600760003373ffffffffffffffffffffffffffffffffffffffff1673ffffffffffffffffffffffffffffffffffffffff16815260200190815260200160002060405180608001604052808881526020018760ff1681526020016000151581526020018b61ffff1681525090806001815401808255809150506001900390600052602060002090600202016000909190919091506000820151816000015560208201518160010160006101000a81548160ff021916908360ff16021790555060408201518160010160016101000a81548160ff02191690831515021790555060608201518160010160026101000a81548161ffff021916908361ffff16021790555050508460ff16863373ffffffffffffffffffffffffffffffffffffffff167fc5a2baf4d2037971b8ab82e24faec0484f144dab6377694d628ce3e3ef35e7b48c604051612ab8919061429f565b60405180910390a4505050505050505050565b60056020528060005260406000206000915054906101000a900460ff1681565b600260009054906101000a900473ffffffffffffffffffffffffffffffffffffffff1681565b612b1961386e565b600760003373ffffffffffffffffffffffffffffffffffffffff1673ffffffffffffffffffffffffffffffffffffffff1681526020019081526020016000208260ff1681548110612b6d57612b6c614584565b5b9060005260206000209060020201604051806080016040529081600082015481526020016001820160009054906101000a900460ff1660ff1660ff1681526020016001820160019054906101000a900460ff161515151581526020016001820160029054906101000a900461ffff1661ffff1661ffff16815250509050919050565b81612bf98161353c565b6000600760003373ffffffffffffffffffffffffffffffffffffffff1673ffffffffffffffffffffffffffffffffffffffff1681526020019081526020016000208360ff1681548110612c4f57612c4e614584565b5b906000526020600020906002020160010160029054906101000a900461ffff1690506000600660008361ffff1661ffff16815260200190815260200160002060008681526020019081526020016000206040518060600160405290816000820160009054906101000a900460ff16151515158152602001600182018054612cd590614553565b80601f0160208091040260200160405190810160405280929190818152602001828054612d0190614553565b8015612d4e5780601f10612d2357610100808354040283529160200191612d4e565b820191906000526020600020905b815481529060010190602001808311612d3157829003601f168201915b505050505081526020016002820160009054906101000a900473ffffffffffffffffffffffffffffffffffffffff1673ffffffffffffffffffffffffffffffffffffffff1673ffffffffffffffffffffffffffffffffffffffff168152505090508060000151612df3576040517f08c379a0000000000000000000000000000000000000000000000000000000008152600401612dea9061490b565b60405180910390fd5b3373ffffffffffffffffffffffffffffffffffffffff16816040015173ffffffffffffffffffffffffffffffffffffffff1614612e65576040517f08c379a0000000000000000000000000000000000000000000000000000000008152600401612e5c90614977565b60405180910390fd5b60011515600760003373ffffffffffffffffffffffffffffffffffffffff1673ffffffffffffffffffffffffffffffffffffffff1681526020019081526020016000208560ff1681548110612ebd57612ebc614584565b5b906000526020600020906002020160010160019054906101000a900460ff16151514612f1e576040517f08c379a0000000000000000000000000000000000000000000000000000000008152600401612f15906149e3565b60405180910390fd5b6000600460008461ffff1661ffff16815260200190815260200160002060010160006101000a81548160ff0219169083151502179055506000600760003373ffffffffffffffffffffffffffffffffffffffff1673ffffffffffffffffffffffffffffffffffffffff1681526020019081526020016000208560ff1681548110612fab57612faa614584565b5b906000526020600020906002020160010160016101000a81548160ff021916908315150217905550612fdc8461358c565b423373ffffffffffffffffffffffffffffffffffffffff167f5f56f72b1cd7de6f6d20a960c3287ccb7d1acbc0e44f96885c6ab556eae102ea60405160405180910390a35050505050565b600260149054906101000a900461ffff1681565b6007602052816000526040600020818154811061305757600080fd5b9060005260206000209060020201600091509150508060000154908060010160009054906101000a900460ff16908060010160019054906101000a900460ff16908060010160029054906101000a900461ffff16905084565b816130ba8161353c565b6000600760003373ffffffffffffffffffffffffffffffffffffffff1673ffffffffffffffffffffffffffffffffffffffff1681526020019081526020016000208360ff16815481106131105761310f614584565b5b906000526020600020906002020160010160029054906101000a900461ffff1690506000600660008361ffff1661ffff16815260200190815260200160002060008681526020019081526020016000206040518060600160405290816000820160009054906101000a900460ff1615151515815260200160018201805461319690614553565b80601f01602080910402602001604051908101604052809291908181526020018280546131c290614553565b801561320f5780601f106131e45761010080835404028352916020019161320f565b820191906000526020600020905b8154815290600101906020018083116131f257829003601f168201915b505050505081526020016002820160009054906101000a900473ffffffffffffffffffffffffffffffffffffffff1673ffffffffffffffffffffffffffffffffffffffff1673ffffffffffffffffffffffffffffffffffffffff1681525050905080600001516132b4576040517f08c379a00000000000000000000000000000000000000000000000000000000081526004016132ab9061490b565b60405180910390fd5b3373ffffffffffffffffffffffffffffffffffffffff16816040015173ffffffffffffffffffffffffffffffffffffffff1614613326576040517f08c379a000000000000000000000000000000000000000000000000000000000815260040161331d90614977565b60405180910390fd5b60076000826040015173ffffffffffffffffffffffffffffffffffffffff1673ffffffffffffffffffffffffffffffffffffffff1681526020019081526020016000208460ff168154811061337e5761337d614584565b5b906000526020600020906002020160010160019054906101000a900460ff166133dc576040517f08c379a00000000000000000000000000000000000000000000000000000000081526004016133d3906149e3565b60405180910390fd5b60011515600560008461ffff1661ffff16815260200190815260200160002060009054906101000a900460ff1615151461344b576040517f08c379a0000000000000000000000000000000000000000000000000000000008152600401613442906153aa565b60405180910390fd5b6000600560008461ffff1661ffff16815260200190815260200160002060006101000a81548160ff02191690831515021790555042816040015173ffffffffffffffffffffffffffffffffffffffff167fe85a5ce681f084327d67d7953b5e80a0b2a6d1150ca58b700b61259d7276ae3d60405160405180910390a35050505050565b600260169054906101000a900467ffffffffffffffff1681565b600062015180826134f991906153f9565b14613539576040517f08c379a000000000000000000000000000000000000000000000000000000000815260040161353090615476565b60405180910390fd5b50565b6003548111613580576040517f08c379a0000000000000000000000000000000000000000000000000000000008152600401613577906154e2565b60405180910390fd5b613589816134e8565b50565b600760003373ffffffffffffffffffffffffffffffffffffffff1673ffffffffffffffffffffffffffffffffffffffff168152602001908152602001600020805490508160ff16106135dd57600080fd5b600760003373ffffffffffffffffffffffffffffffffffffffff1673ffffffffffffffffffffffffffffffffffffffff1681526020019081526020016000206001600760003373ffffffffffffffffffffffffffffffffffffffff1673ffffffffffffffffffffffffffffffffffffffff1681526020019081526020016000208054905061366b9190614ca6565b8154811061367c5761367b614584565b5b9060005260206000209060020201600760003373ffffffffffffffffffffffffffffffffffffffff1673ffffffffffffffffffffffffffffffffffffffff1681526020019081526020016000208260ff16815481106136de576136dd614584565b5b9060005260206000209060020201600082015481600001556001820160009054906101000a900460ff168160010160006101000a81548160ff021916908360ff1602179055506001820160019054906101000a900460ff168160010160016101000a81548160ff0219169083151502179055506001820160029054906101000a900461ffff168160010160026101000a81548161ffff021916908361ffff160217905550905050600760003373ffffffffffffffffffffffffffffffffffffffff1673ffffffffffffffffffffffffffffffffffffffff1681526020019081526020016000208054806137d4576137d3615502565b5b60019003818190600052602060002090600202016000808201600090556001820160006101000a81549060ff02191690556001820160016101000a81549060ff02191690556001820160026101000a81549061ffff02191690555050905550565b604051806060016040528060001515815260200160608152602001600073ffffffffffffffffffffffffffffffffffffffff1681525090565b604051806080016040528060008152602001600060ff168152602001600015158152602001600061ffff1681525090565b600080fd5b600080fd5b600061ffff82169050919050565b6138c0816138a9565b81146138cb57600080fd5b50565b6000813590506138dd816138b7565b92915050565b6000819050919050565b6138f6816138e3565b811461390157600080fd5b50565b600081359050613913816138ed565b92915050565b600060ff82169050919050565b61392f81613919565b811461393a57600080fd5b50565b60008135905061394c81613926565b92915050565b60008060006060848603121561396b5761396a61389f565b5b6000613979868287016138ce565b935050602061398a86828701613904565b925050604061399b8682870161393d565b9150509250925092565b600081519050919050565b600082825260208201905092915050565b6000819050602082019050919050565b6139da816138e3565b82525050565b60006139ec83836139d1565b60208301905092915050565b6000602082019050919050565b6000613a10826139a5565b613a1a81856139b0565b9350613a25836139c1565b8060005b83811015613a56578151613a3d88826139e0565b9750613a48836139f8565b925050600181019050613a29565b5085935050505092915050565b60006020820190508181036000830152613a7d8184613a05565b905092915050565b600081519050919050565b600082825260208201905092915050565b60005b83811015613abf578082015181840152602081019050613aa4565b60008484015250505050565b6000601f19601f8301169050919050565b6000613ae782613a85565b613af18185613a90565b9350613b01818560208601613aa1565b613b0a81613acb565b840191505092915050565b60006020820190508181036000830152613b2f8184613adc565b905092915050565b600060208284031215613b4d57613b4c61389f565b5b6000613b5b8482850161393d565b91505092915050565b600080fd5b600081905082602060060282011115613b8557613b84613b64565b5b92915050565b60008060006101008486031215613ba557613ba461389f565b5b6000613bb386828701613b69565b93505060c0613bc486828701613904565b92505060e0613bd58682870161393d565b9150509250925092565b600080600060608486031215613bf857613bf761389f565b5b6000613c06868287016138ce565b9350506020613c178682870161393d565b9250506040613c288682870161393d565b9150509250925092565b613c3b816138e3565b82525050565b6000602082019050613c566000830184613c32565b92915050565b60008060408385031215613c7357613c7261389f565b5b6000613c81858286016138ce565b9250506020613c9285828601613904565b9150509250929050565b60008115159050919050565b613cb181613c9c565b82525050565b600082825260208201905092915050565b6000613cd382613a85565b613cdd8185613cb7565b9350613ced818560208601613aa1565b613cf681613acb565b840191505092915050565b600073ffffffffffffffffffffffffffffffffffffffff82169050919050565b6000613d2c82613d01565b9050919050565b613d3c81613d21565b82525050565b6000606083016000830151613d5a6000860182613ca8565b5060208301518482036020860152613d728282613cc8565b9150506040830151613d876040860182613d33565b508091505092915050565b60006020820190508181036000830152613dac8184613d42565b905092915050565b600060208284031215613dca57613dc961389f565b5b6000613dd8848285016138ce565b91505092915050565b613dea81613c9c565b82525050565b6000602082019050613e056000830184613de1565b92915050565b600060208284031215613e2157613e2061389f565b5b6000613e2f84828501613904565b91505092915050565b613e4181613d21565b8114613e4c57600080fd5b50565b600081359050613e5e81613e38565b92915050565b600060208284031215613e7a57613e7961389f565b5b6000613e8884828501613e4f565b91505092915050565b6000819050919050565b6000613eb6613eb1613eac84613d01565b613e91565b613d01565b9050919050565b6000613ec882613e9b565b9050919050565b6000613eda82613ebd565b9050919050565b613eea81613ecf565b82525050565b6000602082019050613f056000830184613ee1565b92915050565b600081519050919050565b600082825260208201905092915050565b6000819050602082019050919050565b613f4081613919565b82525050565b613f4f816138a9565b82525050565b608082016000820151613f6b60008501826139d1565b506020820151613f7e6020850182613f37565b506040820151613f916040850182613ca8565b506060820151613fa46060850182613f46565b50505050565b6000613fb68383613f55565b60808301905092915050565b6000602082019050919050565b6000613fda82613f0b565b613fe48185613f16565b9350613fef83613f27565b8060005b838110156140205781516140078882613faa565b975061401283613fc2565b925050600181019050613ff3565b5085935050505092915050565b600060208201905081810360008301526140478184613fcf565b905092915050565b600080604083850312156140665761406561389f565b5b600061407485828601613904565b92505060206140858582860161393d565b9150509250929050565b600067ffffffffffffffff82169050919050565b6140ac8161408f565b81146140b757600080fd5b50565b6000813590506140c9816140a3565b92915050565b6000602082840312156140e5576140e461389f565b5b60006140f3848285016140ba565b91505092915050565b600080fd5b600080fd5b60008083601f84011261411c5761411b6140fc565b5b8235905067ffffffffffffffff81111561413957614138614101565b5b60208301915083600182028301111561415557614154613b64565b5b9250929050565b6000806000806000608086880312156141785761417761389f565b5b6000614186888289016138ce565b955050602086013567ffffffffffffffff8111156141a7576141a66138a4565b5b6141b388828901614106565b945094505060406141c688828901613904565b92505060606141d78882890161393d565b9150509295509295909350565b60006141ef82613d01565b9050919050565b6141ff816141e4565b82525050565b600060208201905061421a60008301846141f6565b92915050565b60808201600082015161423660008501826139d1565b5060208201516142496020850182613f37565b50604082015161425c6040850182613ca8565b50606082015161426f6060850182613f46565b50505050565b600060808201905061428a6000830184614220565b92915050565b614299816138a9565b82525050565b60006020820190506142b46000830184614290565b92915050565b600080604083850312156142d1576142d061389f565b5b60006142df85828601613e4f565b92505060206142f085828601613904565b9150509250929050565b61430381613919565b82525050565b600060808201905061431e6000830187613c32565b61432b60208301866142fa565b6143386040830185613de1565b6143456060830184614290565b95945050505050565b6143578161408f565b82525050565b6000602082019050614372600083018461434e565b92915050565b7f496e76616c696420726f6f6d2049640000000000000000000000000000000000600082015250565b60006143ae600f83613a90565b91506143b982614378565b602082019050919050565b600060208201905081810360008301526143dd816143a1565b9050919050565b7f312d333635000000000000000000000000000000000000000000000000000000600082015250565b600061441a600583613a90565b9150614425826143e4565b602082019050919050565b600060208201905081810360008301526144498161440d565b9050919050565b7f4e487b7100000000000000000000000000000000000000000000000000000000600052604160045260246000fd5b7f4e487b7100000000000000000000000000000000000000000000000000000000600052601160045260246000fd5b60006144b9826138e3565b91506144c4836138e3565b92508282026144d2816138e3565b915082820484148315176144e9576144e861447f565b5b5092915050565b60006144fb826138e3565b9150614506836138e3565b925082820190508082111561451e5761451d61447f565b5b92915050565b7f4e487b7100000000000000000000000000000000000000000000000000000000600052602260045260246000fd5b6000600282049050600182168061456b57607f821691505b60208210810361457e5761457d614524565b5b50919050565b7f4e487b7100000000000000000000000000000000000000000000000000000000600052603260045260246000fd5b7f596f75206861766520616c726561647920636865636b656420696e0000000000600082015250565b60006145e9601b83613a90565b91506145f4826145b3565b602082019050919050565b60006020820190508181036000830152614618816145dc565b9050919050565b7f6e6f20626f6f6b696e6720666f756e6400000000000000000000000000000000600082015250565b6000614655601083613a90565b91506146608261461f565b602082019050919050565b6000602082019050818103600083015261468481614648565b9050919050565b7f63616e6e6f742063616e63656c206576656e747320696e207468652070617374600082015250565b60006146c1602083613a90565b91506146cc8261468b565b602082019050919050565b600060208201905081810360008301526146f0816146b4565b9050919050565b7f6e6f74206578697374206170706f000000000000000000000000000000000000600082015250565b600061472d600e83613a90565b9150614738826146f7565b602082019050919050565b6000602082019050818103600083015261475c81614720565b9050919050565b7f596f7520686176656e2774206170706f00000000000000000000000000000000600082015250565b6000614799601083613a90565b91506147a482614763565b602082019050919050565b600060208201905081810360008301526147c88161478c565b9050919050565b6147d881613d21565b82525050565b60006147f96147f46147ef84613919565b613e91565b6138e3565b9050919050565b614809816147de565b82525050565b600060408201905061482460008301856147cf565b6148316020830184614800565b9392505050565b600060208201905061484d60008301846142fa565b92915050565b7f596f75206861766520616c726561647920736574207061737300000000000000600082015250565b6000614889601983613a90565b915061489482614853565b602082019050919050565b600060208201905081810360008301526148b88161487c565b9050919050565b7f4e6f206170706f20657869737473000000000000000000000000000000000000600082015250565b60006148f5600e83613a90565b9150614900826148bf565b602082019050919050565b60006020820190508181036000830152614924816148e8565b9050919050565b7f596f752068617665206e6f206170706f00000000000000000000000000000000600082015250565b6000614961601083613a90565b915061496c8261492b565b602082019050919050565b6000602082019050818103600083015261499081614954565b9050919050565b7f596f752068617665206e6f7420636865636b656420696e000000000000000000600082015250565b60006149cd601783613a90565b91506149d882614997565b602082019050919050565b600060208201905081810360008301526149fc816149c0565b9050919050565b7f70617373776f7264206d75737420626520366e756d0000000000000000000000600082015250565b6000614a39601583613a90565b9150614a4482614a03565b602082019050919050565b60006020820190508181036000830152614a6881614a2c565b9050919050565b82818337505050565b614a8460c08383614a6f565b5050565b6000614a948284614a78565b60c08201915081905092915050565b6000606082019050614ab86000830186614290565b614ac560208301856142fa565b614ad260408301846142fa565b949350505050565b600081519050614ae9816138ed565b92915050565b600060208284031215614b0557614b0461389f565b5b6000614b1384828501614ada565b91505092915050565b7f6e6f206574686572000000000000000000000000000000000000000000000000600082015250565b6000614b52600883613a90565b9150614b5d82614b1c565b602082019050919050565b60006020820190508181036000830152614b8181614b45565b9050919050565b7f6e6f7420656e6f75676820657468657200000000000000000000000000000000600082015250565b6000614bbe601083613a90565b9150614bc982614b88565b602082019050919050565b60006020820190508181036000830152614bed81614bb1565b9050919050565b600081905092915050565b50565b6000614c0f600083614bf4565b9150614c1a82614bff565b600082019050919050565b6000614c3082614c02565b9150819050919050565b7f4661696c656420746f2073656e64000000000000000000000000000000000000600082015250565b6000614c70600e83613a90565b9150614c7b82614c3a565b602082019050919050565b60006020820190508181036000830152614c9f81614c63565b9050919050565b6000614cb1826138e3565b9150614cbc836138e3565b9250828203905081811115614cd457614cd361447f565b5b92915050565b6000604082019050614cef60008301856147cf565b614cfc6020830184613c32565b9392505050565b6000602082019050614d1860008301846147cf565b92915050565b7f616c726561647920636865636b656420696e0000000000000000000000000000600082015250565b6000614d54601283613a90565b9150614d5f82614d1e565b602082019050919050565b60006020820190508181036000830152614d8381614d47565b9050919050565b7f616c7265616479206f70656e6564000000000000000000000000000000000000600082015250565b6000614dc0600e83613a90565b9150614dcb82614d8a565b602082019050919050565b60006020820190508181036000830152614def81614db3565b9050919050565b7f506c656173652073657420796f75722070617373776f72640000000000000000600082015250565b6000614e2c601883613a90565b9150614e3782614df6565b602082019050919050565b60006020820190508181036000830152614e5b81614e1f565b9050919050565b7f696e636f72726563742070617373776f72640000000000000000000000000000600082015250565b6000614e98601283613a90565b9150614ea382614e62565b602082019050919050565b60006020820190508181036000830152614ec781614e8b565b9050919050565b7f6f6e6c79206f776e657200000000000000000000000000000000000000000000600082015250565b6000614f04600a83613a90565b9150614f0f82614ece565b602082019050919050565b60006020820190508181036000830152614f3381614ef7565b9050919050565b7f61626f7665207a65726f00000000000000000000000000000000000000000000600082015250565b6000614f70600a83613a90565b9150614f7b82614f3a565b602082019050919050565b60006020820190508181036000830152614f9f81614f63565b9050919050565b7f626c616e6b000000000000000000000000000000000000000000000000000000600082015250565b6000614fdc600583613a90565b9150614fe782614fa6565b602082019050919050565b6000602082019050818103600083015261500b81614fcf565b9050919050565b7f61626f7665203000000000000000000000000000000000000000000000000000600082015250565b6000615048600783613a90565b915061505382615012565b602082019050919050565b600060208201905081810360008301526150778161503b565b9050919050565b7f4170706f696e746d656e7420616c726561647920657869737473000000000000600082015250565b60006150b4601a83613a90565b91506150bf8261507e565b602082019050919050565b600060208201905081810360008301526150e3816150a7565b9050919050565b60008190508160005260206000209050919050565b60006020601f8301049050919050565b600082821b905092915050565b60006008830261514c7fffffffffffffffffffffffffffffffffffffffffffffffffffffffffffffffff8261510f565b615156868361510f565b95508019841693508086168417925050509392505050565b600061518961518461517f846138e3565b613e91565b6138e3565b9050919050565b6000819050919050565b6151a38361516e565b6151b76151af82615190565b84845461511c565b825550505050565b600090565b6151cc6151bf565b6151d781848461519a565b505050565b5b818110156151fb576151f06000826151c4565b6001810190506151dd565b5050565b601f82111561524057615211816150ea565b61521a846150ff565b81016020851015615229578190505b61523d615235856150ff565b8301826151dc565b50505b505050565b600082821c905092915050565b600061526360001984600802615245565b1980831691505092915050565b600061527c8383615252565b9150826002028217905092915050565b61529582613a85565b67ffffffffffffffff8111156152ae576152ad614450565b5b6152b88254614553565b6152c38282856151ff565b600060209050601f8311600181146152f657600084156152e4578287015190505b6152ee8582615270565b865550615356565b601f198416615304866150ea565b60005b8281101561532c57848901518255600182019150602085019450602081019050615307565b868310156153495784890151615345601f891682615252565b8355505b6001600288020188555050505b505050505050565b7f616c726561647920636c6f736564000000000000000000000000000000000000600082015250565b6000615394600e83613a90565b915061539f8261535e565b602082019050919050565b600060208201905081810360008301526153c381615387565b9050919050565b7f4e487b7100000000000000000000000000000000000000000000000000000000600052601260045260246000fd5b6000615404826138e3565b915061540f836138e3565b92508261541f5761541e6153ca565b5b828206905092915050565b7f6d6f642038363430300000000000000000000000000000000000000000000000600082015250565b6000615460600983613a90565b915061546b8261542a565b602082019050919050565b6000602082019050818103600083015261548f81615453565b9050919050565b7f6265666f7265206465706c6f7900000000000000000000000000000000000000600082015250565b60006154cc600d83613a90565b91506154d782615496565b602082019050919050565b600060208201905081810360008301526154fb816154bf565b9050919050565b7f4e487b7100000000000000000000000000000000000000000000000000000000600052603160045260246000fdfea2646970667358221220cb3265989e9f0a48e93b79f8287533c4fc72e8c39a4dbcf89bd0f9a1c16a963b64736f6c634300081300336080604052604051620016ae380380620016ae83398181016040528101906200002991906200016d565b6040518060400160405280600a81526020017f486f74656c546f6b656e000000000000000000000000000000000000000000008152506040518060400160405280600381526020017f48546f00000000000000000000000000000000000000000000000000000000008152508160039081620000a6919062000419565b508060049081620000b8919062000419565b50505080600560006101000a81548173ffffffffffffffffffffffffffffffffffffffff021916908373ffffffffffffffffffffffffffffffffffffffff1602179055505062000500565b600080fd5b600073ffffffffffffffffffffffffffffffffffffffff82169050919050565b6000620001358262000108565b9050919050565b620001478162000128565b81146200015357600080fd5b50565b60008151905062000167816200013c565b92915050565b60006020828403121562000186576200018562000103565b5b6000620001968482850162000156565b91505092915050565b600081519050919050565b7f4e487b7100000000000000000000000000000000000000000000000000000000600052604160045260246000fd5b7f4e487b7100000000000000000000000000000000000000000000000000000000600052602260045260246000fd5b600060028204905060018216806200022157607f821691505b602082108103620002375762000236620001d9565b5b50919050565b60008190508160005260206000209050919050565b60006020601f8301049050919050565b600082821b905092915050565b600060088302620002a17fffffffffffffffffffffffffffffffffffffffffffffffffffffffffffffffff8262000262565b620002ad868362000262565b95508019841693508086168417925050509392505050565b6000819050919050565b6000819050919050565b6000620002fa620002f4620002ee84620002c5565b620002cf565b620002c5565b9050919050565b6000819050919050565b6200031683620002d9565b6200032e620003258262000301565b8484546200026f565b825550505050565b600090565b6200034562000336565b620003528184846200030b565b505050565b5b818110156200037a576200036e6000826200033b565b60018101905062000358565b5050565b601f821115620003c95762000393816200023d565b6200039e8462000252565b81016020851015620003ae578190505b620003c6620003bd8562000252565b83018262000357565b50505b505050565b600082821c905092915050565b6000620003ee60001984600802620003ce565b1980831691505092915050565b6000620004098383620003db565b9150826002028217905092915050565b62000424826200019f565b67ffffffffffffffff81111562000440576200043f620001aa565b5b6200044c825462000208565b620004598282856200037e565b600060209050601f8311600181146200049157600084156200047c578287015190505b620004888582620003fb565b865550620004f8565b601f198416620004a1866200023d565b60005b82811015620004cb57848901518255600182019150602085019450602081019050620004a4565b86831015620004eb5784890151620004e7601f891682620003db565b8355505b6001600288020188555050505b505050505050565b61119e80620005106000396000f3fe608060405234801561001057600080fd5b50600436106100b45760003560e01c806379c650681161007157806379c65068146101a35780638da5cb5b146101bf57806395d89b41146101dd578063a9059cbb146101fb578063d1df306c1461022b578063dd62ed3e14610247576100b4565b806306fdde03146100b9578063095ea7b3146100d757806318160ddd1461010757806323b872dd14610125578063313ce5671461015557806370a0823114610173575b600080fd5b6100c1610277565b6040516100ce9190610d86565b60405180910390f35b6100f160048036038101906100ec9190610e41565b610309565b6040516100fe9190610e9c565b60405180910390f35b61010f61032c565b60405161011c9190610ec6565b60405180910390f35b61013f600480360381019061013a9190610ee1565b610336565b60405161014c9190610e9c565b60405180910390f35b61015d610365565b60405161016a9190610f50565b60405180910390f35b61018d60048036038101906101889190610f6b565b61036e565b60405161019a9190610ec6565b60405180910390f35b6101bd60048036038101906101b89190610e41565b6103b6565b005b6101c7610454565b6040516101d49190610fa7565b60405180910390f35b6101e561047a565b6040516101f29190610d86565b60405180910390f35b61021560048036038101906102109190610e41565b61050c565b6040516102229190610e9c565b60405180910390f35b61024560048036038101906102409190610e41565b61052f565b005b610261600480360381019061025c9190610fc2565b6105cd565b60405161026e9190610ec6565b60405180910390f35b60606003805461028690611031565b80601f01602080910402602001604051908101604052809291908181526020018280546102b290611031565b80156102ff5780601f106102d4576101008083540402835291602001916102ff565b820191906000526020600020905b8154815290600101906020018083116102e257829003601f168201915b5050505050905090565b600080610314610654565b905061032181858561065c565b600191505092915050565b6000600254905090565b600080610341610654565b905061034e85828561066e565b610359858585610702565b60019150509392505050565b60006012905090565b60008060008373ffffffffffffffffffffffffffffffffffffffff1673ffffffffffffffffffffffffffffffffffffffff168152602001908152602001600020549050919050565b600560009054906101000a900473ffffffffffffffffffffffffffffffffffffffff1673ffffffffffffffffffffffffffffffffffffffff163373ffffffffffffffffffffffffffffffffffffffff1614610446576040517f08c379a000000000000000000000000000000000000000000000000000000000815260040161043d906110ae565b60405180910390fd5b61045082826107f6565b5050565b600560009054906101000a900473ffffffffffffffffffffffffffffffffffffffff1681565b60606004805461048990611031565b80601f01602080910402602001604051908101604052809291908181526020018280546104b590611031565b80156105025780601f106104d757610100808354040283529160200191610502565b820191906000526020600020905b8154815290600101906020018083116104e557829003601f168201915b5050505050905090565b600080610517610654565b9050610524818585610702565b600191505092915050565b600560009054906101000a900473ffffffffffffffffffffffffffffffffffffffff1673ffffffffffffffffffffffffffffffffffffffff163373ffffffffffffffffffffffffffffffffffffffff16146105bf576040517f08c379a00000000000000000000000000000000000000000000000000000000081526004016105b6906110ae565b60405180910390fd5b6105c98282610878565b5050565b6000600160008473ffffffffffffffffffffffffffffffffffffffff1673ffffffffffffffffffffffffffffffffffffffff16815260200190815260200160002060008373ffffffffffffffffffffffffffffffffffffffff1673ffffffffffffffffffffffffffffffffffffffff16815260200190815260200160002054905092915050565b600033905090565b61066983838360016108fa565b505050565b600061067a84846105cd565b90507fffffffffffffffffffffffffffffffffffffffffffffffffffffffffffffffff81146106fc57818110156106ec578281836040517ffb8f41b20000000000000000000000000000000000000000000000000000000081526004016106e3939291906110ce565b60405180910390fd5b6106fb848484840360006108fa565b5b50505050565b600073ffffffffffffffffffffffffffffffffffffffff168373ffffffffffffffffffffffffffffffffffffffff16036107745760006040517f96c6fd1e00000000000000000000000000000000000000000000000000000000815260040161076b9190610fa7565b60405180910390fd5b600073ffffffffffffffffffffffffffffffffffffffff168273ffffffffffffffffffffffffffffffffffffffff16036107e65760006040517fec442f050000000000000000000000000000000000000000000000000000000081526004016107dd9190610fa7565b60405180910390fd5b6107f1838383610ad1565b505050565b600073ffffffffffffffffffffffffffffffffffffffff168273ffffffffffffffffffffffffffffffffffffffff16036108685760006040517fec442f0500000000000000000000000000000000000000000000000000000000815260040161085f9190610fa7565b60405180910390fd5b61087460008383610ad1565b5050565b600073ffffffffffffffffffffffffffffffffffffffff168273ffffffffffffffffffffffffffffffffffffffff16036108ea5760006040517f96c6fd1e0000000000000000000000000000000000000000000000000000000081526004016108e19190610fa7565b60405180910390fd5b6108f682600083610ad1565b5050565b600073ffffffffffffffffffffffffffffffffffffffff168473ffffffffffffffffffffffffffffffffffffffff160361096c5760006040517fe602df050000000000000000000000000000000000000000000000000000000081526004016109639190610fa7565b60405180910390fd5b600073ffffffffffffffffffffffffffffffffffffffff168373ffffffffffffffffffffffffffffffffffffffff16036109de5760006040517f94280d620000000000000000000000000000000000000000000000000000000081526004016109d59190610fa7565b60405180910390fd5b81600160008673ffffffffffffffffffffffffffffffffffffffff1673ffffffffffffffffffffffffffffffffffffffff16815260200190815260200160002060008573ffffffffffffffffffffffffffffffffffffffff1673ffffffffffffffffffffffffffffffffffffffff168152602001908152602001600020819055508015610acb578273ffffffffffffffffffffffffffffffffffffffff168473ffffffffffffffffffffffffffffffffffffffff167f8c5be1e5ebec7d5bd14f71427d1e84f3dd0314c0f7b2291e5b200ac8c7c3b92584604051610ac29190610ec6565b60405180910390a35b50505050565b600073ffffffffffffffffffffffffffffffffffffffff168373ffffffffffffffffffffffffffffffffffffffff1603610b23578060026000828254610b179190611134565b92505081905550610bf6565b60008060008573ffffffffffffffffffffffffffffffffffffffff1673ffffffffffffffffffffffffffffffffffffffff16815260200190815260200160002054905081811015610baf578381836040517fe450d38c000000000000000000000000000000000000000000000000000000008152600401610ba6939291906110ce565b60405180910390fd5b8181036000808673ffffffffffffffffffffffffffffffffffffffff1673ffffffffffffffffffffffffffffffffffffffff16815260200190815260200160002081905550505b600073ffffffffffffffffffffffffffffffffffffffff168273ffffffffffffffffffffffffffffffffffffffff1603610c3f5780600260008282540392505081905550610c8c565b806000808473ffffffffffffffffffffffffffffffffffffffff1673ffffffffffffffffffffffffffffffffffffffff168152602001908152602001600020600082825401925050819055505b8173ffffffffffffffffffffffffffffffffffffffff168373ffffffffffffffffffffffffffffffffffffffff167fddf252ad1be2c89b69c2b068fc378daa952ba7f163c4a11628f55a4df523b3ef83604051610ce99190610ec6565b60405180910390a3505050565b600081519050919050565b600082825260208201905092915050565b60005b83811015610d30578082015181840152602081019050610d15565b60008484015250505050565b6000601f19601f8301169050919050565b6000610d5882610cf6565b610d628185610d01565b9350610d72818560208601610d12565b610d7b81610d3c565b840191505092915050565b60006020820190508181036000830152610da08184610d4d565b905092915050565b600080fd5b600073ffffffffffffffffffffffffffffffffffffffff82169050919050565b6000610dd882610dad565b9050919050565b610de881610dcd565b8114610df357600080fd5b50565b600081359050610e0581610ddf565b92915050565b6000819050919050565b610e1e81610e0b565b8114610e2957600080fd5b50565b600081359050610e3b81610e15565b92915050565b60008060408385031215610e5857610e57610da8565b5b6000610e6685828601610df6565b9250506020610e7785828601610e2c565b9150509250929050565b60008115159050919050565b610e9681610e81565b82525050565b6000602082019050610eb16000830184610e8d565b92915050565b610ec081610e0b565b82525050565b6000602082019050610edb6000830184610eb7565b92915050565b600080600060608486031215610efa57610ef9610da8565b5b6000610f0886828701610df6565b9350506020610f1986828701610df6565b9250506040610f2a86828701610e2c565b9150509250925092565b600060ff82169050919050565b610f4a81610f34565b82525050565b6000602082019050610f656000830184610f41565b92915050565b600060208284031215610f8157610f80610da8565b5b6000610f8f84828501610df6565b91505092915050565b610fa181610dcd565b82525050565b6000602082019050610fbc6000830184610f98565b92915050565b60008060408385031215610fd957610fd8610da8565b5b6000610fe785828601610df6565b9250506020610ff885828601610df6565b9150509250929050565b7f4e487b7100000000000000000000000000000000000000000000000000000000600052602260045260246000fd5b6000600282049050600182168061104957607f821691505b60208210810361105c5761105b611002565b5b50919050565b7f6f776e657220726573747269637465642066756e74696f6e616c697479000000600082015250565b6000611098601d83610d01565b91506110a382611062565b602082019050919050565b600060208201905081810360008301526110c78161108b565b9050919050565b60006060820190506110e36000830186610f98565b6110f06020830185610eb7565b6110fd6040830184610eb7565b949350505050565b7f4e487b7100000000000000000000000000000000000000000000000000000000600052601160045260246000fd5b600061113f82610e0b565b915061114a83610e0b565b925082820190508082111561116257611161611105565b5b9291505056fea26469706673582212208f2e6f5d0dbced846901909d3cfb985dfc2c326672543bffe812f1d4043f970d64736f6c63430008130033608060405234801561001057600080fd5b506108c6806100206000396000f3fe608060405234801561001057600080fd5b50600436106100415760003560e01c80638c8d98a014610046578063a6f0e57714610076578063ebba3c4f146100a6575b600080fd5b610060600480360381019061005b919061051f565b6100d6565b60405161006d919061058b565b60405180910390f35b610090600480360381019061008b91906105a6565b6103f2565b60405161009d91906105ee565b60405180910390f35b6100c060048036038101906100bb9190610635565b610461565b6040516100cd919061058b565b60405180910390f35b6000806107b290505b8461ffff168161ffff16101561013a576100f8816103f2565b15610114576301e285008261010d9190610691565b9150610127565b6301e13380826101249190610691565b91505b8080610132906106c5565b9150506100df565b610142610484565b601f816000600c8110610158576101576106ef565b5b602002019060ff16908160ff1681525050610172866103f2565b156101a357601d816001600c811061018d5761018c6106ef565b5b602002019060ff16908160ff16815250506101cb565b601c816001600c81106101b9576101b86106ef565b5b602002019060ff16908160ff16815250505b601f816002600c81106101e1576101e06106ef565b5b602002019060ff16908160ff1681525050601e816003600c8110610208576102076106ef565b5b602002019060ff16908160ff1681525050601f816004600c811061022f5761022e6106ef565b5b602002019060ff16908160ff1681525050601e816005600c8110610256576102556106ef565b5b602002019060ff16908160ff1681525050601f816006600c811061027d5761027c6106ef565b5b602002019060ff16908160ff1681525050601f816007600c81106102a4576102a36106ef565b5b602002019060ff16908160ff1681525050601e816008600c81106102cb576102ca6106ef565b5b602002019060ff16908160ff1681525050601f816009600c81106102f2576102f16106ef565b5b602002019060ff16908160ff1681525050601e81600a600c8110610319576103186106ef565b5b602002019060ff16908160ff1681525050601f81600b600c81106103405761033f6106ef565b5b602002019060ff16908160ff1681525050600191505b8460ff168261ffff1610156103be5780600183610373919061071e565b61ffff16600c8110610388576103876106ef565b5b602002015160ff166201518061039e9190610754565b836103a99190610691565b925081806103b6906106c5565b925050610356565b6001846103cb9190610796565b60ff16620151806103dc9190610754565b836103e79190610691565b925050509392505050565b60008060048361040291906107fa565b61ffff1614610414576000905061045c565b600060648361042391906107fa565b61ffff1614610435576001905061045c565b60006101908361044591906107fa565b61ffff1614610457576000905061045c565b600190505b919050565b60006201518082610472919061082b565b8261047d919061085c565b9050919050565b604051806101800160405280600c90602082028036833780820191505090505090565b600080fd5b600061ffff82169050919050565b6104c3816104ac565b81146104ce57600080fd5b50565b6000813590506104e0816104ba565b92915050565b600060ff82169050919050565b6104fc816104e6565b811461050757600080fd5b50565b600081359050610519816104f3565b92915050565b600080600060608486031215610538576105376104a7565b5b6000610546868287016104d1565b93505060206105578682870161050a565b92505060406105688682870161050a565b9150509250925092565b6000819050919050565b61058581610572565b82525050565b60006020820190506105a0600083018461057c565b92915050565b6000602082840312156105bc576105bb6104a7565b5b60006105ca848285016104d1565b91505092915050565b60008115159050919050565b6105e8816105d3565b82525050565b600060208201905061060360008301846105df565b92915050565b61061281610572565b811461061d57600080fd5b50565b60008135905061062f81610609565b92915050565b60006020828403121561064b5761064a6104a7565b5b600061065984828501610620565b91505092915050565b7f4e487b7100000000000000000000000000000000000000000000000000000000600052601160045260246000fd5b600061069c82610572565b91506106a783610572565b92508282019050808211156106bf576106be610662565b5b92915050565b60006106d0826104ac565b915061ffff82036106e4576106e3610662565b5b600182019050919050565b7f4e487b7100000000000000000000000000000000000000000000000000000000600052603260045260246000fd5b6000610729826104ac565b9150610734836104ac565b9250828203905061ffff81111561074e5761074d610662565b5b92915050565b600061075f82610572565b915061076a83610572565b925082820261077881610572565b9150828204841483151761078f5761078e610662565b5b5092915050565b60006107a1826104e6565b91506107ac836104e6565b9250828203905060ff8111156107c5576107c4610662565b5b92915050565b7f4e487b7100000000000000000000000000000000000000000000000000000000600052601260045260246000fd5b6000610805826104ac565b9150610810836104ac565b9250826108205761081f6107cb565b5b828206905092915050565b600061083682610572565b915061084183610572565b925082610851576108506107cb565b5b828206905092915050565b600061086782610572565b915061087283610572565b925082820390508181111561088a57610889610662565b5b9291505056fea26469706673582212208acd08d341d1f6eaea19ed083a3ae01ba6b90b36b408ef0cf190853412c97b9264736f6c63430008130033",
  "immutableReferences": {},
  "source": "//SPDX-License-Identifier: Unlicense\r\npragma solidity >=0.7.0 <0.9.0;\r\n\r\nimport \"../../node_modules/@openzeppelin/contracts/token/ERC20/ERC20.sol\";\r\nimport \"../../node_modules/@openzeppelin/contracts/utils/math/Math.sol\";\r\n\r\nimport './HotelToken.sol';\r\nimport './TimeManager.sol';\r\n\r\ncontract SmartHotel {\r\n    string public constant name = 'SmartHotel';\r\n    HotelToken public hotelToken;// 1 token = 1 day \r\n    TimeManager private timeManager;//time manager\r\n    address payable public owner;\r\n    uint16 public roomNum;\r\n    uint64 public hotelTokenPrice;// price of one token in ETH\r\n    uint256 public deployTime;\r\n    \r\n\r\n    struct RoomPass {\r\n        uint256 password;\r\n        bool set;\r\n    }\r\n\r\n    struct Appointment {  \r\n        bool isAppointment;\r\n        string partyName;\r\n        address userAddress;\r\n    }\r\n\r\n    struct UserBooking {\r\n        uint256 timestamp;\r\n        uint8 numDays;\r\n        bool isCheckedIn;\r\n        uint16 roomId;\r\n    }\r\n\r\n    mapping(uint16 => RoomPass) private roomPasses;  //roomid => roompass\r\n    mapping(uint16 => bool) public roomKeyStates;  //is room key opening\r\n    //key is mod 86400\r\n    mapping(uint16 => mapping(uint256 => Appointment)) scheduleByTimestamp;  //roomiduint=>timestampuint=>appo\r\n    mapping(address => UserBooking[]) public userBookings;\r\n\r\n    event TokenPriceChanged(uint64 indexed oldPrice, uint64 indexed newPrice);\r\n    event TokenBought(address indexed from, uint256 sum, uint64 indexed price);\r\n    event AppoScheduled(address indexed from, uint256 indexed timestamp, uint256 indexed span, uint16 room);\r\n    event AppoRefunded(address indexed from, uint256 indexed timestamp, uint256 indexed span, uint8 index);\r\n    event CheckedIn(address indexed user, uint256 indexed timestamp);\r\n    event CheckedOut(address indexed user, uint256 indexed timestamp);\r\n    event roomPassOK(address indexed user, uint256 indexed timestamp);\r\n    event keyOpened(address indexed user, uint256 indexed timestamp);\r\n    event keyLocked(address indexed user, uint256 indexed timestamp);\r\n\r\n    modifier onlyOwner() {\r\n        require(msg.sender == owner, \"only owner\");\r\n        _;\r\n    }\r\n\r\n    modifier validMonth(uint8 _m) {\r\n        require(_m > 0 && _m < 13, \"1-12\");\r\n        _;\r\n    }\r\n\r\n    modifier validDay(uint8 _d) {\r\n        require(_d > 0 && _d < 32, \"Invalid day\");\r\n        _;\r\n    }\r\n\r\n    modifier validNumDays(uint8 _num) {\r\n        require(_num > 0, \"above 0\");\r\n        _;\r\n    }\r\n\r\n    modifier validTimestamp(uint256 _t) {\r\n        validateTimestamp(_t);\r\n        _;\r\n    }\r\n\r\n    modifier validRoomId(uint16 _id) {\r\n        require(0 <= _id && _id <= roomNum, \"Invalid room Id\");\r\n        _;\r\n    }\r\n\r\n    modifier validAppoRange(uint256 _t, uint8 _r) {\r\n        isMod86400(_t);\r\n        require(_r <= 365 && _r > 0, \"1-365\");\r\n        _;\r\n    }\r\n\r\n    modifier validName(string memory _s) {\r\n        require(bytes(_s).length != 0, \"blank\");\r\n        _;\r\n    }\r\n\r\n    constructor(\r\n        uint64 _initialPrice,\r\n        uint16 _roomNum\r\n    ) {\r\n        deployTime = block.timestamp;\r\n        hotelToken = new HotelToken(address(this));\r\n        owner = payable(msg.sender);\r\n        timeManager = new TimeManager();\r\n        hotelTokenPrice = _initialPrice;\r\n        roomNum = _roomNum;\r\n    }\r\n\r\n    function validateTimestamp(uint256 _t) private view {\r\n        require(\r\n            _t > deployTime,\r\n            \"before deploy\"\r\n        );\r\n        isMod86400(_t);\r\n    }\r\n\r\n    function isMod86400(uint256 _t) private pure {\r\n        require(\r\n            _t % 86400 == 0,\r\n            \"mod 86400\"\r\n        );\r\n    }\r\n\r\n    //\r\n    function getUnixTimestamp(\r\n        uint16 _year,\r\n        uint8 _month,\r\n        uint8 _day\r\n    ) external view returns (uint256) {\r\n        return timeManager.toTimestamp(_year, _month, _day);\r\n    }\r\n\r\n    //\r\n    function getTokenBalance(address _addr) external view returns (uint256) {\r\n        return hotelToken.balanceOf(_addr);\r\n    }\r\n\r\n    //\r\n    function getUserAppo(address _addr)\r\n        external\r\n        view\r\n        returns (UserBooking[] memory)\r\n    {\r\n        return userBookings[_addr];  //UserBooking\r\n    }\r\n\r\n    //\r\n    function getAppoList(uint16 _roomId, uint256 _start, uint8 _numDays) \r\n        external\r\n        view\r\n        validRoomId(_roomId)\r\n        validAppoRange(_start, _numDays)\r\n        returns (uint256[] memory)\r\n    {\r\n\r\n        // up to 31 days in a month\r\n        uint256[] memory monthlyAppointments = new uint256[](_numDays);\r\n        for (uint256 i = 0; i < _numDays; ) {\r\n            Appointment memory foundAppointment = scheduleByTimestamp[_roomId][_start + (i * 86400)];\r\n            if (foundAppointment.isAppointment) {\r\n                monthlyAppointments[i] = 1;\r\n            }\r\n            unchecked{ i++; }\r\n        }\r\n\r\n        return monthlyAppointments;\r\n    }\r\n\r\n    function bookAppo(\r\n        uint16 _roomId,\r\n        string calldata _name,\r\n        uint256 _timestamp,\r\n        uint8 _numDays\r\n    )\r\n        external\r\n        validRoomId(_roomId)\r\n        validName(_name)\r\n        validTimestamp(_timestamp)\r\n        validNumDays(_numDays)\r\n    {\r\n        hotelToken.burnToken(msg.sender, _numDays);\r\n\r\n        for (uint256 i = 0; i < _numDays; ) {\r\n            require(\r\n                scheduleByTimestamp[_roomId][_timestamp + (86400 * i)].isAppointment !=\r\n                    true,\r\n                \"Appointment already exists\"\r\n            );\r\n\r\n            scheduleByTimestamp[_roomId][_timestamp + (86400 * i)] = Appointment(\r\n                true,\r\n                _name,\r\n                msg.sender\r\n            );\r\n            unchecked{ i++; }\r\n        }\r\n        userBookings[msg.sender].push(UserBooking(_timestamp, _numDays, false, _roomId));\r\n\r\n        emit AppoScheduled(msg.sender, _timestamp, _numDays, _roomId);\r\n    }\r\n\r\n    function removeUserBooking(uint8 _indexToDelete) internal {\r\n        require(_indexToDelete < userBookings[msg.sender].length);\r\n        userBookings[msg.sender][_indexToDelete] = userBookings[msg.sender][\r\n            userBookings[msg.sender].length - 1\r\n        ];\r\n        userBookings[msg.sender].pop();\r\n    }\r\n\r\n    // \r\n    function refundAppo(uint8 _index) external {\r\n        // first get the timestamp and numdays from timestamp from the index\r\n        require(userBookings[msg.sender][_index].isCheckedIn != true, \"You have already checked in\");\r\n        uint256 timestamp = userBookings[msg.sender][_index].timestamp;\r\n        uint8 numDays = userBookings[msg.sender][_index].numDays;\r\n        uint16 roomId = userBookings[msg.sender][_index].roomId;\r\n        require(timestamp > 0 && numDays > 0, \"no booking found\");\r\n        validateTimestamp(timestamp);\r\n        // cannot cancel past\r\n        require(\r\n            timestamp > block.timestamp,\r\n            \"cannot cancel events in the past\"\r\n        );\r\n        \r\n        for (uint256 i = 0; i < numDays; ) {\r\n            uint256 currDay = timestamp + (86400 * i);\r\n            require(\r\n                scheduleByTimestamp[roomId][currDay].isAppointment == true,\r\n                \"not exist appo\"\r\n            );\r\n            require(\r\n                scheduleByTimestamp[roomId][currDay].userAddress == msg.sender,\r\n                \"You haven't appo\"\r\n            );\r\n            //delete\r\n            scheduleByTimestamp[roomId][currDay].isAppointment = false;\r\n            unchecked{ i++; }\r\n        }\r\n        //\r\n        removeUserBooking(_index);\r\n        //\r\n        hotelToken.mintToken(msg.sender, numDays);\r\n        //UIemit\r\n        emit AppoRefunded(msg.sender, timestamp, numDays, _index);\r\n    }\r\n\r\n    //1ETH\r\n    function changeTokenPrice(uint64 _newPrice) external onlyOwner {\r\n        require(_newPrice > 0, \"above zero\");\r\n        uint64 temp = hotelTokenPrice;\r\n        hotelTokenPrice = _newPrice;\r\n        emit TokenPriceChanged(temp, _newPrice);\r\n    }\r\n\r\n    function buyTokens(uint256 _numTokens) external payable {\r\n        require(msg.value > 0, \"no ether\");\r\n        require(msg.value >= (hotelTokenPrice * _numTokens), \"not enough ether\");\r\n        // transfer ETH to owner account\r\n        (bool sent, ) = owner.call{value: hotelTokenPrice * _numTokens}(\"\");  //call function\r\n        require(sent, \"Failed to send\");\r\n\r\n        uint64 excessEth = uint64(msg.value - (hotelTokenPrice * _numTokens));\r\n    \r\n        if (excessEth > 0) {\r\n            payable(msg.sender).transfer(excessEth);\r\n        }\r\n        \r\n        hotelToken.mintToken(msg.sender, _numTokens);\r\n        // use hotelTokenPrice for easy human-readable USD value\r\n        emit TokenBought(msg.sender, _numTokens, hotelTokenPrice);\r\n    }\r\n\r\n    function checkIn(uint256 _timestamp, uint8 _index) external validTimestamp(_timestamp) { //\r\n        uint16 roomId = userBookings[msg.sender][_index].roomId;\r\n        Appointment memory appointment = scheduleByTimestamp[roomId][_timestamp];\r\n        //block.timestampmod86400_timestamprequire\r\n        //require(_timestamp == timeManager.marume86400(block.timestamp), \"This is not today\");  ///test\r\n        require(appointment.isAppointment, \"No appo exists\");\r\n        require(appointment.userAddress == msg.sender, \"You have no appo\");\r\n        require(userBookings[msg.sender][_index].isCheckedIn != true, \"already checked in\");\r\n\r\n        //\r\n        userBookings[msg.sender][_index].isCheckedIn = true;\r\n\r\n        emit CheckedIn(msg.sender, block.timestamp);\r\n    }\r\n\r\n    function checkOut(uint256 _timestamp, uint8 _index) external validTimestamp(_timestamp) {\r\n        uint16 roomId = userBookings[msg.sender][_index].roomId;\r\n        Appointment memory appointment = scheduleByTimestamp[roomId][_timestamp];\r\n        require(appointment.isAppointment, \"No appo exists\");\r\n        require(appointment.userAddress == msg.sender, \"You have no appo\");\r\n        require(userBookings[msg.sender][_index].isCheckedIn == true, \"You have not checked in\");\r\n\r\n        //\r\n        roomPasses[roomId].set = false;\r\n        userBookings[msg.sender][_index].isCheckedIn = false;\r\n        removeUserBooking(_index);  //\r\n        emit CheckedOut(msg.sender, block.timestamp);\r\n    }\r\n\r\n    //\r\n    function roomPassSet(uint256[6] calldata _input, uint256 _timestamp, uint8 _index) external validTimestamp(_timestamp) {\r\n        uint16 roomId = userBookings[msg.sender][_index].roomId;\r\n        Appointment memory appointment = scheduleByTimestamp[roomId][_timestamp];\r\n        require(roomPasses[roomId].set == false, \"You have already set pass\");\r\n        require(appointment.isAppointment, \"No appo exists\");\r\n        require(appointment.userAddress == msg.sender, \"You have no appo\");\r\n        require(userBookings[appointment.userAddress][_index].isCheckedIn, \"You have not checked in\");\r\n\r\n        for (uint256 i = 0; i < 6; ) {\r\n            require(0 <= _input[i] && _input[i] < 10, \"password must be 6num\");\r\n            unchecked{ i++; }\r\n        }\r\n\r\n        roomPasses[roomId].password = uint256(keccak256(abi.encodePacked(_input)));//\r\n\r\n        roomPasses[roomId].set = true;  //issue\r\n        // Emit an event with the one-time code\r\n        emit roomPassOK(appointment.userAddress, block.timestamp);\r\n    }\r\n\r\n    function isPassSet(uint16 _roomId) external view returns (bool) {\r\n        return roomPasses[_roomId].set;\r\n    }\r\n\r\n    //\r\n    function keyOpen(uint256[6] calldata _input, uint256 _timestamp, uint8 _index) external validTimestamp(_timestamp) {\r\n        uint16 roomId = userBookings[msg.sender][_index].roomId;\r\n        Appointment memory appointment = scheduleByTimestamp[roomId][_timestamp];\r\n        require(appointment.isAppointment, \"No appo exists\");\r\n        require(appointment.userAddress == msg.sender, \"You have no appo\");\r\n        require(userBookings[appointment.userAddress][_index].isCheckedIn, \"You have not checked in\");\r\n        require(roomKeyStates[roomId] == false, \"already opened\");\r\n        require(roomPasses[roomId].set == true, \"Please set your password\");\r\n        require(roomPasses[roomId].password == uint256(keccak256(abi.encodePacked(_input))), \"incorrect password\");\r\n\r\n        roomKeyStates[roomId] = true;\r\n\r\n        emit keyOpened(appointment.userAddress, block.timestamp);  //roomnum\r\n    }\r\n\r\n    function keyLock(uint256 _timestamp, uint8 _index) external validTimestamp(_timestamp) {\r\n        uint16 roomId = userBookings[msg.sender][_index].roomId;\r\n        Appointment memory appointment = scheduleByTimestamp[roomId][_timestamp];\r\n        require(appointment.isAppointment, \"No appo exists\");\r\n        require(appointment.userAddress == msg.sender, \"You have no appo\");\r\n        require(userBookings[appointment.userAddress][_index].isCheckedIn, \"You have not checked in\");\r\n        require(roomKeyStates[roomId] == true, \"already closed\");\r\n        //require(roomPass.used == true, \"Room key must be used before locking\");\r\n\r\n        // Lock the room key\r\n        roomKeyStates[roomId] = false;\r\n\r\n        // Emit an event to indicate that the key is locked\r\n        emit keyLocked(appointment.userAddress, block.timestamp);\r\n    }\r\n\r\n    //\r\n    function showAppo(uint16 _roomId, uint256 _timestamp) external view validTimestamp(_timestamp) returns (Appointment memory appo) {\r\n        appo = scheduleByTimestamp[_roomId][_timestamp];\r\n    }\r\n\r\n    function isCheckedIn(uint8 _index) external view returns (UserBooking memory booking) {\r\n        booking = userBookings[msg.sender][_index];\r\n    }\r\n\r\n    function isDoorOpen(uint16 _roomId) external view returns (bool) {\r\n        return roomKeyStates[_roomId];\r\n    }\r\n}",
  "sourcePath": "C:\\Users\\Hong lab\\project\\smart-hotel\\src\\contracts\\SmartHotel.sol",
  "compiler": {
    "name": "solc",
    "version": "0.8.19+commit.7dd6d404.Emscripten.clang"
  },
  "schemaVersion": "3.4.14",
  "updatedAt": "2023-11-28T11:12:44.703Z",
  "networkType": "ethereum",
  "devdoc": {
    "kind": "dev",
    "methods": {},
    "version": 1
  },
  "userdoc": {
    "kind": "user",
    "methods": {},
    "version": 1
  }
}